{
  "address": "0xb98AEdAa01D0e821278d68f2A2A13FbdB2d81A33",
  "abi": [
    {
      "anonymous": false,
      "inputs": [
        {
          "indexed": true,
          "internalType": "contract KlerosGovernor",
          "name": "_address",
          "type": "address"
        }
      ],
      "name": "NewGovernor",
      "type": "event"
    },
    {
      "inputs": [
        {
          "internalType": "contract IArbitratorV2",
          "name": "_arbitrator",
          "type": "address"
        },
        {
          "internalType": "bytes",
          "name": "_arbitratorExtraData",
          "type": "bytes"
        },
        {
          "internalType": "contract IDisputeTemplateRegistry",
          "name": "_templateRegistry",
          "type": "address"
        },
        {
          "internalType": "string",
          "name": "_templateData",
          "type": "string"
        },
        {
          "internalType": "string",
          "name": "_templateDataMappings",
          "type": "string"
        },
        {
          "internalType": "uint256",
          "name": "_submissionBaseDeposit",
          "type": "uint256"
        },
        {
          "internalType": "uint256",
          "name": "_submissionTimeout",
          "type": "uint256"
        },
        {
          "internalType": "uint256",
          "name": "_executionTimeout",
          "type": "uint256"
        },
        {
          "internalType": "uint256",
          "name": "_withdrawTimeout",
          "type": "uint256"
        },
        {
          "internalType": "address",
          "name": "_wNative",
          "type": "address"
        }
      ],
      "name": "deploy",
      "outputs": [],
      "stateMutability": "nonpayable",
      "type": "function"
    },
    {
      "inputs": [
        {
          "internalType": "uint256",
          "name": "",
          "type": "uint256"
        }
      ],
      "name": "instances",
      "outputs": [
        {
          "internalType": "contract KlerosGovernor",
          "name": "",
          "type": "address"
        }
      ],
      "stateMutability": "view",
      "type": "function"
    }
  ],
  "transactionHash": "0x98d9df2795efe63485af9cc222bbccf21e60bb18bd3d83c20ed565b5dd5f2ed2",
  "args": [],
  "numDeployments": 14,
  "solcInputHash": "cd6d9ab2234a0ebc82824f25c5ddf74e",
  "bytecode": "0x608060405234801561001057600080fd5b506133d6806100206000396000f3fe60806040523480156200001157600080fd5b50600436106200003a5760003560e01c8063a17ad8a7146200003f578063a2f7b3a51462000058575b600080fd5b62000056620000503660046200025c565b6200008b565b005b6200006f620000693660046200034f565b6200015b565b6040516001600160a01b03909116815260200160405180910390f35b60008a8a8a8a8a8a8a8a8a8a604051620000a59062000186565b620000ba9a99989796959493929190620003b1565b604051809103906000f080158015620000d7573d6000803e3d6000fd5b50600080546001810182558180527f290decd9548b62a8d60345a988386fc84ba6bc95484008f6362f93160ef3e5630180546001600160a01b0319166001600160a01b038416908117909155604051929350917f5425363a03f182281120f5919107c49c7a1a623acc1cbc6df468b6f0c11fcf8c9190a25050505050505050505050565b600081815481106200016c57600080fd5b6000918252602090912001546001600160a01b0316905081565b612f5e806200044383390190565b80356001600160a01b0381168114620001ac57600080fd5b919050565b634e487b7160e01b600052604160045260246000fd5b600082601f830112620001d957600080fd5b813567ffffffffffffffff80821115620001f757620001f7620001b1565b604051601f8301601f19908116603f01168101908282118183101715620002225762000222620001b1565b816040528381528660208588010111156200023c57600080fd5b836020870160208301376000602085830101528094505050505092915050565b6000806000806000806000806000806101408b8d0312156200027d57600080fd5b620002888b62000194565b995060208b013567ffffffffffffffff80821115620002a657600080fd5b620002b48e838f01620001c7565b9a50620002c460408e0162000194565b995060608d0135915080821115620002db57600080fd5b620002e98e838f01620001c7565b985060808d01359150808211156200030057600080fd5b506200030f8d828e01620001c7565b96505060a08b0135945060c08b0135935060e08b013592506101008b013591506200033e6101208c0162000194565b90509295989b9194979a5092959850565b6000602082840312156200036257600080fd5b5035919050565b6000815180845260005b81811015620003915760208185018101518683018201520162000373565b506000602082860101526020601f19601f83011685010191505092915050565b6001600160a01b038b8116825261014060208301819052600091620003d98483018e62000369565b9150808c1660408501528382036060850152620003f7828c62000369565b915083820360808501526200040d828b62000369565b92508860a08501528760c08501528660e08501528561010085015280851661012085015250509b9a505050505050505050505056fe60806040523480156200001157600080fd5b5060405162002f5e38038062002f5e833981016040819052620000349162000225565b600080546001600160a01b0319166001600160a01b038c1617905560016200005d8a82620003a9565b50600280546001600160a01b038084166001600160a01b031992831617909255426009556005879055600686905560078590556008849055600c80546001908101909155600b8054909101815560005260038054928b1692909116821790556040516312a6505d60e21b8152634a99417490620000e1908a908a90600401620004a3565b6020604051808303816000875af115801562000101573d6000803e3d6000fd5b505050506040513d601f19601f82011682018060405250810190620001279190620004e3565b60045550620004fd98505050505050505050565b80516001600160a01b03811681146200015357600080fd5b919050565b634e487b7160e01b600052604160045260246000fd5b60005b838110156200018b57818101518382015260200162000171565b50506000910152565b600082601f830112620001a657600080fd5b81516001600160401b0380821115620001c357620001c362000158565b604051601f8301601f19908116603f01168101908282118183101715620001ee57620001ee62000158565b816040528381528660208588010111156200020857600080fd5b6200021b8460208301602089016200016e565b9695505050505050565b6000806000806000806000806000806101408b8d0312156200024657600080fd5b620002518b6200013b565b60208c0151909a506001600160401b03808211156200026f57600080fd5b6200027d8e838f0162000194565b9a506200028d60408e016200013b565b995060608d0151915080821115620002a457600080fd5b620002b28e838f0162000194565b985060808d0151915080821115620002c957600080fd5b50620002d88d828e0162000194565b96505060a08b0151945060c08b0151935060e08b015192506101008b01519150620003076101208c016200013b565b90509295989b9194979a5092959850565b600181811c908216806200032d57607f821691505b6020821081036200034e57634e487b7160e01b600052602260045260246000fd5b50919050565b601f821115620003a4576000816000526020600020601f850160051c810160208610156200037f5750805b601f850160051c820191505b81811015620003a0578281556001016200038b565b5050505b505050565b81516001600160401b03811115620003c557620003c562000158565b620003dd81620003d6845462000318565b8462000354565b602080601f831160018114620004155760008415620003fc5750858301515b600019600386901b1c1916600185901b178555620003a0565b600085815260208120601f198616915b82811015620004465788860151825594840194600190910190840162000425565b5085821015620004655787850151600019600388901b60f8161c191681555b5050505050600190811b01905550565b600081518084526200048f8160208601602086016200016e565b601f01601f19169290920160200192915050565b6060815260006060820152608060208201526000620004c6608083018562000475565b8281036040840152620004da818562000475565b95945050505050565b600060208284031215620004f657600080fd5b5051919050565b612a51806200050d6000396000f3fe6080604052600436106101bd5760003560e01c806383c4b7a3116100ed578063b6cd08c611610090578063b6cd08c614610551578063b6dc775414610571578063ba7079ca14610586578063bb0b86ff146105a6578063c4bd8519146105bc578063c5d55288146105d2578063cc2bcdb4146105f2578063dc17bbdb14610612578063f730c07f1461063257600080fd5b806383c4b7a31461040f5780639244c70414610440578063953d6651146104555780639c15d1a214610475578063a0af81f01461048b578063a3c595c9146104ab578063ad73349e146104db578063b51257001461053c57600080fd5b8063397c330f11610160578063397c330f146102f45780633e8686cc14610321578063402ff0db1461034e578063460478381461037b5780636c0b7e711461038e5780636cc6cde1146103a35780636cf39c2b146103c357806377b9fda8146103e35780637aa77f29146103f957600080fd5b80630c7ac7b6146101c95780631b1f5e7b146101f457806321cea5381461021757806322b52d6614610244578063246c76df1461025a57806324baacc71461027c5780632d68efc91461029c578063311a6c56146102d457600080fd5b366101c457005b600080fd5b3480156101d557600080fd5b506101de610648565b6040516101eb919061203a565b60405180910390f35b34801561020057600080fd5b506102096106d6565b6040519081526020016101eb565b34801561022357600080fd5b50610237610232366004612054565b61075b565b6040516101eb919061206d565b34801561025057600080fd5b5061020960075481565b34801561026657600080fd5b5061027a610275366004612054565b6107dd565b005b34801561028857600080fd5b5061027a610297366004612054565b610802565b3480156102a857600080fd5b506002546102bc906001600160a01b031681565b6040516001600160a01b0390911681526020016101eb565b3480156102e057600080fd5b5061027a6102ef3660046120b1565b610827565b34801561030057600080fd5b5061020961030f366004612054565b600e6020526000908152604090205481565b34801561032d57600080fd5b5061034161033c366004612054565b6109f9565b6040516101eb91906120d3565b34801561035a57600080fd5b5061036e610369366004612054565b610bf4565b6040516101eb919061220e565b61027a610389366004612468565b610ce2565b34801561039a57600080fd5b506102096112ea565b3480156103af57600080fd5b506000546102bc906001600160a01b031681565b3480156103cf57600080fd5b5061027a6103de366004612539565b6112fc565b3480156103ef57600080fd5b50610209600a5481565b34801561040557600080fd5b5061020960045481565b34801561041b57600080fd5b5061042f61042a366004612054565b6114c0565b6040516101eb959493929190612565565b34801561044c57600080fd5b5061027a611507565b34801561046157600080fd5b5061027a610470366004612054565b61189f565b34801561048157600080fd5b5061020960085481565b34801561049757600080fd5b506003546102bc906001600160a01b031681565b3480156104b757600080fd5b506104cb6104c63660046120b1565b611937565b6040516101eb9493929190612597565b3480156104e757600080fd5b506104fb6104f6366004612054565b611a51565b604080516001600160a01b03909816885260208801969096529486019390935260608501919091521515608084015260a083015260c082015260e0016101eb565b34801561054857600080fd5b50610209611aad565b34801561055d57600080fd5b5061027a61056c3660046120b1565b611abd565b34801561057d57600080fd5b50600b54610209565b34801561059257600080fd5b5061027a6105a13660046125d1565b611d11565b3480156105b257600080fd5b5061020960055481565b3480156105c857600080fd5b5061020960065481565b3480156105de57600080fd5b5061027a6105ed366004612620565b611dd0565b3480156105fe57600080fd5b5061027a61060d366004612054565b611e6c565b34801561061e57600080fd5b5061020961062d366004612054565b611e91565b34801561063e57600080fd5b5061020960095481565b6001805461065590612679565b80601f016020809104026020016040519081016040528092919081815260200182805461068190612679565b80156106ce5780601f106106a3576101008083540402835291602001916106ce565b820191906000526020600020905b8154815290600101906020018083116106b157829003601f168201915b505050505081565b6000805460405163f7434ea960e01b81526001600160a01b039091169063f7434ea99061070890600190600401612730565b602060405180830381865afa158015610725573d6000803e3d6000fd5b505050506040513d601f19601f820116820180604052508101906107499190612743565b6005546107569190612772565b905090565b60606000600c83815481106107725761077261278b565b90600052602060002090600602019050806002018054806020026020016040519081016040528092919081815260200182805480156107d057602002820191906000526020600020905b8154815260200190600101908083116107bc575b5050505050915050919050565b3033146107fd57604051630b2db9b760e31b815260040160405180910390fd5b600855565b30331461082257604051630b2db9b760e31b815260040160405180910390fd5b600555565b600c80546000919061083b906001906127a1565b8154811061084b5761084b61278b565b600091825260208220915460069190910290910191506001600160a01b031633146108895760405163381a2cb560e11b815260040160405180910390fd5b6001600482015460ff1660028111156108a4576108a46121d6565b146108c2576040516310cec38560e21b815260040160405180910390fd5b60028101548211156108e757604051631f6edbfd60e01b815260040160405180910390fd5b8115610977576000600b600283016109006001866127a1565b815481106109105761091061278b565b90600052602060002001548154811061092b5761092b61278b565b600091825260209091206005600890920201908101805460ff1916600117905542600682015560038301546002548254929350610975926001600160a01b03908116929116611ec2565b505b8060030154600a600082825461098d91906127a1565b90915550506000600382018190554260095560048201805460ff19166002179055828255600c805460010181559052604051828152839033907f394027a5fa6e098a1191094d1719d6929b9abc535fcc0c8f448d6a4e75622276906020015b60405180910390a3505050565b610a4f60405180610100016040528060006001600160a01b031681526020016000815260200160608152602001600080191681526020016000815260200160001515815260200160008152602001600081525090565b600b8281548110610a6257610a6261278b565b600091825260208083206040805161010081018252600890940290910180546001600160a01b03168452600181015484840152600281018054835181860281018601855281815295969295938701949192909184015b82821015610bae576000848152602090819020604080516080810182526004860290920180546001600160a01b0316835260018101549383019390935260028301805492939291840191610b0b90612679565b80601f0160208091040260200160405190810160405280929190818152602001828054610b3790612679565b8015610b845780601f10610b5957610100808354040283529160200191610b84565b820191906000526020600020905b815481529060010190602001808311610b6757829003601f168201915b50505091835250506003919091015460ff1615156020918201529082526001929092019101610ab8565b505050908252506003820154602082015260048201546040820152600582015460ff16151560608201526006820154608082015260079091015460a09091015292915050565b610bfc611fad565b600c8281548110610c0f57610c0f61278b565b90600052602060002090600602016040518060c0016040529081600082015481526020016001820154815260200160028201805480602002602001604051908101604052809291908181526020018280548015610c8b57602002820191906000526020600020905b815481526020019060010190808311610c77575b505050918352505060038201546020820152600482015460409091019060ff166002811115610cbc57610cbc6121d6565b6002811115610ccd57610ccd6121d6565b81526020016005820154815250509050919050565b600c805460009190610cf6906001906127a1565b81548110610d0657610d0661278b565b906000526020600020906006020160050154905080600654610d289190612772565b600954610d3590426127a1565b1115610d545760405163d5ac976d60e01b815260040160405180910390fd5b8451865114610d7657604051638f32290560e01b815260040160405180910390fd5b8251865114610d9857604051633222108360e01b815260040160405180910390fd5b600c805460009190610dac906001906127a1565b81548110610dbc57610dbc61278b565b60009182526020808320600b8054600181018255945260089093027f0175b7a638427703f0dbe7bb9bbf987a2551717b34e79f33b5b1008d1fa01db90180546001600160a01b031916331781556040805163a3b1b31d60e01b81529051600690940290940194509260649263a3b1b31d926004808401939192918290030181865afa158015610e4f573d6000803e3d6000fd5b505050506040513d601f19601f82011682018060405250810190610e739190612743565b600782015560005460405163f7434ea960e01b81526001600160a01b039091169063f7434ea990610ea990600190600401612730565b602060405180830381865afa158015610ec6573d6000803e3d6000fd5b505050506040513d601f19601f82011682018060405250810190610eea9190612743565b600554610ef79190612772565b60018201819055341015610f1e5760405163070f6eed60e11b815260040160405180910390fd5b60008080805b8b5181101561112a576000898281518110610f4157610f4161278b565b60200260200101516001600160401b03811115610f6057610f606122a1565b6040519080825280601f01601f191660200182016040528015610f8a576020820181803683370190505b50600287018054600181018255600091825260209091208f51929350600490910201908e9084908110610fbf57610fbf61278b565b602090810291909101015181546001600160a01b0319166001600160a01b039091161781558c518d9084908110610ff857610ff861278b565b6020026020010151816001018190555060005b8b848151811061101d5761101d61278b565b6020026020010151811015611083578c6110378287612772565b815181106110475761104761278b565b602001015160f81c60f81b8382815181106110645761106461278b565b60200101906001600160f81b031916908160001a90535060010161100b565b50600281016110928382612805565b508a83815181106110a5576110a561278b565b6020026020010151846110b89190612772565b815460018301546040519296506110e2926001600160a01b03909216916002850190602001612937565b60408051601f19818403018152828252805160209182012081840181905283830199909952815180840383018152606090930190915281519101209594505050600101610f24565b50600c54600d90600090611140906001906127a1565b81526020808201929092526040908101600090812086825290925290205460ff161561117f5760405163607cb3e760e01b815260040160405180910390fd5b6001600d60006001600c8054905061119791906127a1565b8152602080820192909252604090810160009081208782529092528120805460ff191692151592909217909155600385810185905542600487015560018601549087018054919290916111eb908490612772565b9091555050600b546002860190611204906001906127a1565b815460018181018455600093845260209093200155600286015490036112375760095461123190426127a1565b60058601555b600c54611246906001906127a1565b600b543390611257906001906127a1565b7f1a700b4f7df255aaf8c91c8b05abf0eab596e467dc17ef76fe4afc12541012488a604051611286919061203a565b60405180910390a460008460010154346112a091906127a1565b905080156112c1576002546112c190339083906001600160a01b0316611ec2565b8460010154600a60008282546112d79190612772565b9091555050505050505050505050505050565b600c54600090610756906001906127a1565b6000600b84815481106113115761131161278b565b60009182526020909120600890910201600581015490915060ff166113485760405162325f4560e91b815260040160405180910390fd5b600754600682015461135a90426127a1565b111561137957604051638b349aa560e01b815260040160405180910390fd5b825b60028201548110801561139e575082158061139e575061139b8385612772565b81105b156114b95760008260020182815481106113ba576113ba61278b565b9060005260206000209060040201905060006113d4611aad565b600383015490915060ff161580156113f0575080826001015411155b156114a457815460018301546040516000926001600160a01b0316919061141b90600287019061296a565b60006040518083038185875af1925050503d8060008114611458576040519150601f19603f3d011682016040523d82523d6000602084013e61145d565b606091505b50909150508015156001036114a257600383015460ff161561149257604051630dc1019760e01b815260040160405180910390fd5b60038301805460ff191660011790555b505b505080806114b190612976565b91505061137b565b5050505050565b600c81815481106114d057600080fd5b6000918252602090912060069091020180546001820154600383015460048401546005909401549294509092909160ff9091169085565b600c80546000919061151b906001906127a1565b8154811061152b5761152b61278b565b90600052602060002090600602016005015490508060065461154d9190612772565b60095461155a90426127a1565b1161157857604051631875ed4760e21b815260040160405180910390fd5b600c80546000919061158c906001906127a1565b8154811061159c5761159c61278b565b6000918252602082206006909102019150600482015460ff1660028111156115c6576115c66121d6565b146115e4576040516304ee891b60e11b815260040160405180910390fd5b60028101546000036116115742600955600401805460ff1916600217905550600c80546001018155600052565b60028101546001036116e0576000600b826002016000815481106116375761163761278b565b9060005260206000200154815481106116525761165261278b565b6000918252602082206005600890920201908101805460ff1916600117905542600682015560038401805492905560025481549193506116a0916001600160a01b0390811691849116611ec2565b4260095560048301805460ff19166002179055600c805460010181556000908152600a80548392906116d39084906127a1565b9091555061189b92505050565b6004818101805460ff191660019081179091556000805460405163f7434ea960e01b815291936001600160a01b039091169263f7434ea9926117229201612730565b602060405180830381865afa15801561173f573d6000803e3d6000fd5b505050506040513d601f19601f820116820180604052508101906117639190612743565b600054600284015460405163c13517e160e01b81529293506001600160a01b039091169163c13517e191849161179f919060019060040161298f565b60206040518083038185885af11580156117bd573d6000803e3d6000fd5b50505050506040513d601f19601f820116820180604052508101906117e29190612743565b600180840191909155600c546117f891906127a1565b60018301546000908152600e60205260409020556003820154811061181e57600061182e565b80826003015461182e91906127a1565b6003830155600a548110611843576000611851565b80600a5461185191906127a1565b600a5560018201546000546004546040519081526001600160a01b03909116907fee1017dcbefba87397fcdaab31f187328533572b6a5568177fa2eb64026003b6906020016109ec565b5050565b3033146118bf57604051630b2db9b760e31b815260040160405180910390fd5b600c8054600091906118d3906001906127a1565b815481106118e3576118e361278b565b9060005260206000209060060201600501549050806006546119059190612772565b60095461191290426127a1565b11156119315760405163d5ac976d60e01b815260040160405180910390fd5b50600655565b6000806060600080600b87815481106119525761195261278b565b9060005260206000209060080201905060008160020187815481106119795761197961278b565b600091825260209091206004909102018054600182015460038301546002840180549495506001600160a01b039093169391929160ff9091169082906119be90612679565b80601f01602080910402602001604051908101604052809291908181526020018280546119ea90612679565b8015611a375780601f10611a0c57610100808354040283529160200191611a37565b820191906000526020600020905b815481529060010190602001808311611a1a57829003601f168201915b505050505091509550955095509550505092959194509250565b600b8181548110611a6157600080fd5b600091825260209091206008909102018054600182015460038301546004840154600585015460068601546007909601546001600160a01b03909516965092949193909260ff16919087565b6000600a544761075691906127a1565b600c805460009190611ad1906001906127a1565b81548110611ae157611ae161278b565b906000526020600020906006020190506000600b826002018581548110611b0a57611b0a61278b565b906000526020600020015481548110611b2557611b2561278b565b906000526020600020906008020190506002600654611b4491906129b0565b600954611b5190426127a1565b1115611b705760405163383f4af360e21b815260040160405180910390fd5b82816003015414611b94576040516306e671b760e31b815260040160405180910390fd5b80546001600160a01b03163314611bbe5760405163415360c560e11b815260040160405180910390fd5b6008546004820154611bd090426127a1565b1115611bef5760405163603c988d60e11b815260040160405180910390fd5b600282018054611c01906001906127a1565b81548110611c1157611c1161278b565b9060005260206000200154826002018581548110611c3157611c3161278b565b6000918252602082200191909155600c54600d908290611c53906001906127a1565b8152602080820192909252604090810160009081208782529092529020805460ff191691151591909117905560028201805480611c9257611c926129d2565b600190038181906000526020600020016000905590558060010154826003016000828254611cc091906127a1565b90915550506001810154600a8054600090611cdc9084906127a1565b90915550506001810154604051339180156108fc02916000818181858888f193505050501580156114b9573d6000803e3d6000fd5b303314611d3157604051630b2db9b760e31b815260040160405180910390fd5b600c805460009190611d45906001906127a1565b81548110611d5557611d5561278b565b906000526020600020906006020160050154905080600654611d779190612772565b600954611d8490426127a1565b1115611da35760405163d5ac976d60e01b815260040160405180910390fd5b600080546001600160a01b0319166001600160a01b0385161790556001611dca8382612805565b50505050565b303314611df057604051630b2db9b760e31b815260040160405180910390fd5b6003546040516312a6505d60e21b81526001600160a01b0390911690634a99417490611e2290859085906004016129e8565b6020604051808303816000875af1158015611e41573d6000803e3d6000fd5b505050506040513d601f19601f82011682018060405250810190611e659190612743565b6004555050565b303314611e8c57604051630b2db9b760e31b815260040160405180910390fd5b600755565b600080600b8381548110611ea757611ea761278b565b60009182526020909120600260089092020101549392505050565b6040516001600160a01b0384169083156108fc029084906000818181858888f1935050505015611ef157505050565b806001600160a01b031663d0e30db0836040518263ffffffff1660e01b81526004016000604051808303818588803b158015611f2c57600080fd5b505af1158015611f40573d6000803e3d6000fd5b505060405163a9059cbb60e01b81526001600160a01b038781166004830152602482018790528516935063a9059cbb92506044019050600060405180830381600087803b158015611f9057600080fd5b505af1158015611fa4573d6000803e3d6000fd5b50505050505050565b6040518060c001604052806000815260200160008152602001606081526020016000815260200160006002811115611fe757611fe76121d6565b8152602001600081525090565b6000815180845260005b8181101561201a57602081850181015186830182015201611ffe565b506000602082860101526020601f19601f83011685010191505092915050565b60208152600061204d6020830184611ff4565b9392505050565b60006020828403121561206657600080fd5b5035919050565b6020808252825182820181905260009190848201906040850190845b818110156120a557835183529284019291840191600101612089565b50909695505050505050565b600080604083850312156120c457600080fd5b50508035926020909101359150565b60006020808352610120830160018060a01b0380865116838601528286015160408160408801526040880151915061010060608160608a01528584518088526101409750878b019150878160051b8c01019750888601955060005b818110156121875761013f198c8a0301835286516080898251168b528b8201518c8c01528782015181898d0152612167828d0182611ff4565b9287015115159b87019b909b52509850958901959189019160010161212e565b5050505060608901516080890152608089015160a089015260a089015195506121b460c089018715159052565b60c089015160e089015260e08901518189015250505050809250505092915050565b634e487b7160e01b600052602160045260246000fd5b6003811061220a57634e487b7160e01b600052602160045260246000fd5b9052565b6000602080835260e08301845182850152818501516040850152604085015160c06060860152818151808452610100870191508483019350600092505b8083101561226b578351825292840192600192909201919084019061224b565b50606087015160808701526080870151935061228a60a08701856121ec565b60a087015160c08701528094505050505092915050565b634e487b7160e01b600052604160045260246000fd5b604051601f8201601f191681016001600160401b03811182821017156122df576122df6122a1565b604052919050565b60006001600160401b03821115612300576123006122a1565b5060051b60200190565b6001600160a01b038116811461231f57600080fd5b50565b600082601f83011261233357600080fd5b81356020612348612343836122e7565b6122b7565b8083825260208201915060208460051b87010193508684111561236a57600080fd5b602086015b8481101561238f5780356123828161230a565b835291830191830161236f565b509695505050505050565b600082601f8301126123ab57600080fd5b813560206123bb612343836122e7565b8083825260208201915060208460051b8701019350868411156123dd57600080fd5b602086015b8481101561238f57803583529183019183016123e2565b600082601f83011261240a57600080fd5b81356001600160401b03811115612423576124236122a1565b612436601f8201601f19166020016122b7565b81815284602083860101111561244b57600080fd5b816020850160208301376000918101602001919091529392505050565b600080600080600060a0868803121561248057600080fd5b85356001600160401b038082111561249757600080fd5b6124a389838a01612322565b965060208801359150808211156124b957600080fd5b6124c589838a0161239a565b955060408801359150808211156124db57600080fd5b6124e789838a016123f9565b945060608801359150808211156124fd57600080fd5b61250989838a0161239a565b9350608088013591508082111561251f57600080fd5b5061252c888289016123f9565b9150509295509295909350565b60008060006060848603121561254e57600080fd5b505081359360208301359350604090920135919050565b858152602081018590526040810184905260a0810161258760608301856121ec565b8260808301529695505050505050565b60018060a01b03851681528360208201526080604082015260006125be6080830185611ff4565b9050821515606083015295945050505050565b600080604083850312156125e457600080fd5b82356125ef8161230a565b915060208301356001600160401b0381111561260a57600080fd5b612616858286016123f9565b9150509250929050565b6000806040838503121561263357600080fd5b82356001600160401b038082111561264a57600080fd5b612656868387016123f9565b9350602085013591508082111561266c57600080fd5b50612616858286016123f9565b600181811c9082168061268d57607f821691505b6020821081036126ad57634e487b7160e01b600052602260045260246000fd5b50919050565b600081546126c081612679565b8085526020600183811680156126dd57600181146126f757612725565b60ff1985168884015283151560051b880183019550612725565b866000528260002060005b8581101561271d5781548a8201860152908301908401612702565b890184019650505b505050505092915050565b60208152600061204d60208301846126b3565b60006020828403121561275557600080fd5b5051919050565b634e487b7160e01b600052601160045260246000fd5b808201808211156127855761278561275c565b92915050565b634e487b7160e01b600052603260045260246000fd5b818103818111156127855761278561275c565b601f821115612800576000816000526020600020601f850160051c810160208610156127dd5750805b601f850160051c820191505b818110156127fc578281556001016127e9565b5050505b505050565b81516001600160401b0381111561281e5761281e6122a1565b6128328161282c8454612679565b846127b4565b602080601f831160018114612867576000841561284f5750858301515b600019600386901b1c1916600185901b1785556127fc565b600085815260208120601f198616915b8281101561289657888601518255948401946001909101908401612877565b50858210156128b45787850151600019600388901b60f8161c191681555b5050505050600190811b01905550565b600081546128d181612679565b600182811680156128e957600181146128fe5761292d565b60ff198416875282151583028701945061292d565b8560005260208060002060005b858110156129245781548a82015290840190820161290b565b50505082870194505b5050505092915050565b6bffffffffffffffffffffffff198460601b168152826014820152600061296160348301846128c4565b95945050505050565b600061204d82846128c4565b6000600182016129885761298861275c565b5060010190565b8281526040602082015260006129a860408301846126b3565b949350505050565b6000826129cd57634e487b7160e01b600052601260045260246000fd5b500490565b634e487b7160e01b600052603160045260246000fd5b6060815260006060820152608060208201526000612a096080830185611ff4565b82810360408401526129618185611ff456fea2646970667358221220f2b8282f42be09212ddb68862ebc46615235bf74de96255090619d9bb6ee9fbd64736f6c63430008180033a2646970667358221220d9ef780b440c1764328934ff7e4d469c5032bf5c7d9090eb358fed860d7aca4f64736f6c63430008180033",
  "devdoc": {
    "events": {
      "NewGovernor(address)": {
        "details": "Emitted when a new Governor contract is deployed using this factory.",
        "params": {
          "_address": "The address of the newly deployed Governor contract."
        }
      }
    },
    "kind": "dev",
    "methods": {
      "deploy(address,bytes,address,string,string,uint256,uint256,uint256,uint256,address)": {
        "details": "Deploy the arbitrable kleros.",
        "params": {
          "_arbitrator": "The arbitrator of the contract.",
          "_arbitratorExtraData": "Extra data for the arbitrator.",
          "_executionTimeout": "Time in seconds after approval that allows to execute transactions of the approved list.",
          "_submissionBaseDeposit": "The base deposit required for submission.",
          "_submissionTimeout": "Time in seconds allocated for submitting transaction list.",
          "_templateData": "The dispute template data.",
          "_templateDataMappings": "The dispute template data mappings.",
          "_templateRegistry": "Dispute Template registry address",
          "_wNative": "The wrapped native token address, typically wETH.",
          "_withdrawTimeout": "Time in seconds after submission that allows to withdraw submitted list."
        }
      }
    },
    "title": "GovernorFactory This contract acts as a registry for KlerosGovernor instances.",
    "version": 1
  },
  "userdoc": {
    "kind": "user",
    "methods": {},
    "version": 1
  },
  "storageLayout": {
    "storage": [
      {
        "astId": 257,
        "contract": "src/GovernorFactory.sol:GovernorFactory",
        "label": "instances",
        "offset": 0,
        "slot": "0",
        "type": "t_array(t_contract(KlerosGovernor)1779)dyn_storage"
      }
    ],
    "types": {
      "t_array(t_contract(KlerosGovernor)1779)dyn_storage": {
        "base": "t_contract(KlerosGovernor)1779",
        "encoding": "dynamic_array",
        "label": "contract KlerosGovernor[]",
        "numberOfBytes": "32"
      },
      "t_contract(KlerosGovernor)1779": {
        "encoding": "inplace",
        "label": "contract KlerosGovernor",
        "numberOfBytes": "20"
      }
    }
  }
}