{
  "address": "0xCac020AD8BfBB9f32eC2802489aa571a218025b4",
  "abi": [
    {
      "inputs": [
        {
          "internalType": "contract IArbitratorV2",
          "name": "_arbitrator",
          "type": "address"
        },
        {
          "internalType": "bytes",
          "name": "_arbitratorExtraData",
          "type": "bytes"
        },
        {
          "internalType": "contract IDisputeTemplateRegistry",
          "name": "_templateRegistry",
          "type": "address"
        },
        {
          "internalType": "string",
          "name": "_templateData",
          "type": "string"
        },
        {
          "internalType": "string",
          "name": "_templateDataMappings",
          "type": "string"
        },
        {
          "internalType": "uint256",
          "name": "_submissionBaseDeposit",
          "type": "uint256"
        },
        {
          "internalType": "uint256",
          "name": "_submissionTimeout",
          "type": "uint256"
        },
        {
          "internalType": "uint256",
          "name": "_executionTimeout",
          "type": "uint256"
        },
        {
          "internalType": "uint256",
          "name": "_withdrawTimeout",
          "type": "uint256"
        },
        {
          "internalType": "address",
          "name": "_wNative",
          "type": "address"
        }
      ],
      "stateMutability": "nonpayable",
      "type": "constructor"
    },
    {
      "inputs": [],
      "name": "AlreadyDisputed",
      "type": "error"
    },
    {
      "inputs": [],
      "name": "AlreadyExecuted",
      "type": "error"
    },
    {
      "inputs": [],
      "name": "ApprovalTimeNotStarted",
      "type": "error"
    },
    {
      "inputs": [],
      "name": "InsufficientDeposit",
      "type": "error"
    },
    {
      "inputs": [],
      "name": "ListAlreadySubmitted",
      "type": "error"
    },
    {
      "inputs": [],
      "name": "NotDisputed",
      "type": "error"
    },
    {
      "inputs": [],
      "name": "OnlyArbitratorAllowed",
      "type": "error"
    },
    {
      "inputs": [],
      "name": "OnlySubmitterCanWithdraw",
      "type": "error"
    },
    {
      "inputs": [],
      "name": "OwnerOnly",
      "type": "error"
    },
    {
      "inputs": [],
      "name": "RulingOutOfBounds",
      "type": "error"
    },
    {
      "inputs": [],
      "name": "ShouldOnlyWithdrawInFirstHalf",
      "type": "error"
    },
    {
      "inputs": [],
      "name": "SubmissionNotApproved",
      "type": "error"
    },
    {
      "inputs": [],
      "name": "SubmissionTimeHasEnded",
      "type": "error"
    },
    {
      "inputs": [],
      "name": "TimeToExecuteHasPassed",
      "type": "error"
    },
    {
      "inputs": [],
      "name": "WithdrawingTimeHasPassed",
      "type": "error"
    },
    {
      "inputs": [],
      "name": "WrongInputTargetAndDatasize",
      "type": "error"
    },
    {
      "inputs": [],
      "name": "WrongInputTargetAndValue",
      "type": "error"
    },
    {
      "inputs": [],
      "name": "WrongListHash",
      "type": "error"
    },
    {
      "anonymous": false,
      "inputs": [
        {
          "indexed": true,
          "internalType": "contract IArbitratorV2",
          "name": "_arbitrator",
          "type": "address"
        },
        {
          "indexed": true,
          "internalType": "uint256",
          "name": "_arbitratorDisputeID",
          "type": "uint256"
        },
        {
          "indexed": false,
          "internalType": "uint256",
          "name": "_templateId",
          "type": "uint256"
        }
      ],
      "name": "DisputeRequest",
      "type": "event"
    },
    {
      "anonymous": false,
      "inputs": [
        {
          "indexed": true,
          "internalType": "uint256",
          "name": "_listID",
          "type": "uint256"
        },
        {
          "indexed": true,
          "internalType": "address",
          "name": "_submitter",
          "type": "address"
        },
        {
          "indexed": true,
          "internalType": "uint256",
          "name": "_session",
          "type": "uint256"
        },
        {
          "indexed": false,
          "internalType": "string",
          "name": "_description",
          "type": "string"
        }
      ],
      "name": "ListSubmitted",
      "type": "event"
    },
    {
      "anonymous": false,
      "inputs": [
        {
          "indexed": true,
          "internalType": "contract IArbitratorV2",
          "name": "_arbitrator",
          "type": "address"
        },
        {
          "indexed": true,
          "internalType": "uint256",
          "name": "_disputeID",
          "type": "uint256"
        },
        {
          "indexed": false,
          "internalType": "uint256",
          "name": "_ruling",
          "type": "uint256"
        }
      ],
      "name": "Ruling",
      "type": "event"
    },
    {
      "inputs": [],
      "name": "arbitrator",
      "outputs": [
        {
          "internalType": "contract IArbitratorV2",
          "name": "",
          "type": "address"
        }
      ],
      "stateMutability": "view",
      "type": "function"
    },
    {
      "inputs": [],
      "name": "arbitratorExtraData",
      "outputs": [
        {
          "internalType": "bytes",
          "name": "",
          "type": "bytes"
        }
      ],
      "stateMutability": "view",
      "type": "function"
    },
    {
      "inputs": [
        {
          "internalType": "contract IArbitratorV2",
          "name": "_arbitrator",
          "type": "address"
        },
        {
          "internalType": "bytes",
          "name": "_arbitratorExtraData",
          "type": "bytes"
        }
      ],
      "name": "changeArbitrator",
      "outputs": [],
      "stateMutability": "nonpayable",
      "type": "function"
    },
    {
      "inputs": [
        {
          "internalType": "string",
          "name": "_templateData",
          "type": "string"
        },
        {
          "internalType": "string",
          "name": "_templateDataMappings",
          "type": "string"
        }
      ],
      "name": "changeDisputeTemplate",
      "outputs": [],
      "stateMutability": "nonpayable",
      "type": "function"
    },
    {
      "inputs": [
        {
          "internalType": "uint256",
          "name": "_executionTimeout",
          "type": "uint256"
        }
      ],
      "name": "changeExecutionTimeout",
      "outputs": [],
      "stateMutability": "nonpayable",
      "type": "function"
    },
    {
      "inputs": [
        {
          "internalType": "uint256",
          "name": "_submissionBaseDeposit",
          "type": "uint256"
        }
      ],
      "name": "changeSubmissionDeposit",
      "outputs": [],
      "stateMutability": "nonpayable",
      "type": "function"
    },
    {
      "inputs": [
        {
          "internalType": "uint256",
          "name": "_submissionTimeout",
          "type": "uint256"
        }
      ],
      "name": "changeSubmissionTimeout",
      "outputs": [],
      "stateMutability": "nonpayable",
      "type": "function"
    },
    {
      "inputs": [
        {
          "internalType": "uint256",
          "name": "_withdrawTimeout",
          "type": "uint256"
        }
      ],
      "name": "changeWithdrawTimeout",
      "outputs": [],
      "stateMutability": "nonpayable",
      "type": "function"
    },
    {
      "inputs": [],
      "name": "executeSubmissions",
      "outputs": [],
      "stateMutability": "nonpayable",
      "type": "function"
    },
    {
      "inputs": [
        {
          "internalType": "uint256",
          "name": "_listID",
          "type": "uint256"
        },
        {
          "internalType": "uint256",
          "name": "_cursor",
          "type": "uint256"
        },
        {
          "internalType": "uint256",
          "name": "_count",
          "type": "uint256"
        }
      ],
      "name": "executeTransactionList",
      "outputs": [],
      "stateMutability": "nonpayable",
      "type": "function"
    },
    {
      "inputs": [],
      "name": "executionTimeout",
      "outputs": [
        {
          "internalType": "uint256",
          "name": "",
          "type": "uint256"
        }
      ],
      "stateMutability": "view",
      "type": "function"
    },
    {
      "inputs": [],
      "name": "getCurrentSessionNumber",
      "outputs": [
        {
          "internalType": "uint256",
          "name": "",
          "type": "uint256"
        }
      ],
      "stateMutability": "view",
      "type": "function"
    },
    {
      "inputs": [],
      "name": "getExpendableFunds",
      "outputs": [
        {
          "internalType": "uint256",
          "name": "",
          "type": "uint256"
        }
      ],
      "stateMutability": "view",
      "type": "function"
    },
    {
      "inputs": [],
      "name": "getNumberOfCreatedLists",
      "outputs": [
        {
          "internalType": "uint256",
          "name": "",
          "type": "uint256"
        }
      ],
      "stateMutability": "view",
      "type": "function"
    },
    {
      "inputs": [
        {
          "internalType": "uint256",
          "name": "_listID",
          "type": "uint256"
        }
      ],
      "name": "getNumberOfTransactions",
      "outputs": [
        {
          "internalType": "uint256",
          "name": "txCount",
          "type": "uint256"
        }
      ],
      "stateMutability": "view",
      "type": "function"
    },
    {
      "inputs": [
        {
          "internalType": "uint256",
          "name": "_sessionIndex",
          "type": "uint256"
        }
      ],
      "name": "getSession",
      "outputs": [
        {
          "components": [
            {
              "internalType": "uint256",
              "name": "ruling",
              "type": "uint256"
            },
            {
              "internalType": "uint256",
              "name": "disputeID",
              "type": "uint256"
            },
            {
              "internalType": "uint256[]",
              "name": "submittedLists",
              "type": "uint256[]"
            },
            {
              "internalType": "uint256",
              "name": "sumDeposit",
              "type": "uint256"
            },
            {
              "internalType": "enum KlerosGovernor.Status",
              "name": "status",
              "type": "uint8"
            },
            {
              "internalType": "uint256",
              "name": "durationOffset",
              "type": "uint256"
            }
          ],
          "internalType": "struct KlerosGovernor.Session",
          "name": "_session",
          "type": "tuple"
        }
      ],
      "stateMutability": "view",
      "type": "function"
    },
    {
      "inputs": [
        {
          "internalType": "uint256",
          "name": "_listId",
          "type": "uint256"
        }
      ],
      "name": "getSubmission",
      "outputs": [
        {
          "components": [
            {
              "internalType": "address payable",
              "name": "submitter",
              "type": "address"
            },
            {
              "internalType": "uint256",
              "name": "deposit",
              "type": "uint256"
            },
            {
              "components": [
                {
                  "internalType": "address",
                  "name": "target",
                  "type": "address"
                },
                {
                  "internalType": "uint256",
                  "name": "value",
                  "type": "uint256"
                },
                {
                  "internalType": "bytes",
                  "name": "data",
                  "type": "bytes"
                },
                {
                  "internalType": "bool",
                  "name": "executed",
                  "type": "bool"
                }
              ],
              "internalType": "struct KlerosGovernor.Transaction[]",
              "name": "txs",
              "type": "tuple[]"
            },
            {
              "internalType": "bytes32",
              "name": "listHash",
              "type": "bytes32"
            },
            {
              "internalType": "uint256",
              "name": "submissionTime",
              "type": "uint256"
            },
            {
              "internalType": "bool",
              "name": "approved",
              "type": "bool"
            },
            {
              "internalType": "uint256",
              "name": "approvalTime",
              "type": "uint256"
            },
            {
              "internalType": "uint256",
              "name": "submissionBlock",
              "type": "uint256"
            }
          ],
          "internalType": "struct KlerosGovernor.Submission",
          "name": "submission",
          "type": "tuple"
        }
      ],
      "stateMutability": "view",
      "type": "function"
    },
    {
      "inputs": [
        {
          "internalType": "uint256",
          "name": "_session",
          "type": "uint256"
        }
      ],
      "name": "getSubmittedLists",
      "outputs": [
        {
          "internalType": "uint256[]",
          "name": "submittedLists",
          "type": "uint256[]"
        }
      ],
      "stateMutability": "view",
      "type": "function"
    },
    {
      "inputs": [],
      "name": "getTotalSubmissionDeposit",
      "outputs": [
        {
          "internalType": "uint256",
          "name": "_requiredDeposit",
          "type": "uint256"
        }
      ],
      "stateMutability": "view",
      "type": "function"
    },
    {
      "inputs": [
        {
          "internalType": "uint256",
          "name": "_listID",
          "type": "uint256"
        },
        {
          "internalType": "uint256",
          "name": "_transactionIndex",
          "type": "uint256"
        }
      ],
      "name": "getTransactionInfo",
      "outputs": [
        {
          "internalType": "address",
          "name": "target",
          "type": "address"
        },
        {
          "internalType": "uint256",
          "name": "value",
          "type": "uint256"
        },
        {
          "internalType": "bytes",
          "name": "data",
          "type": "bytes"
        },
        {
          "internalType": "bool",
          "name": "executed",
          "type": "bool"
        }
      ],
      "stateMutability": "view",
      "type": "function"
    },
    {
      "inputs": [],
      "name": "lastApprovalTime",
      "outputs": [
        {
          "internalType": "uint256",
          "name": "",
          "type": "uint256"
        }
      ],
      "stateMutability": "view",
      "type": "function"
    },
    {
      "inputs": [],
      "name": "reservedETH",
      "outputs": [
        {
          "internalType": "uint256",
          "name": "",
          "type": "uint256"
        }
      ],
      "stateMutability": "view",
      "type": "function"
    },
    {
      "inputs": [
        {
          "internalType": "uint256",
          "name": "_disputeID",
          "type": "uint256"
        },
        {
          "internalType": "uint256",
          "name": "_ruling",
          "type": "uint256"
        }
      ],
      "name": "rule",
      "outputs": [],
      "stateMutability": "nonpayable",
      "type": "function"
    },
    {
      "inputs": [
        {
          "internalType": "uint256",
          "name": "",
          "type": "uint256"
        }
      ],
      "name": "sessions",
      "outputs": [
        {
          "internalType": "uint256",
          "name": "ruling",
          "type": "uint256"
        },
        {
          "internalType": "uint256",
          "name": "disputeID",
          "type": "uint256"
        },
        {
          "internalType": "uint256",
          "name": "sumDeposit",
          "type": "uint256"
        },
        {
          "internalType": "enum KlerosGovernor.Status",
          "name": "status",
          "type": "uint8"
        },
        {
          "internalType": "uint256",
          "name": "durationOffset",
          "type": "uint256"
        }
      ],
      "stateMutability": "view",
      "type": "function"
    },
    {
      "inputs": [],
      "name": "submissionBaseDeposit",
      "outputs": [
        {
          "internalType": "uint256",
          "name": "",
          "type": "uint256"
        }
      ],
      "stateMutability": "view",
      "type": "function"
    },
    {
      "inputs": [],
      "name": "submissionTimeout",
      "outputs": [
        {
          "internalType": "uint256",
          "name": "",
          "type": "uint256"
        }
      ],
      "stateMutability": "view",
      "type": "function"
    },
    {
      "inputs": [
        {
          "internalType": "uint256",
          "name": "",
          "type": "uint256"
        }
      ],
      "name": "submissions",
      "outputs": [
        {
          "internalType": "address payable",
          "name": "submitter",
          "type": "address"
        },
        {
          "internalType": "uint256",
          "name": "deposit",
          "type": "uint256"
        },
        {
          "internalType": "bytes32",
          "name": "listHash",
          "type": "bytes32"
        },
        {
          "internalType": "uint256",
          "name": "submissionTime",
          "type": "uint256"
        },
        {
          "internalType": "bool",
          "name": "approved",
          "type": "bool"
        },
        {
          "internalType": "uint256",
          "name": "approvalTime",
          "type": "uint256"
        },
        {
          "internalType": "uint256",
          "name": "submissionBlock",
          "type": "uint256"
        }
      ],
      "stateMutability": "view",
      "type": "function"
    },
    {
      "inputs": [
        {
          "internalType": "address[]",
          "name": "_target",
          "type": "address[]"
        },
        {
          "internalType": "uint256[]",
          "name": "_value",
          "type": "uint256[]"
        },
        {
          "internalType": "bytes",
          "name": "_data",
          "type": "bytes"
        },
        {
          "internalType": "uint256[]",
          "name": "_dataSize",
          "type": "uint256[]"
        },
        {
          "internalType": "string",
          "name": "_description",
          "type": "string"
        }
      ],
      "name": "submitList",
      "outputs": [],
      "stateMutability": "payable",
      "type": "function"
    },
    {
      "inputs": [],
      "name": "templateId",
      "outputs": [
        {
          "internalType": "uint256",
          "name": "",
          "type": "uint256"
        }
      ],
      "stateMutability": "view",
      "type": "function"
    },
    {
      "inputs": [],
      "name": "templateRegistry",
      "outputs": [
        {
          "internalType": "contract IDisputeTemplateRegistry",
          "name": "",
          "type": "address"
        }
      ],
      "stateMutability": "view",
      "type": "function"
    },
    {
      "inputs": [],
      "name": "wNative",
      "outputs": [
        {
          "internalType": "address",
          "name": "",
          "type": "address"
        }
      ],
      "stateMutability": "view",
      "type": "function"
    },
    {
      "inputs": [],
      "name": "withdrawTimeout",
      "outputs": [
        {
          "internalType": "uint256",
          "name": "",
          "type": "uint256"
        }
      ],
      "stateMutability": "view",
      "type": "function"
    },
    {
      "inputs": [
        {
          "internalType": "uint256",
          "name": "_submissionID",
          "type": "uint256"
        },
        {
          "internalType": "bytes32",
          "name": "_listHash",
          "type": "bytes32"
        }
      ],
      "name": "withdrawTransactionList",
      "outputs": [],
      "stateMutability": "nonpayable",
      "type": "function"
    },
    {
      "stateMutability": "payable",
      "type": "receive"
    }
  ],
  "transactionHash": "0x0bf761c3e70dbaef24d9664ca0af2922b51a3298031dbf7da7284ff8864cb496",
  "args": [
    "0x9EfCaeF787d0b53d7a24fdeAB067A4BAFCDb892F",
    "0x00000000000000000000000000000000000000000000000000000000000000010000000000000000000000000000000000000000000000000000000000000003",
    "0xa28cA6364B40537B3e73c395cc2B1Bb6de1F1161",
    "{\n  \"$schema\": \"../NewDisputeTemplate.schema.json\",\n  \"title\": \"Execute a transaction list in Kleros Governor\",\n  \"description\": \"Multiple transaction lists were submitted in Kleros Governor session {{externalDisputeID}}, please vote for which list transaction list should be executed.\",\n  \"question\": \"Which transaction list should be executed?\",\n   \"answers\": [\n      {{#listIds}}\n      {\n          \"id\": \"{{#hex}}{{.}}{{/hex}}\",\n          \"title\": \"List - {{ . }}\",\n          \"description\": \"Execute List {{ . }}\"\n          \n      },\n      {{/ listIds }}\n      {\n        \"id\":\"0x00\",\n        \"title\": \"Refuse to Arbitrate\",\n        \"description\": \"No list will be executed.\"\n      }\n\n    ],\n  \"policyURI\": \"/ipfs/QmPt2oTHCYZYUShuLxiK4QWH6sXPHjvgXTqMDpCShKogQY/KlerosGovernorPrimaryDocument.pdf\",\n  \"frontendUrl\": \"https://governor-v2.kleros.builders/governor/{{arbitrableAddress}}\",\n  \"arbitratorChainID\": \"421614\",\n  \"arbitratorAddress\": \"0x9EfCaeF787d0b53d7a24fdeAB067A4BAFCDb892F\",\n  \"category\": \"Kleros Governor\",\n  \"version\": \"1.0\"\n}\n",
    "\n[\n  {\n    \"type\": \"abi/call\",\n    \"abi\": \"function getSession(uint256) view returns ((uint256 , uint256 , uint256[] , uint256 , uint8 , uint256 ))\",\n    \"address\": \"{{{arbitrableAddress}}}\",\n    \"functionName\": \"getSession\",\n    \"args\": [\n      \"{{{externalDisputeID}}}\"\n    ],\n    \"seek\": [\n    \"2\"\n    ],\n    \"populate\": [\n      \"listIds\"\n    ]\n  }\n]\n",
    0,
    600,
    600,
    600,
    "0x3829A2486d53ee984a0ca2D76552715726b77138"
  ],
  "numDeployments": 18,
  "solcInputHash": "334f9bb4703835bd27add7ada7992ca0",
  "bytecode": "0x60806040523480156200001157600080fd5b5060405162002f0038038062002f00833981016040819052620000349162000225565b600080546001600160a01b0319166001600160a01b038c1617905560016200005d8a82620003a9565b50600280546001600160a01b038084166001600160a01b031992831617909255426009556005879055600686905560078590556008849055600c80546001908101909155600b8054909101815560005260038054928b1692909116821790556040516312a6505d60e21b8152634a99417490620000e1908a908a90600401620004a3565b6020604051808303816000875af115801562000101573d6000803e3d6000fd5b505050506040513d601f19601f82011682018060405250810190620001279190620004e3565b60045550620004fd98505050505050505050565b80516001600160a01b03811681146200015357600080fd5b919050565b634e487b7160e01b600052604160045260246000fd5b60005b838110156200018b57818101518382015260200162000171565b50506000910152565b600082601f830112620001a657600080fd5b81516001600160401b0380821115620001c357620001c362000158565b604051601f8301601f19908116603f01168101908282118183101715620001ee57620001ee62000158565b816040528381528660208588010111156200020857600080fd5b6200021b8460208301602089016200016e565b9695505050505050565b6000806000806000806000806000806101408b8d0312156200024657600080fd5b620002518b6200013b565b60208c0151909a506001600160401b03808211156200026f57600080fd5b6200027d8e838f0162000194565b9a506200028d60408e016200013b565b995060608d0151915080821115620002a457600080fd5b620002b28e838f0162000194565b985060808d0151915080821115620002c957600080fd5b50620002d88d828e0162000194565b96505060a08b0151945060c08b0151935060e08b015192506101008b01519150620003076101208c016200013b565b90509295989b9194979a5092959850565b600181811c908216806200032d57607f821691505b6020821081036200034e57634e487b7160e01b600052602260045260246000fd5b50919050565b601f821115620003a4576000816000526020600020601f850160051c810160208610156200037f5750805b601f850160051c820191505b81811015620003a0578281556001016200038b565b5050505b505050565b81516001600160401b03811115620003c557620003c562000158565b620003dd81620003d6845462000318565b8462000354565b602080601f831160018114620004155760008415620003fc5750858301515b600019600386901b1c1916600185901b178555620003a0565b600085815260208120601f198616915b82811015620004465788860151825594840194600190910190840162000425565b5085821015620004655787850151600019600388901b60f8161c191681555b5050505050600190811b01905550565b600081518084526200048f8160208601602086016200016e565b601f01601f19169290920160200192915050565b6060815260006060820152608060208201526000620004c6608083018562000475565b8281036040840152620004da818562000475565b95945050505050565b600060208284031215620004f657600080fd5b5051919050565b6129f3806200050d6000396000f3fe6080604052600436106101b25760003560e01c806383c4b7a3116100ed578063b6cd08c611610090578063b6cd08c614610519578063b6dc775414610539578063ba7079ca1461054e578063bb0b86ff1461056e578063c4bd851914610584578063c5d552881461059a578063cc2bcdb4146105ba578063dc17bbdb146105da578063f730c07f146105fa57600080fd5b806383c4b7a3146103d75780639244c70414610408578063953d66511461041d5780639c15d1a21461043d578063a0af81f014610453578063a3c595c914610473578063ad73349e146104a3578063b51257001461050457600080fd5b80633e8686cc116101555780633e8686cc146102e9578063402ff0db1461031657806346047838146103435780636c0b7e71146103565780636cc6cde11461036b5780636cf39c2b1461038b57806377b9fda8146103ab5780637aa77f29146103c157600080fd5b80630c7ac7b6146101be5780631b1f5e7b146101e957806321cea5381461020c57806322b52d6614610239578063246c76df1461024f57806324baacc7146102715780632d68efc914610291578063311a6c56146102c957600080fd5b366101b957005b600080fd5b3480156101ca57600080fd5b506101d3610610565b6040516101e09190611fdc565b60405180910390f35b3480156101f557600080fd5b506101fe61069e565b6040519081526020016101e0565b34801561021857600080fd5b5061022c610227366004611ff6565b610723565b6040516101e0919061200f565b34801561024557600080fd5b506101fe60075481565b34801561025b57600080fd5b5061026f61026a366004611ff6565b6107a5565b005b34801561027d57600080fd5b5061026f61028c366004611ff6565b6107ca565b34801561029d57600080fd5b506002546102b1906001600160a01b031681565b6040516001600160a01b0390911681526020016101e0565b3480156102d557600080fd5b5061026f6102e4366004612053565b6107ef565b3480156102f557600080fd5b50610309610304366004611ff6565b6109c1565b6040516101e09190612075565b34801561032257600080fd5b50610336610331366004611ff6565b610bbc565b6040516101e091906121b0565b61026f61035136600461240a565b610caa565b34801561036257600080fd5b506101fe6112b1565b34801561037757600080fd5b506000546102b1906001600160a01b031681565b34801561039757600080fd5b5061026f6103a63660046124db565b6112c3565b3480156103b757600080fd5b506101fe600a5481565b3480156103cd57600080fd5b506101fe60045481565b3480156103e357600080fd5b506103f76103f2366004611ff6565b611487565b6040516101e0959493929190612507565b34801561041457600080fd5b5061026f6114ce565b34801561042957600080fd5b5061026f610438366004611ff6565b611841565b34801561044957600080fd5b506101fe60085481565b34801561045f57600080fd5b506003546102b1906001600160a01b031681565b34801561047f57600080fd5b5061049361048e366004612053565b6118d9565b6040516101e09493929190612539565b3480156104af57600080fd5b506104c36104be366004611ff6565b6119f3565b604080516001600160a01b03909816885260208801969096529486019390935260608501919091521515608084015260a083015260c082015260e0016101e0565b34801561051057600080fd5b506101fe611a4f565b34801561052557600080fd5b5061026f610534366004612053565b611a5f565b34801561054557600080fd5b50600b546101fe565b34801561055a57600080fd5b5061026f610569366004612573565b611cb3565b34801561057a57600080fd5b506101fe60055481565b34801561059057600080fd5b506101fe60065481565b3480156105a657600080fd5b5061026f6105b53660046125c2565b611d72565b3480156105c657600080fd5b5061026f6105d5366004611ff6565b611e0e565b3480156105e657600080fd5b506101fe6105f5366004611ff6565b611e33565b34801561060657600080fd5b506101fe60095481565b6001805461061d9061261b565b80601f01602080910402602001604051908101604052809291908181526020018280546106499061261b565b80156106965780601f1061066b57610100808354040283529160200191610696565b820191906000526020600020905b81548152906001019060200180831161067957829003601f168201915b505050505081565b6000805460405163f7434ea960e01b81526001600160a01b039091169063f7434ea9906106d0906001906004016126d2565b602060405180830381865afa1580156106ed573d6000803e3d6000fd5b505050506040513d601f19601f8201168201806040525081019061071191906126e5565b60055461071e9190612714565b905090565b60606000600c838154811061073a5761073a61272d565b906000526020600020906006020190508060020180548060200260200160405190810160405280929190818152602001828054801561079857602002820191906000526020600020905b815481526020019060010190808311610784575b5050505050915050919050565b3033146107c557604051630b2db9b760e31b815260040160405180910390fd5b600855565b3033146107ea57604051630b2db9b760e31b815260040160405180910390fd5b600555565b600c80546000919061080390600190612743565b815481106108135761081361272d565b600091825260208220915460069190910290910191506001600160a01b031633146108515760405163381a2cb560e11b815260040160405180910390fd5b6001600482015460ff16600281111561086c5761086c612178565b1461088a576040516310cec38560e21b815260040160405180910390fd5b60028101548211156108af57604051631f6edbfd60e01b815260040160405180910390fd5b811561093f576000600b600283016108c8600186612743565b815481106108d8576108d861272d565b9060005260206000200154815481106108f3576108f361272d565b600091825260209091206005600890920201908101805460ff191660011790554260068201556003830154600254825492935061093d926001600160a01b03908116929116611e64565b505b8060030154600a60008282546109559190612743565b90915550506000600382018190554260095560048201805460ff19166002179055828255600c805460010181559052604051828152839033907f394027a5fa6e098a1191094d1719d6929b9abc535fcc0c8f448d6a4e75622276906020015b60405180910390a3505050565b610a1760405180610100016040528060006001600160a01b031681526020016000815260200160608152602001600080191681526020016000815260200160001515815260200160008152602001600081525090565b600b8281548110610a2a57610a2a61272d565b600091825260208083206040805161010081018252600890940290910180546001600160a01b03168452600181015484840152600281018054835181860281018601855281815295969295938701949192909184015b82821015610b76576000848152602090819020604080516080810182526004860290920180546001600160a01b0316835260018101549383019390935260028301805492939291840191610ad39061261b565b80601f0160208091040260200160405190810160405280929190818152602001828054610aff9061261b565b8015610b4c5780601f10610b2157610100808354040283529160200191610b4c565b820191906000526020600020905b815481529060010190602001808311610b2f57829003601f168201915b50505091835250506003919091015460ff1615156020918201529082526001929092019101610a80565b505050908252506003820154602082015260048201546040820152600582015460ff16151560608201526006820154608082015260079091015460a09091015292915050565b610bc4611f4f565b600c8281548110610bd757610bd761272d565b90600052602060002090600602016040518060c0016040529081600082015481526020016001820154815260200160028201805480602002602001604051908101604052809291908181526020018280548015610c5357602002820191906000526020600020905b815481526020019060010190808311610c3f575b505050918352505060038201546020820152600482015460409091019060ff166002811115610c8457610c84612178565b6002811115610c9557610c95612178565b81526020016005820154815250509050919050565b600c805460009190610cbe90600190612743565b81548110610cce57610cce61272d565b906000526020600020906006020160050154905080600654610cf09190612714565b600954610cfd9042612743565b1115610d1c5760405163d5ac976d60e01b815260040160405180910390fd5b8451865114610d3e57604051638f32290560e01b815260040160405180910390fd5b8251865114610d6057604051633222108360e01b815260040160405180910390fd5b600c805460009190610d7490600190612743565b81548110610d8457610d8461272d565b60009182526020808320600b8054600181018255945260089093027f0175b7a638427703f0dbe7bb9bbf987a2551717b34e79f33b5b1008d1fa01db90180546001600160a01b031916331781556040805163a3b1b31d60e01b81529051600690940290940194509260649263a3b1b31d926004808401939192918290030181865afa158015610e17573d6000803e3d6000fd5b505050506040513d601f19601f82011682018060405250810190610e3b91906126e5565b600782015560005460405163f7434ea960e01b81526001600160a01b039091169063f7434ea990610e71906001906004016126d2565b602060405180830381865afa158015610e8e573d6000803e3d6000fd5b505050506040513d601f19601f82011682018060405250810190610eb291906126e5565b600554610ebf9190612714565b60018201819055341015610ee65760405163070f6eed60e11b815260040160405180910390fd5b60008080805b8b518110156110f2576000898281518110610f0957610f0961272d565b60200260200101516001600160401b03811115610f2857610f28612243565b6040519080825280601f01601f191660200182016040528015610f52576020820181803683370190505b50600287018054600181018255600091825260209091208f51929350600490910201908e9084908110610f8757610f8761272d565b602090810291909101015181546001600160a01b0319166001600160a01b039091161781558c518d9084908110610fc057610fc061272d565b6020026020010151816001018190555060005b8b8481518110610fe557610fe561272d565b602002602001015181101561104b578c610fff8287612714565b8151811061100f5761100f61272d565b602001015160f81c60f81b83828151811061102c5761102c61272d565b60200101906001600160f81b031916908160001a905350600101610fd3565b506002810161105a83826127a7565b508a838151811061106d5761106d61272d565b6020026020010151846110809190612714565b815460018301546040519296506110aa926001600160a01b039092169160028501906020016128d9565b60408051601f19818403018152828252805160209182012081840181905283830199909952815180840383018152606090930190915281519101209594505050600101610eec565b50600c54600d9060009061110890600190612743565b81526020808201929092526040908101600090812086825290925290205460ff166111465760405163607cb3e760e01b815260040160405180910390fd5b6001600d60006001600c8054905061115e9190612743565b8152602080820192909252604090810160009081208782529092528120805460ff191692151592909217909155600385810185905542600487015560018601549087018054919290916111b2908490612714565b9091555050600b5460028601906111cb90600190612743565b815460018181018455600093845260209093200155600286015490036111fe576009546111f89042612743565b60058601555b600c5461120d90600190612743565b600b54339061121e90600190612743565b7f1a700b4f7df255aaf8c91c8b05abf0eab596e467dc17ef76fe4afc12541012488a60405161124d9190611fdc565b60405180910390a460008460010154346112679190612743565b905080156112885760025461128890339083906001600160a01b0316611e64565b8460010154600a600082825461129e9190612714565b9091555050505050505050505050505050565b600c5460009061071e90600190612743565b6000600b84815481106112d8576112d861272d565b60009182526020909120600890910201600581015490915060ff1661130f5760405162325f4560e91b815260040160405180910390fd5b60075460068201546113219042612743565b111561134057604051638b349aa560e01b815260040160405180910390fd5b825b600282015481108015611365575082158061136557506113628385612714565b81105b156114805760008260020182815481106113815761138161272d565b90600052602060002090600402019050600061139b611a4f565b600383015490915060ff161580156113b7575080826001015411155b1561146b57815460018301546040516000926001600160a01b031691906113e290600287019061290c565b60006040518083038185875af1925050503d806000811461141f576040519150601f19603f3d011682016040523d82523d6000602084013e611424565b606091505b509091505080151560010361146957600383015460ff161561145957604051630dc1019760e01b815260040160405180910390fd5b60038301805460ff191660011790555b505b5050808061147890612918565b915050611342565b5050505050565b600c818154811061149757600080fd5b6000918252602090912060069091020180546001820154600383015460048401546005909401549294509092909160ff9091169085565b600c8054600091906114e290600190612743565b815481106114f2576114f261272d565b9060005260206000209060060201600501549050806006546115149190612714565b6009546115219042612743565b1161153f57604051631875ed4760e21b815260040160405180910390fd5b600c80546000919061155390600190612743565b815481106115635761156361272d565b6000918252602082206006909102019150600482015460ff16600281111561158d5761158d612178565b146115ab576040516304ee891b60e11b815260040160405180910390fd5b60028101546000036115d85742600955600401805460ff1916600217905550600c80546001018155600052565b60028101546001036116a7576000600b826002016000815481106115fe576115fe61272d565b9060005260206000200154815481106116195761161961272d565b6000918252602082206005600890920201908101805460ff191660011790554260068201556003840180549290556002548154919350611667916001600160a01b0390811691849116611e64565b4260095560048301805460ff19166002179055600c805460010181556000908152600a805483929061169a908490612743565b9091555061183d92505050565b6004818101805460ff191660019081179091556000805460405163f7434ea960e01b815291936001600160a01b039091169263f7434ea9926116e992016126d2565b602060405180830381865afa158015611706573d6000803e3d6000fd5b505050506040513d601f19601f8201168201806040525081019061172a91906126e5565b600054600284015460405163c13517e160e01b81529293506001600160a01b039091169163c13517e19184916117669190600190600401612931565b60206040518083038185885af1158015611784573d6000803e3d6000fd5b50505050506040513d601f19601f820116820180604052508101906117a991906126e5565b6001830155600382015481106117c05760006117d0565b8082600301546117d09190612743565b6003830155600a5481106117e55760006117f3565b80600a546117f39190612743565b600a5560018201546000546004546040519081526001600160a01b03909116907fee1017dcbefba87397fcdaab31f187328533572b6a5568177fa2eb64026003b6906020016109b4565b5050565b30331461186157604051630b2db9b760e31b815260040160405180910390fd5b600c80546000919061187590600190612743565b815481106118855761188561272d565b9060005260206000209060060201600501549050806006546118a79190612714565b6009546118b49042612743565b11156118d35760405163d5ac976d60e01b815260040160405180910390fd5b50600655565b6000806060600080600b87815481106118f4576118f461272d565b90600052602060002090600802019050600081600201878154811061191b5761191b61272d565b600091825260209091206004909102018054600182015460038301546002840180549495506001600160a01b039093169391929160ff9091169082906119609061261b565b80601f016020809104026020016040519081016040528092919081815260200182805461198c9061261b565b80156119d95780601f106119ae576101008083540402835291602001916119d9565b820191906000526020600020905b8154815290600101906020018083116119bc57829003601f168201915b505050505091509550955095509550505092959194509250565b600b8181548110611a0357600080fd5b600091825260209091206008909102018054600182015460038301546004840154600585015460068601546007909601546001600160a01b03909516965092949193909260ff16919087565b6000600a544761071e9190612743565b600c805460009190611a7390600190612743565b81548110611a8357611a8361272d565b906000526020600020906006020190506000600b826002018581548110611aac57611aac61272d565b906000526020600020015481548110611ac757611ac761272d565b906000526020600020906008020190506002600654611ae69190612952565b600954611af39042612743565b1115611b125760405163383f4af360e21b815260040160405180910390fd5b82816003015414611b36576040516306e671b760e31b815260040160405180910390fd5b80546001600160a01b03163314611b605760405163415360c560e11b815260040160405180910390fd5b6008546004820154611b729042612743565b1115611b915760405163603c988d60e11b815260040160405180910390fd5b600282018054611ba390600190612743565b81548110611bb357611bb361272d565b9060005260206000200154826002018581548110611bd357611bd361272d565b6000918252602082200191909155600c54600d908290611bf590600190612743565b8152602080820192909252604090810160009081208782529092529020805460ff191691151591909117905560028201805480611c3457611c34612974565b600190038181906000526020600020016000905590558060010154826003016000828254611c629190612743565b90915550506001810154600a8054600090611c7e908490612743565b90915550506001810154604051339180156108fc02916000818181858888f19350505050158015611480573d6000803e3d6000fd5b303314611cd357604051630b2db9b760e31b815260040160405180910390fd5b600c805460009190611ce790600190612743565b81548110611cf757611cf761272d565b906000526020600020906006020160050154905080600654611d199190612714565b600954611d269042612743565b1115611d455760405163d5ac976d60e01b815260040160405180910390fd5b600080546001600160a01b0319166001600160a01b0385161790556001611d6c83826127a7565b50505050565b303314611d9257604051630b2db9b760e31b815260040160405180910390fd5b6003546040516312a6505d60e21b81526001600160a01b0390911690634a99417490611dc4908590859060040161298a565b6020604051808303816000875af1158015611de3573d6000803e3d6000fd5b505050506040513d601f19601f82011682018060405250810190611e0791906126e5565b6004555050565b303314611e2e57604051630b2db9b760e31b815260040160405180910390fd5b600755565b600080600b8381548110611e4957611e4961272d565b60009182526020909120600260089092020101549392505050565b6040516001600160a01b0384169083156108fc029084906000818181858888f1935050505015611e9357505050565b806001600160a01b031663d0e30db0836040518263ffffffff1660e01b81526004016000604051808303818588803b158015611ece57600080fd5b505af1158015611ee2573d6000803e3d6000fd5b505060405163a9059cbb60e01b81526001600160a01b038781166004830152602482018790528516935063a9059cbb92506044019050600060405180830381600087803b158015611f3257600080fd5b505af1158015611f46573d6000803e3d6000fd5b50505050505050565b6040518060c001604052806000815260200160008152602001606081526020016000815260200160006002811115611f8957611f89612178565b8152602001600081525090565b6000815180845260005b81811015611fbc57602081850181015186830182015201611fa0565b506000602082860101526020601f19601f83011685010191505092915050565b602081526000611fef6020830184611f96565b9392505050565b60006020828403121561200857600080fd5b5035919050565b6020808252825182820181905260009190848201906040850190845b818110156120475783518352928401929184019160010161202b565b50909695505050505050565b6000806040838503121561206657600080fd5b50508035926020909101359150565b60006020808352610120830160018060a01b0380865116838601528286015160408160408801526040880151915061010060608160608a01528584518088526101409750878b019150878160051b8c01019750888601955060005b818110156121295761013f198c8a0301835286516080898251168b528b8201518c8c01528782015181898d0152612109828d0182611f96565b9287015115159b87019b909b5250985095890195918901916001016120d0565b5050505060608901516080890152608089015160a089015260a0890151955061215660c089018715159052565b60c089015160e089015260e08901518189015250505050809250505092915050565b634e487b7160e01b600052602160045260246000fd5b600381106121ac57634e487b7160e01b600052602160045260246000fd5b9052565b6000602080835260e08301845182850152818501516040850152604085015160c06060860152818151808452610100870191508483019350600092505b8083101561220d57835182529284019260019290920191908401906121ed565b50606087015160808701526080870151935061222c60a087018561218e565b60a087015160c08701528094505050505092915050565b634e487b7160e01b600052604160045260246000fd5b604051601f8201601f191681016001600160401b038111828210171561228157612281612243565b604052919050565b60006001600160401b038211156122a2576122a2612243565b5060051b60200190565b6001600160a01b03811681146122c157600080fd5b50565b600082601f8301126122d557600080fd5b813560206122ea6122e583612289565b612259565b8083825260208201915060208460051b87010193508684111561230c57600080fd5b602086015b84811015612331578035612324816122ac565b8352918301918301612311565b509695505050505050565b600082601f83011261234d57600080fd5b8135602061235d6122e583612289565b8083825260208201915060208460051b87010193508684111561237f57600080fd5b602086015b848110156123315780358352918301918301612384565b600082601f8301126123ac57600080fd5b81356001600160401b038111156123c5576123c5612243565b6123d8601f8201601f1916602001612259565b8181528460208386010111156123ed57600080fd5b816020850160208301376000918101602001919091529392505050565b600080600080600060a0868803121561242257600080fd5b85356001600160401b038082111561243957600080fd5b61244589838a016122c4565b9650602088013591508082111561245b57600080fd5b61246789838a0161233c565b9550604088013591508082111561247d57600080fd5b61248989838a0161239b565b9450606088013591508082111561249f57600080fd5b6124ab89838a0161233c565b935060808801359150808211156124c157600080fd5b506124ce8882890161239b565b9150509295509295909350565b6000806000606084860312156124f057600080fd5b505081359360208301359350604090920135919050565b858152602081018590526040810184905260a08101612529606083018561218e565b8260808301529695505050505050565b60018060a01b03851681528360208201526080604082015260006125606080830185611f96565b9050821515606083015295945050505050565b6000806040838503121561258657600080fd5b8235612591816122ac565b915060208301356001600160401b038111156125ac57600080fd5b6125b88582860161239b565b9150509250929050565b600080604083850312156125d557600080fd5b82356001600160401b03808211156125ec57600080fd5b6125f88683870161239b565b9350602085013591508082111561260e57600080fd5b506125b88582860161239b565b600181811c9082168061262f57607f821691505b60208210810361264f57634e487b7160e01b600052602260045260246000fd5b50919050565b600081546126628161261b565b80855260206001838116801561267f5760018114612699576126c7565b60ff1985168884015283151560051b8801830195506126c7565b866000528260002060005b858110156126bf5781548a82018601529083019084016126a4565b890184019650505b505050505092915050565b602081526000611fef6020830184612655565b6000602082840312156126f757600080fd5b5051919050565b634e487b7160e01b600052601160045260246000fd5b80820180821115612727576127276126fe565b92915050565b634e487b7160e01b600052603260045260246000fd5b81810381811115612727576127276126fe565b601f8211156127a2576000816000526020600020601f850160051c8101602086101561277f5750805b601f850160051c820191505b8181101561279e5782815560010161278b565b5050505b505050565b81516001600160401b038111156127c0576127c0612243565b6127d4816127ce845461261b565b84612756565b602080601f83116001811461280957600084156127f15750858301515b600019600386901b1c1916600185901b17855561279e565b600085815260208120601f198616915b8281101561283857888601518255948401946001909101908401612819565b50858210156128565787850151600019600388901b60f8161c191681555b5050505050600190811b01905550565b600081546128738161261b565b6001828116801561288b57600181146128a0576128cf565b60ff19841687528215158302870194506128cf565b8560005260208060002060005b858110156128c65781548a8201529084019082016128ad565b50505082870194505b5050505092915050565b6bffffffffffffffffffffffff198460601b16815282601482015260006129036034830184612866565b95945050505050565b6000611fef8284612866565b60006001820161292a5761292a6126fe565b5060010190565b82815260406020820152600061294a6040830184612655565b949350505050565b60008261296f57634e487b7160e01b600052601260045260246000fd5b500490565b634e487b7160e01b600052603160045260246000fd5b60608152600060608201526080602082015260006129ab6080830185611f96565b82810360408401526129038185611f9656fea26469706673582212203eb0ce20128709ce0e25d07609542c5c1fd2df8b0d773b52b6377b98d8fada1f64736f6c63430008180033",
  "devdoc": {
    "details": "Appeal and evidence submission is handled by the court.",
    "events": {
      "DisputeRequest(address,uint256,uint256)": {
        "params": {
          "_arbitrator": "The arbitrator of the contract.",
          "_arbitratorDisputeID": "The identifier of the dispute in the Arbitrator contract.",
          "_templateId": "The identifier of the dispute template."
        }
      },
      "ListSubmitted(uint256,address,uint256,string)": {
        "params": {
          "_description": "The string in CSV format that contains labels of list's transactions. Note that the submitter may give bad descriptions of correct actions, but this is to be seen as UI enhancement, not a critical feature and that would play against him in case of dispute.",
          "_listID": "The index of the transaction list in the array of lists.",
          "_session": "The number of the current session.",
          "_submitter": "The address that submitted the list."
        }
      },
      "Ruling(address,uint256,uint256)": {
        "params": {
          "_arbitrator": "The arbitrator giving the ruling.",
          "_disputeID": "The identifier of the dispute in the Arbitrator contract.",
          "_ruling": "The ruling which was given."
        }
      }
    },
    "kind": "dev",
    "methods": {
      "changeArbitrator(address,bytes)": {
        "details": "It cannot be changed during approval period because there can be an active dispute in the old arbitrator contract.",
        "params": {
          "_arbitrator": "The new trusted arbitrator.",
          "_arbitratorExtraData": "The extra data used by the new arbitrator."
        }
      },
      "changeDisputeTemplate(string,string)": {
        "params": {
          "_templateData": "The new dispute template data.",
          "_templateDataMappings": "The new dispute template data mappings."
        }
      },
      "changeExecutionTimeout(uint256)": {
        "params": {
          "_executionTimeout": "The new duration of the execution timeout, in seconds."
        }
      },
      "changeSubmissionDeposit(uint256)": {
        "params": {
          "_submissionBaseDeposit": "The new value of the base deposit, in wei."
        }
      },
      "changeSubmissionTimeout(uint256)": {
        "details": "It cannot be changed during approval period because there can be an active dispute in the old arbitrator contract and prolonging submission timeout might switch it back to submission period.",
        "params": {
          "_submissionTimeout": "The new duration of the submission period, in seconds."
        }
      },
      "changeWithdrawTimeout(uint256)": {
        "params": {
          "_withdrawTimeout": "The new duration of withdraw period, in seconds."
        }
      },
      "constructor": {
        "params": {
          "_arbitrator": "The arbitrator of the contract.",
          "_arbitratorExtraData": "Extra data for the arbitrator.",
          "_executionTimeout": "Time in seconds after approval that allows to execute transactions of the approved list.",
          "_submissionBaseDeposit": "The base deposit required for submission.",
          "_submissionTimeout": "Time in seconds allocated for submitting transaction list.",
          "_templateData": "The dispute template data.",
          "_templateDataMappings": "The dispute template data mappings.",
          "_templateRegistry": "Dispute Template registry address",
          "_wNative": "The wrapped native token address, typically wETH.",
          "_withdrawTimeout": "Time in seconds after submission that allows to withdraw submitted list."
        }
      },
      "executeSubmissions()": {
        "details": "If nothing was submitted changes session."
      },
      "executeTransactionList(uint256,uint256,uint256)": {
        "params": {
          "_count": "Number of transactions to execute. Executes until the end if set to \"0\" or number higher than number of transactions in the list.",
          "_cursor": "Index of the transaction from which to start executing.",
          "_listID": "The index of the transaction list in the array of lists."
        }
      },
      "getCurrentSessionNumber()": {
        "returns": {
          "_0": "The number of the ongoing session."
        }
      },
      "getExpendableFunds()": {
        "returns": {
          "_0": "Contract balance without reserved ETH."
        }
      },
      "getNumberOfCreatedLists()": {
        "returns": {
          "_0": "The number of created lists."
        }
      },
      "getNumberOfTransactions(uint256)": {
        "params": {
          "_listID": "The index of the transaction list in the array of lists."
        },
        "returns": {
          "txCount": "The number of transactions in the list."
        }
      },
      "getSession(uint256)": {
        "returns": {
          "_session": "The session info."
        }
      },
      "getSubmission(uint256)": {
        "params": {
          "_listId": "The index of the transaction list in the array of lists."
        },
        "returns": {
          "submission": "List belonging to that listId."
        }
      },
      "getSubmittedLists(uint256)": {
        "details": "This function is O(n), where `n` is the number of submissions in the session. This could exceed the gas limit, therefore this function should only be used for interface display and not by other contracts.",
        "params": {
          "_session": "The ID of the session."
        },
        "returns": {
          "submittedLists": "Indexes of lists that were submitted during the session."
        }
      },
      "getTotalSubmissionDeposit()": {
        "returns": {
          "_requiredDeposit": "required deposit value"
        }
      },
      "getTransactionInfo(uint256,uint256)": {
        "params": {
          "_listID": "The index of the transaction list in the array of lists.",
          "_transactionIndex": "The index of the transaction."
        },
        "returns": {
          "data": "The data of the transaction.",
          "executed": "Whether the transaction was executed or not.",
          "target": "The target of the transaction.",
          "value": "The value of the transaction."
        }
      },
      "rule(uint256,uint256)": {
        "details": "Must be called by the arbitrator.",
        "params": {
          "_disputeID": "ID of the dispute in the Arbitrator contract.",
          "_ruling": "Ruling given by the arbitrator. Note that 0 is reserved for \"Refuse to arbitrate\". Note If the final ruling is \"0\" nothing is approved and deposits will stay locked in the contract."
        }
      },
      "submitList(address[],uint256[],bytes,uint256[],string)": {
        "params": {
          "_data": "Concatenated calldata of all transactions of this list.",
          "_dataSize": "List of lengths in bytes required to split calldata for its respective targets.",
          "_description": "String in CSV format that describes list's transactions.",
          "_target": "List of addresses to call.",
          "_value": "List of values required for respective addresses."
        }
      },
      "withdrawTransactionList(uint256,bytes32)": {
        "details": "Withdrawal is only possible during the first half of the submission period and during withdrawTimeout after the submission is made.",
        "params": {
          "_listHash": "Hash of a withdrawing list.",
          "_submissionID": "Submission's index in the array of submitted lists of the current session."
        }
      }
    },
    "title": "KlerosGovernor for V2.",
    "version": 1
  },
  "userdoc": {
    "events": {
      "DisputeRequest(address,uint256,uint256)": {
        "notice": "To be emitted when a dispute is created to link the correct template to the disputeID."
      },
      "ListSubmitted(uint256,address,uint256,string)": {
        "notice": "Emitted when a new list is submitted."
      },
      "Ruling(address,uint256,uint256)": {
        "notice": "To be raised when a ruling is given."
      }
    },
    "kind": "user",
    "methods": {
      "changeArbitrator(address,bytes)": {
        "notice": "Changes the arbitrator of the contract."
      },
      "changeDisputeTemplate(string,string)": {
        "notice": "Update the dispute template data."
      },
      "changeExecutionTimeout(uint256)": {
        "notice": "Changes the time allocated for list's execution."
      },
      "changeSubmissionDeposit(uint256)": {
        "notice": "Changes the value of the base deposit required for submitting a list."
      },
      "changeSubmissionTimeout(uint256)": {
        "notice": "Changes the time allocated for submission."
      },
      "changeWithdrawTimeout(uint256)": {
        "notice": "Changes list withdrawal timeout. Note that withdrawals are only possible in the first half of the submission period."
      },
      "constructor": {
        "notice": "Constructor."
      },
      "executeSubmissions()": {
        "notice": "Approves a transaction list or creates a dispute if more than one list was submitted."
      },
      "executeTransactionList(uint256,uint256,uint256)": {
        "notice": "Executes selected transactions of the list."
      },
      "getCurrentSessionNumber()": {
        "notice": "Gets the number of the ongoing session."
      },
      "getExpendableFunds()": {
        "notice": "Gets the sum of contract funds that are used for the execution of transactions."
      },
      "getNumberOfCreatedLists()": {
        "notice": "Gets the number of lists created in contract's lifetime."
      },
      "getNumberOfTransactions(uint256)": {
        "notice": "Gets the number of transactions in the list."
      },
      "getSession(uint256)": {
        "notice": "Gets the session from the session index."
      },
      "getSubmission(uint256)": {
        "notice": "Gets the submission from listId."
      },
      "getSubmittedLists(uint256)": {
        "notice": "Gets the array of submitted lists in the session."
      },
      "getTotalSubmissionDeposit()": {
        "notice": "Gets the total deposit required to submit a list. (submissionBaseDeposit + arbitrationCost)."
      },
      "getTransactionInfo(uint256,uint256)": {
        "notice": "Gets the info of the specific transaction in the specific list."
      },
      "rule(uint256,uint256)": {
        "notice": "Gives a ruling for a dispute."
      },
      "submitList(address[],uint256[],bytes,uint256[],string)": {
        "notice": "Creates transaction list based on input parameters and submits it for potential approval and execution."
      },
      "withdrawTransactionList(uint256,bytes32)": {
        "notice": "Withdraws submitted transaction list. Reimburses submission deposit."
      }
    },
    "version": 1
  },
  "storageLayout": {
    "storage": [
      {
        "astId": 386,
        "contract": "src/KlerosGovernor.sol:KlerosGovernor",
        "label": "arbitrator",
        "offset": 0,
        "slot": "0",
        "type": "t_contract(IArbitratorV2)133"
      },
      {
        "astId": 388,
        "contract": "src/KlerosGovernor.sol:KlerosGovernor",
        "label": "arbitratorExtraData",
        "offset": 0,
        "slot": "1",
        "type": "t_bytes_storage"
      },
      {
        "astId": 390,
        "contract": "src/KlerosGovernor.sol:KlerosGovernor",
        "label": "wNative",
        "offset": 0,
        "slot": "2",
        "type": "t_address"
      },
      {
        "astId": 393,
        "contract": "src/KlerosGovernor.sol:KlerosGovernor",
        "label": "templateRegistry",
        "offset": 0,
        "slot": "3",
        "type": "t_contract(IDisputeTemplateRegistry)160"
      },
      {
        "astId": 395,
        "contract": "src/KlerosGovernor.sol:KlerosGovernor",
        "label": "templateId",
        "offset": 0,
        "slot": "4",
        "type": "t_uint256"
      },
      {
        "astId": 397,
        "contract": "src/KlerosGovernor.sol:KlerosGovernor",
        "label": "submissionBaseDeposit",
        "offset": 0,
        "slot": "5",
        "type": "t_uint256"
      },
      {
        "astId": 399,
        "contract": "src/KlerosGovernor.sol:KlerosGovernor",
        "label": "submissionTimeout",
        "offset": 0,
        "slot": "6",
        "type": "t_uint256"
      },
      {
        "astId": 401,
        "contract": "src/KlerosGovernor.sol:KlerosGovernor",
        "label": "executionTimeout",
        "offset": 0,
        "slot": "7",
        "type": "t_uint256"
      },
      {
        "astId": 403,
        "contract": "src/KlerosGovernor.sol:KlerosGovernor",
        "label": "withdrawTimeout",
        "offset": 0,
        "slot": "8",
        "type": "t_uint256"
      },
      {
        "astId": 405,
        "contract": "src/KlerosGovernor.sol:KlerosGovernor",
        "label": "lastApprovalTime",
        "offset": 0,
        "slot": "9",
        "type": "t_uint256"
      },
      {
        "astId": 407,
        "contract": "src/KlerosGovernor.sol:KlerosGovernor",
        "label": "reservedETH",
        "offset": 0,
        "slot": "10",
        "type": "t_uint256"
      },
      {
        "astId": 411,
        "contract": "src/KlerosGovernor.sol:KlerosGovernor",
        "label": "submissions",
        "offset": 0,
        "slot": "11",
        "type": "t_array(t_struct(Submission)374_storage)dyn_storage"
      },
      {
        "astId": 415,
        "contract": "src/KlerosGovernor.sol:KlerosGovernor",
        "label": "sessions",
        "offset": 0,
        "slot": "12",
        "type": "t_array(t_struct(Session)346_storage)dyn_storage"
      },
      {
        "astId": 421,
        "contract": "src/KlerosGovernor.sol:KlerosGovernor",
        "label": "alreadySubmitted",
        "offset": 0,
        "slot": "13",
        "type": "t_mapping(t_uint256,t_mapping(t_bytes32,t_bool))"
      }
    ],
    "types": {
      "t_address": {
        "encoding": "inplace",
        "label": "address",
        "numberOfBytes": "20"
      },
      "t_address_payable": {
        "encoding": "inplace",
        "label": "address payable",
        "numberOfBytes": "20"
      },
      "t_array(t_struct(Session)346_storage)dyn_storage": {
        "base": "t_struct(Session)346_storage",
        "encoding": "dynamic_array",
        "label": "struct KlerosGovernor.Session[]",
        "numberOfBytes": "32"
      },
      "t_array(t_struct(Submission)374_storage)dyn_storage": {
        "base": "t_struct(Submission)374_storage",
        "encoding": "dynamic_array",
        "label": "struct KlerosGovernor.Submission[]",
        "numberOfBytes": "32"
      },
      "t_array(t_struct(Transaction)355_storage)dyn_storage": {
        "base": "t_struct(Transaction)355_storage",
        "encoding": "dynamic_array",
        "label": "struct KlerosGovernor.Transaction[]",
        "numberOfBytes": "32"
      },
      "t_array(t_uint256)dyn_storage": {
        "base": "t_uint256",
        "encoding": "dynamic_array",
        "label": "uint256[]",
        "numberOfBytes": "32"
      },
      "t_bool": {
        "encoding": "inplace",
        "label": "bool",
        "numberOfBytes": "1"
      },
      "t_bytes32": {
        "encoding": "inplace",
        "label": "bytes32",
        "numberOfBytes": "32"
      },
      "t_bytes_storage": {
        "encoding": "bytes",
        "label": "bytes",
        "numberOfBytes": "32"
      },
      "t_contract(IArbitratorV2)133": {
        "encoding": "inplace",
        "label": "contract IArbitratorV2",
        "numberOfBytes": "20"
      },
      "t_contract(IDisputeTemplateRegistry)160": {
        "encoding": "inplace",
        "label": "contract IDisputeTemplateRegistry",
        "numberOfBytes": "20"
      },
      "t_enum(Status)331": {
        "encoding": "inplace",
        "label": "enum KlerosGovernor.Status",
        "numberOfBytes": "1"
      },
      "t_mapping(t_bytes32,t_bool)": {
        "encoding": "mapping",
        "key": "t_bytes32",
        "label": "mapping(bytes32 => bool)",
        "numberOfBytes": "32",
        "value": "t_bool"
      },
      "t_mapping(t_uint256,t_mapping(t_bytes32,t_bool))": {
        "encoding": "mapping",
        "key": "t_uint256",
        "label": "mapping(uint256 => mapping(bytes32 => bool))",
        "numberOfBytes": "32",
        "value": "t_mapping(t_bytes32,t_bool)"
      },
      "t_struct(Session)346_storage": {
        "encoding": "inplace",
        "label": "struct KlerosGovernor.Session",
        "members": [
          {
            "astId": 333,
            "contract": "src/KlerosGovernor.sol:KlerosGovernor",
            "label": "ruling",
            "offset": 0,
            "slot": "0",
            "type": "t_uint256"
          },
          {
            "astId": 335,
            "contract": "src/KlerosGovernor.sol:KlerosGovernor",
            "label": "disputeID",
            "offset": 0,
            "slot": "1",
            "type": "t_uint256"
          },
          {
            "astId": 338,
            "contract": "src/KlerosGovernor.sol:KlerosGovernor",
            "label": "submittedLists",
            "offset": 0,
            "slot": "2",
            "type": "t_array(t_uint256)dyn_storage"
          },
          {
            "astId": 340,
            "contract": "src/KlerosGovernor.sol:KlerosGovernor",
            "label": "sumDeposit",
            "offset": 0,
            "slot": "3",
            "type": "t_uint256"
          },
          {
            "astId": 343,
            "contract": "src/KlerosGovernor.sol:KlerosGovernor",
            "label": "status",
            "offset": 0,
            "slot": "4",
            "type": "t_enum(Status)331"
          },
          {
            "astId": 345,
            "contract": "src/KlerosGovernor.sol:KlerosGovernor",
            "label": "durationOffset",
            "offset": 0,
            "slot": "5",
            "type": "t_uint256"
          }
        ],
        "numberOfBytes": "192"
      },
      "t_struct(Submission)374_storage": {
        "encoding": "inplace",
        "label": "struct KlerosGovernor.Submission",
        "members": [
          {
            "astId": 357,
            "contract": "src/KlerosGovernor.sol:KlerosGovernor",
            "label": "submitter",
            "offset": 0,
            "slot": "0",
            "type": "t_address_payable"
          },
          {
            "astId": 359,
            "contract": "src/KlerosGovernor.sol:KlerosGovernor",
            "label": "deposit",
            "offset": 0,
            "slot": "1",
            "type": "t_uint256"
          },
          {
            "astId": 363,
            "contract": "src/KlerosGovernor.sol:KlerosGovernor",
            "label": "txs",
            "offset": 0,
            "slot": "2",
            "type": "t_array(t_struct(Transaction)355_storage)dyn_storage"
          },
          {
            "astId": 365,
            "contract": "src/KlerosGovernor.sol:KlerosGovernor",
            "label": "listHash",
            "offset": 0,
            "slot": "3",
            "type": "t_bytes32"
          },
          {
            "astId": 367,
            "contract": "src/KlerosGovernor.sol:KlerosGovernor",
            "label": "submissionTime",
            "offset": 0,
            "slot": "4",
            "type": "t_uint256"
          },
          {
            "astId": 369,
            "contract": "src/KlerosGovernor.sol:KlerosGovernor",
            "label": "approved",
            "offset": 0,
            "slot": "5",
            "type": "t_bool"
          },
          {
            "astId": 371,
            "contract": "src/KlerosGovernor.sol:KlerosGovernor",
            "label": "approvalTime",
            "offset": 0,
            "slot": "6",
            "type": "t_uint256"
          },
          {
            "astId": 373,
            "contract": "src/KlerosGovernor.sol:KlerosGovernor",
            "label": "submissionBlock",
            "offset": 0,
            "slot": "7",
            "type": "t_uint256"
          }
        ],
        "numberOfBytes": "256"
      },
      "t_struct(Transaction)355_storage": {
        "encoding": "inplace",
        "label": "struct KlerosGovernor.Transaction",
        "members": [
          {
            "astId": 348,
            "contract": "src/KlerosGovernor.sol:KlerosGovernor",
            "label": "target",
            "offset": 0,
            "slot": "0",
            "type": "t_address"
          },
          {
            "astId": 350,
            "contract": "src/KlerosGovernor.sol:KlerosGovernor",
            "label": "value",
            "offset": 0,
            "slot": "1",
            "type": "t_uint256"
          },
          {
            "astId": 352,
            "contract": "src/KlerosGovernor.sol:KlerosGovernor",
            "label": "data",
            "offset": 0,
            "slot": "2",
            "type": "t_bytes_storage"
          },
          {
            "astId": 354,
            "contract": "src/KlerosGovernor.sol:KlerosGovernor",
            "label": "executed",
            "offset": 0,
            "slot": "3",
            "type": "t_bool"
          }
        ],
        "numberOfBytes": "128"
      },
      "t_uint256": {
        "encoding": "inplace",
        "label": "uint256",
        "numberOfBytes": "32"
      }
    }
  }
}