{
  "address": "0x9F4d1F4EDc2EFa6a5E38F8137B6B48502ED02310",
  "abi": [
    {
      "inputs": [
        {
          "internalType": "contract IArbitratorV2",
          "name": "_arbitrator",
          "type": "address"
        },
        {
          "internalType": "bytes",
          "name": "_arbitratorExtraData",
          "type": "bytes"
        },
        {
          "internalType": "contract IDisputeTemplateRegistry",
          "name": "_templateRegistry",
          "type": "address"
        },
        {
          "internalType": "string",
          "name": "_templateData",
          "type": "string"
        },
        {
          "internalType": "string",
          "name": "_templateDataMappings",
          "type": "string"
        },
        {
          "internalType": "uint256",
          "name": "_submissionBaseDeposit",
          "type": "uint256"
        },
        {
          "internalType": "uint256",
          "name": "_submissionTimeout",
          "type": "uint256"
        },
        {
          "internalType": "uint256",
          "name": "_executionTimeout",
          "type": "uint256"
        },
        {
          "internalType": "uint256",
          "name": "_withdrawTimeout",
          "type": "uint256"
        }
      ],
      "stateMutability": "nonpayable",
      "type": "constructor"
    },
    {
      "anonymous": false,
      "inputs": [
        {
          "indexed": true,
          "internalType": "contract IArbitratorV2",
          "name": "_arbitrator",
          "type": "address"
        },
        {
          "indexed": true,
          "internalType": "uint256",
          "name": "_arbitratorDisputeID",
          "type": "uint256"
        },
        {
          "indexed": false,
          "internalType": "uint256",
          "name": "_externalDisputeID",
          "type": "uint256"
        },
        {
          "indexed": false,
          "internalType": "uint256",
          "name": "_templateId",
          "type": "uint256"
        },
        {
          "indexed": false,
          "internalType": "string",
          "name": "_templateUri",
          "type": "string"
        }
      ],
      "name": "DisputeRequest",
      "type": "event"
    },
    {
      "anonymous": false,
      "inputs": [
        {
          "indexed": true,
          "internalType": "uint256",
          "name": "_listID",
          "type": "uint256"
        },
        {
          "indexed": true,
          "internalType": "address",
          "name": "_submitter",
          "type": "address"
        },
        {
          "indexed": true,
          "internalType": "uint256",
          "name": "_session",
          "type": "uint256"
        },
        {
          "indexed": false,
          "internalType": "string",
          "name": "_description",
          "type": "string"
        }
      ],
      "name": "ListSubmitted",
      "type": "event"
    },
    {
      "anonymous": false,
      "inputs": [
        {
          "indexed": true,
          "internalType": "contract IArbitratorV2",
          "name": "_arbitrator",
          "type": "address"
        },
        {
          "indexed": true,
          "internalType": "uint256",
          "name": "_disputeID",
          "type": "uint256"
        },
        {
          "indexed": false,
          "internalType": "uint256",
          "name": "_ruling",
          "type": "uint256"
        }
      ],
      "name": "Ruling",
      "type": "event"
    },
    {
      "inputs": [],
      "name": "arbitrator",
      "outputs": [
        {
          "internalType": "contract IArbitratorV2",
          "name": "",
          "type": "address"
        }
      ],
      "stateMutability": "view",
      "type": "function"
    },
    {
      "inputs": [],
      "name": "arbitratorExtraData",
      "outputs": [
        {
          "internalType": "bytes",
          "name": "",
          "type": "bytes"
        }
      ],
      "stateMutability": "view",
      "type": "function"
    },
    {
      "inputs": [
        {
          "internalType": "contract IArbitratorV2",
          "name": "_arbitrator",
          "type": "address"
        },
        {
          "internalType": "bytes",
          "name": "_arbitratorExtraData",
          "type": "bytes"
        }
      ],
      "name": "changeArbitrator",
      "outputs": [],
      "stateMutability": "nonpayable",
      "type": "function"
    },
    {
      "inputs": [
        {
          "internalType": "string",
          "name": "_templateData",
          "type": "string"
        },
        {
          "internalType": "string",
          "name": "_templateDataMappings",
          "type": "string"
        }
      ],
      "name": "changeDisputeTemplate",
      "outputs": [],
      "stateMutability": "nonpayable",
      "type": "function"
    },
    {
      "inputs": [
        {
          "internalType": "uint256",
          "name": "_executionTimeout",
          "type": "uint256"
        }
      ],
      "name": "changeExecutionTimeout",
      "outputs": [],
      "stateMutability": "nonpayable",
      "type": "function"
    },
    {
      "inputs": [
        {
          "internalType": "uint256",
          "name": "_submissionBaseDeposit",
          "type": "uint256"
        }
      ],
      "name": "changeSubmissionDeposit",
      "outputs": [],
      "stateMutability": "nonpayable",
      "type": "function"
    },
    {
      "inputs": [
        {
          "internalType": "uint256",
          "name": "_submissionTimeout",
          "type": "uint256"
        }
      ],
      "name": "changeSubmissionTimeout",
      "outputs": [],
      "stateMutability": "nonpayable",
      "type": "function"
    },
    {
      "inputs": [
        {
          "internalType": "uint256",
          "name": "_withdrawTimeout",
          "type": "uint256"
        }
      ],
      "name": "changeWithdrawTimeout",
      "outputs": [],
      "stateMutability": "nonpayable",
      "type": "function"
    },
    {
      "inputs": [],
      "name": "executeSubmissions",
      "outputs": [],
      "stateMutability": "nonpayable",
      "type": "function"
    },
    {
      "inputs": [
        {
          "internalType": "uint256",
          "name": "_listID",
          "type": "uint256"
        },
        {
          "internalType": "uint256",
          "name": "_cursor",
          "type": "uint256"
        },
        {
          "internalType": "uint256",
          "name": "_count",
          "type": "uint256"
        }
      ],
      "name": "executeTransactionList",
      "outputs": [],
      "stateMutability": "nonpayable",
      "type": "function"
    },
    {
      "inputs": [],
      "name": "executionTimeout",
      "outputs": [
        {
          "internalType": "uint256",
          "name": "",
          "type": "uint256"
        }
      ],
      "stateMutability": "view",
      "type": "function"
    },
    {
      "inputs": [],
      "name": "getCurrentSessionNumber",
      "outputs": [
        {
          "internalType": "uint256",
          "name": "",
          "type": "uint256"
        }
      ],
      "stateMutability": "view",
      "type": "function"
    },
    {
      "inputs": [],
      "name": "getExpendableFunds",
      "outputs": [
        {
          "internalType": "uint256",
          "name": "",
          "type": "uint256"
        }
      ],
      "stateMutability": "view",
      "type": "function"
    },
    {
      "inputs": [],
      "name": "getNumberOfCreatedLists",
      "outputs": [
        {
          "internalType": "uint256",
          "name": "",
          "type": "uint256"
        }
      ],
      "stateMutability": "view",
      "type": "function"
    },
    {
      "inputs": [
        {
          "internalType": "uint256",
          "name": "_listID",
          "type": "uint256"
        }
      ],
      "name": "getNumberOfTransactions",
      "outputs": [
        {
          "internalType": "uint256",
          "name": "txCount",
          "type": "uint256"
        }
      ],
      "stateMutability": "view",
      "type": "function"
    },
    {
      "inputs": [
        {
          "internalType": "uint256",
          "name": "_sessionIndex",
          "type": "uint256"
        }
      ],
      "name": "getSession",
      "outputs": [
        {
          "components": [
            {
              "internalType": "uint256",
              "name": "ruling",
              "type": "uint256"
            },
            {
              "internalType": "uint256",
              "name": "disputeID",
              "type": "uint256"
            },
            {
              "internalType": "uint256[]",
              "name": "submittedLists",
              "type": "uint256[]"
            },
            {
              "internalType": "uint256",
              "name": "sumDeposit",
              "type": "uint256"
            },
            {
              "internalType": "enum KlerosGovernor.Status",
              "name": "status",
              "type": "uint8"
            },
            {
              "internalType": "uint256",
              "name": "durationOffset",
              "type": "uint256"
            }
          ],
          "internalType": "struct KlerosGovernor.Session",
          "name": "_session",
          "type": "tuple"
        }
      ],
      "stateMutability": "view",
      "type": "function"
    },
    {
      "inputs": [
        {
          "internalType": "uint256",
          "name": "_session",
          "type": "uint256"
        }
      ],
      "name": "getSubmittedLists",
      "outputs": [
        {
          "internalType": "uint256[]",
          "name": "submittedLists",
          "type": "uint256[]"
        }
      ],
      "stateMutability": "view",
      "type": "function"
    },
    {
      "inputs": [
        {
          "internalType": "uint256",
          "name": "_listID",
          "type": "uint256"
        },
        {
          "internalType": "uint256",
          "name": "_transactionIndex",
          "type": "uint256"
        }
      ],
      "name": "getTransactionInfo",
      "outputs": [
        {
          "internalType": "address",
          "name": "target",
          "type": "address"
        },
        {
          "internalType": "uint256",
          "name": "value",
          "type": "uint256"
        },
        {
          "internalType": "bytes",
          "name": "data",
          "type": "bytes"
        },
        {
          "internalType": "bool",
          "name": "executed",
          "type": "bool"
        }
      ],
      "stateMutability": "view",
      "type": "function"
    },
    {
      "inputs": [],
      "name": "lastApprovalTime",
      "outputs": [
        {
          "internalType": "uint256",
          "name": "",
          "type": "uint256"
        }
      ],
      "stateMutability": "view",
      "type": "function"
    },
    {
      "inputs": [],
      "name": "reservedETH",
      "outputs": [
        {
          "internalType": "uint256",
          "name": "",
          "type": "uint256"
        }
      ],
      "stateMutability": "view",
      "type": "function"
    },
    {
      "inputs": [
        {
          "internalType": "uint256",
          "name": "_disputeID",
          "type": "uint256"
        },
        {
          "internalType": "uint256",
          "name": "_ruling",
          "type": "uint256"
        }
      ],
      "name": "rule",
      "outputs": [],
      "stateMutability": "nonpayable",
      "type": "function"
    },
    {
      "inputs": [
        {
          "internalType": "uint256",
          "name": "",
          "type": "uint256"
        }
      ],
      "name": "sessions",
      "outputs": [
        {
          "internalType": "uint256",
          "name": "ruling",
          "type": "uint256"
        },
        {
          "internalType": "uint256",
          "name": "disputeID",
          "type": "uint256"
        },
        {
          "internalType": "uint256",
          "name": "sumDeposit",
          "type": "uint256"
        },
        {
          "internalType": "enum KlerosGovernor.Status",
          "name": "status",
          "type": "uint8"
        },
        {
          "internalType": "uint256",
          "name": "durationOffset",
          "type": "uint256"
        }
      ],
      "stateMutability": "view",
      "type": "function"
    },
    {
      "inputs": [],
      "name": "submissionBaseDeposit",
      "outputs": [
        {
          "internalType": "uint256",
          "name": "",
          "type": "uint256"
        }
      ],
      "stateMutability": "view",
      "type": "function"
    },
    {
      "inputs": [],
      "name": "submissionTimeout",
      "outputs": [
        {
          "internalType": "uint256",
          "name": "",
          "type": "uint256"
        }
      ],
      "stateMutability": "view",
      "type": "function"
    },
    {
      "inputs": [
        {
          "internalType": "uint256",
          "name": "",
          "type": "uint256"
        }
      ],
      "name": "submissions",
      "outputs": [
        {
          "internalType": "address payable",
          "name": "submitter",
          "type": "address"
        },
        {
          "internalType": "uint256",
          "name": "deposit",
          "type": "uint256"
        },
        {
          "internalType": "bytes32",
          "name": "listHash",
          "type": "bytes32"
        },
        {
          "internalType": "uint256",
          "name": "submissionTime",
          "type": "uint256"
        },
        {
          "internalType": "bool",
          "name": "approved",
          "type": "bool"
        },
        {
          "internalType": "uint256",
          "name": "approvalTime",
          "type": "uint256"
        }
      ],
      "stateMutability": "view",
      "type": "function"
    },
    {
      "inputs": [
        {
          "internalType": "address[]",
          "name": "_target",
          "type": "address[]"
        },
        {
          "internalType": "uint256[]",
          "name": "_value",
          "type": "uint256[]"
        },
        {
          "internalType": "bytes",
          "name": "_data",
          "type": "bytes"
        },
        {
          "internalType": "uint256[]",
          "name": "_dataSize",
          "type": "uint256[]"
        },
        {
          "internalType": "string",
          "name": "_description",
          "type": "string"
        }
      ],
      "name": "submitList",
      "outputs": [],
      "stateMutability": "payable",
      "type": "function"
    },
    {
      "inputs": [],
      "name": "templateId",
      "outputs": [
        {
          "internalType": "uint256",
          "name": "",
          "type": "uint256"
        }
      ],
      "stateMutability": "view",
      "type": "function"
    },
    {
      "inputs": [],
      "name": "templateRegistry",
      "outputs": [
        {
          "internalType": "contract IDisputeTemplateRegistry",
          "name": "",
          "type": "address"
        }
      ],
      "stateMutability": "view",
      "type": "function"
    },
    {
      "inputs": [],
      "name": "withdrawTimeout",
      "outputs": [
        {
          "internalType": "uint256",
          "name": "",
          "type": "uint256"
        }
      ],
      "stateMutability": "view",
      "type": "function"
    },
    {
      "inputs": [
        {
          "internalType": "uint256",
          "name": "_submissionID",
          "type": "uint256"
        },
        {
          "internalType": "bytes32",
          "name": "_listHash",
          "type": "bytes32"
        }
      ],
      "name": "withdrawTransactionList",
      "outputs": [],
      "stateMutability": "nonpayable",
      "type": "function"
    },
    {
      "stateMutability": "payable",
      "type": "receive"
    }
  ],
  "transactionHash": "0x2304cb4d2059036728b24dd68cc14f17cb5d75ef7b19eedb71190ce8001f8cba",
  "args": [
    "0xA54e7A16d7460e38a8F324eF46782FB520d58CE8",
    "0x00000000000000000000000000000000000000000000000000000000000000010000000000000000000000000000000000000000000000000000000000000003",
    "0x596D3B09E684D62217682216e9b7a0De75933391",
    "{\n  \"$schema\": \"../NewDisputeTemplate.schema.json\",\n  \"title\": \"Let's do this\",\n  \"description\": \"We want to do this: %s\",\n  \"question\": \"Does it comply with the policy?\",\n  \"answers\": [\n    {\n      \"title\": \"Yes\",\n      \"description\": \"Select this if you agree that it must be done.\"\n    },\n    {\n      \"title\": \"No\",\n      \"description\": \"Select this if you do not agree that it must be done.\"\n    }\n  ],\n  \"policyURI\": \"/ipfs/Qmdvk...rSD6cE/policy.pdf\",\n  \"frontendUrl\": \"https://kleros-v2.netlify.app/#/cases/%s/overview\",\n  \"arbitratorChainID\": \"421614\",\n  \"arbitratorAddress\": \"0xD08Ab99480d02bf9C092828043f611BcDFEA917b\",\n  \"category\": \"Others\",\n  \"specification\": \"KIP001\",\n  \"lang\": \"en_US\"\n}\n",
    "",
    0,
    600,
    600,
    600
  ],
  "numDeployments": 4,
  "solcInputHash": "a57e71f06cb22f4bb4176380e253eb73",
  "bytecode": "0x60806040523480156200001157600080fd5b5060405162002c8c38038062002c8c833981016040819052620000349162000208565b600080546001600160a01b0319166001600160a01b038b1617905560016200005d898262000378565b50426008556004848155600584905560068390556007829055600b80546001018155600052600280546001600160a01b0319166001600160a01b038a169081179091556040516312a6505d60e21b81529091634a99417491620000c5918a918a910162000472565b6020604051808303816000875af1158015620000e5573d6000803e3d6000fd5b505050506040513d601f19601f820116820180604052508101906200010b9190620004b2565b60035550620004cc975050505050505050565b80516001600160a01b03811681146200013657600080fd5b919050565b634e487b7160e01b600052604160045260246000fd5b60005b838110156200016e57818101518382015260200162000154565b50506000910152565b600082601f8301126200018957600080fd5b81516001600160401b0380821115620001a657620001a66200013b565b604051601f8301601f19908116603f01168101908282118183101715620001d157620001d16200013b565b81604052838152866020858801011115620001eb57600080fd5b620001fe84602083016020890162000151565b9695505050505050565b60008060008060008060008060006101208a8c0312156200022857600080fd5b620002338a6200011e565b60208b01519099506001600160401b03808211156200025157600080fd5b6200025f8d838e0162000177565b99506200026f60408d016200011e565b985060608c01519150808211156200028657600080fd5b620002948d838e0162000177565b975060808c0151915080821115620002ab57600080fd5b50620002ba8c828d0162000177565b95505060a08a0151935060c08a0151925060e08a015191506101008a015190509295985092959850929598565b600181811c90821680620002fc57607f821691505b6020821081036200031d57634e487b7160e01b600052602260045260246000fd5b50919050565b601f82111562000373576000816000526020600020601f850160051c810160208610156200034e5750805b601f850160051c820191505b818110156200036f578281556001016200035a565b5050505b505050565b81516001600160401b038111156200039457620003946200013b565b620003ac81620003a58454620002e7565b8462000323565b602080601f831160018114620003e45760008415620003cb5750858301515b600019600386901b1c1916600185901b1785556200036f565b600085815260208120601f198616915b828110156200041557888601518255948401946001909101908401620003f4565b5085821015620004345787850151600019600388901b60f8161c191681555b5050505050600190811b01905550565b600081518084526200045e81602086016020860162000151565b601f01601f19169290920160200192915050565b606081526000606082015260806020820152600062000495608083018562000444565b8281036040840152620004a9818562000444565b95945050505050565b600060208284031215620004c557600080fd5b5051919050565b6127b080620004dc6000396000f3fe6080604052600436106101915760003560e01c8063953d6651116100d7578063b6dc775411610085578063b6dc7754146104ae578063ba7079ca146104c3578063bb0b86ff146104e3578063c4bd8519146104f9578063c5d552881461050f578063cc2bcdb41461052f578063dc17bbdb1461054f578063f730c07f1461056f57600080fd5b8063953d66511461039a5780639c15d1a2146103ba578063a0af81f0146103d0578063a3c595c9146103f0578063ad73349e14610420578063b512570014610479578063b6cd08c61461048e57600080fd5b8063460478381161013f57806346047838146102a85780636c0b7e71146102bb5780636cc6cde1146102d05780636cf39c2b1461030857806377b9fda8146103285780637aa77f291461033e57806383c4b7a3146103545780639244c7041461038557600080fd5b80630c7ac7b61461019d57806321cea538146101c857806322b52d66146101f5578063246c76df1461021957806324baacc71461023b578063311a6c561461025b578063402ff0db1461027b57600080fd5b3661019857005b600080fd5b3480156101a957600080fd5b506101b2610585565b6040516101bf9190611e53565b60405180910390f35b3480156101d457600080fd5b506101e86101e3366004611e6d565b610613565b6040516101bf9190611ec2565b34801561020157600080fd5b5061020b60065481565b6040519081526020016101bf565b34801561022557600080fd5b50610239610234366004611e6d565b610695565b005b34801561024757600080fd5b50610239610256366004611e6d565b6106c2565b34801561026757600080fd5b50610239610276366004611ed5565b6106e6565b34801561028757600080fd5b5061029b610296366004611e6d565b610931565b6040516101bf9190611f2f565b6102396102b6366004612159565b610a1f565b3480156102c757600080fd5b5061020b611076565b3480156102dc57600080fd5b506000546102f0906001600160a01b031681565b6040516001600160a01b0390911681526020016101bf565b34801561031457600080fd5b5061023961032336600461222a565b61108d565b34801561033457600080fd5b5061020b60095481565b34801561034a57600080fd5b5061020b60035481565b34801561036057600080fd5b5061037461036f366004611e6d565b6112c8565b6040516101bf959493929190612256565b34801561039157600080fd5b5061023961130f565b3480156103a657600080fd5b506102396103b5366004611e6d565b611707565b3480156103c657600080fd5b5061020b60075481565b3480156103dc57600080fd5b506002546102f0906001600160a01b031681565b3480156103fc57600080fd5b5061041061040b366004611ed5565b61179d565b6040516101bf9493929190612288565b34801561042c57600080fd5b5061044061043b366004611e6d565b6118b7565b604080516001600160a01b03909716875260208701959095529385019290925260608401521515608083015260a082015260c0016101bf565b34801561048557600080fd5b5061020b61190d565b34801561049a57600080fd5b506102396104a9366004611ed5565b61191d565b3480156104ba57600080fd5b50600a5461020b565b3480156104cf57600080fd5b506102396104de3660046122c2565b611c19565b3480156104ef57600080fd5b5061020b60045481565b34801561050557600080fd5b5061020b60055481565b34801561051b57600080fd5b5061023961052a366004612311565b611cd6565b34801561053b57600080fd5b5061023961054a366004611e6d565b611d71565b34801561055b57600080fd5b5061020b61056a366004611e6d565b611d95565b34801561057b57600080fd5b5061020b60085481565b600180546105929061236a565b80601f01602080910402602001604051908101604052809291908181526020018280546105be9061236a565b801561060b5780601f106105e05761010080835404028352916020019161060b565b820191906000526020600020905b8154815290600101906020018083116105ee57829003601f168201915b505050505081565b60606000600b838154811061062a5761062a6123a4565b906000526020600020906006020190508060020180548060200260200160405190810160405280929190818152602001828054801561068857602002820191906000526020600020905b815481526020019060010190808311610674575b5050505050915050919050565b3033146106bd5760405162461bcd60e51b81526004016106b4906123ba565b60405180910390fd5b600755565b3033146106e15760405162461bcd60e51b81526004016106b4906123ba565b600455565b600b8054600091906106fa90600190612407565b8154811061070a5761070a6123a4565b600091825260208220915460069190910290910191506001600160a01b031633146107715760405162461bcd60e51b815260206004820152601760248201527613db9b1e48185c989a5d1c985d1bdc88185b1b1bddd959604a1b60448201526064016106b4565b6001600482015460ff16600281111561078c5761078c611ef7565b146107c85760405162461bcd60e51b815260206004820152600c60248201526b57726f6e672073746174757360a01b60448201526064016106b4565b60028101548211156108175760405162461bcd60e51b8152602060048201526018602482015277293ab634b7339034b99037baba1037b3103137bab732399760411b60448201526064016106b4565b81156108af576000600a60028301610830600186612407565b81548110610840576108406123a4565b90600052602060002001548154811061085b5761085b6123a4565b6000918252602082206005600790920201908101805460ff19166001179055426006820155805460038501546040519294506001600160a01b039091169281156108fc029290818181858888f15050505050505b8060030154600960008282546108c59190612407565b90915550506000600382018190554260085560048201805460ff19166002179055828255600b805460010181559052604051828152839033907f394027a5fa6e098a1191094d1719d6929b9abc535fcc0c8f448d6a4e75622276906020015b60405180910390a3505050565b610939611dc6565b600b828154811061094c5761094c6123a4565b90600052602060002090600602016040518060c00160405290816000820154815260200160018201548152602001600282018054806020026020016040519081016040528092919081815260200182805480156109c857602002820191906000526020600020905b8154815260200190600101908083116109b4575b505050918352505060038201546020820152600482015460409091019060ff1660028111156109f9576109f9611ef7565b6002811115610a0a57610a0a611ef7565b81526020016005820154815250509050919050565b600b805460009190610a3390600190612407565b81548110610a4357610a436123a4565b906000526020600020906006020160050154905080600554610a659190612420565b600854610a729042612407565b1115610a905760405162461bcd60e51b81526004016106b490612433565b8451865114610ae15760405162461bcd60e51b815260206004820152601d60248201527f57726f6e6720696e7075743a2074617267657420616e642076616c756500000060448201526064016106b4565b8251865114610b325760405162461bcd60e51b815260206004820181905260248201527f57726f6e6720696e7075743a2074617267657420616e64206461746173697a6560448201526064016106b4565b600b805460009190610b4690600190612407565b81548110610b5657610b566123a4565b600091825260208220600a8054600181810183559185526007027fc65a7bb8d6351c1cf70c95a316cc6a92839c986682d98bc35f958f4883f9d2a80180546001600160a01b03191633178155935460405163f7434ea960e01b8152600690940290920194506001600160a01b03919091169163f7434ea991610bda916004016124e7565b602060405180830381865afa158015610bf7573d6000803e3d6000fd5b505050506040513d601f19601f82011682018060405250810190610c1b91906124fa565b600454610c289190612420565b60018201819055341015610c7e5760405162461bcd60e51b815260206004820152601f60248201527f4e6f7420656e6f7567682045544820746f20636f766572206465706f7369740060448201526064016106b4565b60008080805b8b51811015610e8a576000898281518110610ca157610ca16123a4565b60200260200101516001600160401b03811115610cc057610cc0611f92565b6040519080825280601f01601f191660200182016040528015610cea576020820181803683370190505b50600287018054600181018255600091825260209091208f51929350600490910201908e9084908110610d1f57610d1f6123a4565b602090810291909101015181546001600160a01b0319166001600160a01b039091161781558c518d9084908110610d5857610d586123a4565b6020026020010151816001018190555060005b8b8481518110610d7d57610d7d6123a4565b6020026020010151811015610de3578c610d978287612420565b81518110610da757610da76123a4565b602001015160f81c60f81b838281518110610dc457610dc46123a4565b60200101906001600160f81b031916908160001a905350600101610d6b565b5060028101610df28382612564565b508a8381518110610e0557610e056123a4565b602002602001015184610e189190612420565b81546001830154604051929650610e42926001600160a01b03909216916002850190602001612696565b60408051601f19818403018152828252805160209182012081840181905283830199909952815180840383018152606090930190915281519101209594505050600101610c84565b50600b54600c90600090610ea090600190612407565b81526020808201929092526040908101600090812086825290925290205460ff1615610f075760405162461bcd60e51b8152602060048201526016602482015275131a5cdd08185b1c9958591e481cdd589b5a5d1d195960521b60448201526064016106b4565b6001600c60006001600b80549050610f1f9190612407565b8152602080820192909252604090810160009081208782529092528120805460ff19169215159290921790915560038581018590554260048701556001860154908701805491929091610f73908490612420565b9091555050600a546002860190610f8c90600190612407565b81546001818101845560009384526020909320015560028601549003610fbf57600854610fb99042612407565b60058601555b600b54610fce90600190612407565b600a543390610fdf90600190612407565b7f1a700b4f7df255aaf8c91c8b05abf0eab596e467dc17ef76fe4afc12541012488a60405161100e9190611e53565b60405180910390a460008460010154346110289190612407565b9050801561104d57604051339082156108fc029083906000818181858888f150505050505b8460010154600960008282546110639190612420565b9091555050505050505050505050505050565b600b5460009061108890600190612407565b905090565b6000600a84815481106110a2576110a26123a4565b60009182526020909120600790910201600581015490915060ff166110fe5760405162461bcd60e51b815260206004820152601260248201527114da1bdd5b1908189948185c1c1c9bdd995960721b60448201526064016106b4565b6006548160060154426111119190612407565b111561115f5760405162461bcd60e51b815260206004820152601a60248201527f54696d6520746f2065786563757465206861732070617373656400000000000060448201526064016106b4565b825b600282015481108015611184575082158061118457506111818385612420565b81105b156112c15760008260020182815481106111a0576111a06123a4565b9060005260206000209060040201905060006111ba61190d565b600383015490915060ff161580156111d6575080826001015411155b156112ac57815460018301546040516000926001600160a01b031691906112019060028701906126c9565b60006040518083038185875af1925050503d806000811461123e576040519150601f19603f3d011682016040523d82523d6000602084013e611243565b606091505b50909150508015156001036112aa57600383015460ff161561129a5760405162461bcd60e51b815260206004820152601060248201526f105b1c9958591e48195e1958dd5d195960821b60448201526064016106b4565b60038301805460ff191660011790555b505b505080806112b9906126d5565b915050611161565b5050505050565b600b81815481106112d857600080fd5b6000918252602090912060069091020180546001820154600383015460048401546005909401549294509092909160ff9091169085565b600b80546000919061132390600190612407565b81548110611333576113336123a4565b9060005260206000209060060201600501549050806005546113559190612420565b6008546113629042612407565b116113af5760405162461bcd60e51b815260206004820152601e60248201527f417070726f76616c2074696d65206e6f742073746172746564207965742e000060448201526064016106b4565b600b8054600091906113c390600190612407565b815481106113d3576113d36123a4565b6000918252602082206006909102019150600482015460ff1660028111156113fd576113fd611ef7565b1461143d5760405162461bcd60e51b815260206004820152601060248201526f105b1c9958591e48191a5cdc1d5d195960821b60448201526064016106b4565b600281015460000361146a5742600855600401805460ff1916600217905550600b80546001018155600052565b6002810154600103611546576000600a82600201600081548110611490576114906123a4565b9060005260206000200154815481106114ab576114ab6123a4565b6000918252602082206005600790920201908101805460ff1916600117905542600682015560038401805490839055815460405192945090926001600160a01b039091169183156108fc0291849190818181858888f150504260085550505060048301805460ff19166002179055600b80546001018155600090815260098054839290611539908490612407565b9091555061170392505050565b6004818101805460ff191660019081179091556000805460405163f7434ea960e01b815291936001600160a01b039091169263f7434ea99261158892016124e7565b602060405180830381865afa1580156115a5573d6000803e3d6000fd5b505050506040513d601f19601f820116820180604052508101906115c991906124fa565b600054600284015460405163c13517e160e01b81529293506001600160a01b039091169163c13517e191849161160591906001906004016126ee565b60206040518083038185885af1158015611623573d6000803e3d6000fd5b50505050506040513d601f19601f8201168201806040525081019061164891906124fa565b60018301556003820154811061165f57600061166f565b80826003015461166f9190612407565b60038301556009548110611684576000611692565b806009546116929190612407565b600955600180830154600054600b5491926001600160a01b03909116917f8bd32f430ff060e6bd204709b3790c9807987263d3230c580dc80b5f89e27186916116da91612407565b600354604051610924929190918252602082015260606040820181905260009082015260800190565b5050565b3033146117265760405162461bcd60e51b81526004016106b4906123ba565b600b80546000919061173a90600190612407565b8154811061174a5761174a6123a4565b90600052602060002090600602016005015490508060055461176c9190612420565b6008546117799042612407565b11156117975760405162461bcd60e51b81526004016106b490612433565b50600555565b6000806060600080600a87815481106117b8576117b86123a4565b9060005260206000209060070201905060008160020187815481106117df576117df6123a4565b600091825260209091206004909102018054600182015460038301546002840180549495506001600160a01b039093169391929160ff9091169082906118249061236a565b80601f01602080910402602001604051908101604052809291908181526020018280546118509061236a565b801561189d5780601f106118725761010080835404028352916020019161189d565b820191906000526020600020905b81548152906001019060200180831161188057829003601f168201915b505050505091509550955095509550505092959194509250565b600a81815481106118c757600080fd5b60009182526020909120600790910201805460018201546003830154600484015460058501546006909501546001600160a01b0390941695509193909260ff9091169086565b6000600954476110889190612407565b600b80546000919061193190600190612407565b81548110611941576119416123a4565b906000526020600020906006020190506000600a82600201858154811061196a5761196a6123a4565b906000526020600020015481548110611985576119856123a4565b9060005260206000209060070201905060026005546119a4919061270f565b6008546119b19042612407565b11156119f95760405162461bcd60e51b815260206004820152601760248201527629b437bab6321031329034b7103334b939ba103430b63360491b60448201526064016106b4565b82816003015414611a3e5760405162461bcd60e51b815260206004820152600f60248201526e0aee4dedcce40d8d2e6e840d0c2e6d608b1b60448201526064016106b4565b80546001600160a01b03163314611a975760405162461bcd60e51b815260206004820152601b60248201527f4f6e6c79207375626d69747465722063616e207769746864726177000000000060448201526064016106b4565b6007546004820154611aa99042612407565b1115611af75760405162461bcd60e51b815260206004820152601c60248201527f5769746864726177696e672074696d6520686173207061737365642e0000000060448201526064016106b4565b600282018054611b0990600190612407565b81548110611b1957611b196123a4565b9060005260206000200154826002018581548110611b3957611b396123a4565b6000918252602082200191909155600b54600c908290611b5b90600190612407565b8152602080820192909252604090810160009081208782529092529020805460ff191691151591909117905560028201805480611b9a57611b9a612731565b600190038181906000526020600020016000905590558060010154826003016000828254611bc89190612407565b9091555050600181015460098054600090611be4908490612407565b90915550506001810154604051339180156108fc02916000818181858888f193505050501580156112c1573d6000803e3d6000fd5b303314611c385760405162461bcd60e51b81526004016106b4906123ba565b600b805460009190611c4c90600190612407565b81548110611c5c57611c5c6123a4565b906000526020600020906006020160050154905080600554611c7e9190612420565b600854611c8b9042612407565b1115611ca95760405162461bcd60e51b81526004016106b490612433565b600080546001600160a01b0319166001600160a01b0385161790556001611cd08382612564565b50505050565b303314611cf55760405162461bcd60e51b81526004016106b4906123ba565b6002546040516312a6505d60e21b81526001600160a01b0390911690634a99417490611d279085908590600401612747565b6020604051808303816000875af1158015611d46573d6000803e3d6000fd5b505050506040513d601f19601f82011682018060405250810190611d6a91906124fa565b6003555050565b303314611d905760405162461bcd60e51b81526004016106b4906123ba565b600655565b600080600a8381548110611dab57611dab6123a4565b60009182526020909120600260079092020101549392505050565b6040518060c001604052806000815260200160008152602001606081526020016000815260200160006002811115611e0057611e00611ef7565b8152602001600081525090565b6000815180845260005b81811015611e3357602081850181015186830182015201611e17565b506000602082860101526020601f19601f83011685010191505092915050565b602081526000611e666020830184611e0d565b9392505050565b600060208284031215611e7f57600080fd5b5035919050565b60008151808452602080850194506020840160005b83811015611eb757815187529582019590820190600101611e9b565b509495945050505050565b602081526000611e666020830184611e86565b60008060408385031215611ee857600080fd5b50508035926020909101359150565b634e487b7160e01b600052602160045260246000fd5b60038110611f2b57634e487b7160e01b600052602160045260246000fd5b9052565b6020815281516020820152602082015160408201526000604083015160c06060840152611f5f60e0840182611e86565b9050606084015160808401526080840151611f7d60a0850182611f0d565b5060a084015160c08401528091505092915050565b634e487b7160e01b600052604160045260246000fd5b604051601f8201601f191681016001600160401b0381118282101715611fd057611fd0611f92565b604052919050565b60006001600160401b03821115611ff157611ff1611f92565b5060051b60200190565b6001600160a01b038116811461201057600080fd5b50565b600082601f83011261202457600080fd5b8135602061203961203483611fd8565b611fa8565b8083825260208201915060208460051b87010193508684111561205b57600080fd5b602086015b8481101561208057803561207381611ffb565b8352918301918301612060565b509695505050505050565b600082601f83011261209c57600080fd5b813560206120ac61203483611fd8565b8083825260208201915060208460051b8701019350868411156120ce57600080fd5b602086015b8481101561208057803583529183019183016120d3565b600082601f8301126120fb57600080fd5b81356001600160401b0381111561211457612114611f92565b612127601f8201601f1916602001611fa8565b81815284602083860101111561213c57600080fd5b816020850160208301376000918101602001919091529392505050565b600080600080600060a0868803121561217157600080fd5b85356001600160401b038082111561218857600080fd5b61219489838a01612013565b965060208801359150808211156121aa57600080fd5b6121b689838a0161208b565b955060408801359150808211156121cc57600080fd5b6121d889838a016120ea565b945060608801359150808211156121ee57600080fd5b6121fa89838a0161208b565b9350608088013591508082111561221057600080fd5b5061221d888289016120ea565b9150509295509295909350565b60008060006060848603121561223f57600080fd5b505081359360208301359350604090920135919050565b858152602081018590526040810184905260a081016122786060830185611f0d565b8260808301529695505050505050565b60018060a01b03851681528360208201526080604082015260006122af6080830185611e0d565b9050821515606083015295945050505050565b600080604083850312156122d557600080fd5b82356122e081611ffb565b915060208301356001600160401b038111156122fb57600080fd5b612307858286016120ea565b9150509250929050565b6000806040838503121561232457600080fd5b82356001600160401b038082111561233b57600080fd5b612347868387016120ea565b9350602085013591508082111561235d57600080fd5b50612307858286016120ea565b600181811c9082168061237e57607f821691505b60208210810361239e57634e487b7160e01b600052602260045260246000fd5b50919050565b634e487b7160e01b600052603260045260246000fd5b6020808252601a908201527f4f6e6c792074686520676f7665726e6f7220616c6c6f7765642e000000000000604082015260600190565b634e487b7160e01b600052601160045260246000fd5b8181038181111561241a5761241a6123f1565b92915050565b8082018082111561241a5761241a6123f1565b6020808252601a908201527f5375626d697373696f6e2074696d652068617320656e6465642e000000000000604082015260600190565b600081546124778161236a565b80855260206001838116801561249457600181146124ae576124dc565b60ff1985168884015283151560051b8801830195506124dc565b866000528260002060005b858110156124d45781548a82018601529083019084016124b9565b890184019650505b505050505092915050565b602081526000611e66602083018461246a565b60006020828403121561250c57600080fd5b5051919050565b601f82111561255f576000816000526020600020601f850160051c8101602086101561253c5750805b601f850160051c820191505b8181101561255b57828155600101612548565b5050505b505050565b81516001600160401b0381111561257d5761257d611f92565b6125918161258b845461236a565b84612513565b602080601f8311600181146125c657600084156125ae5750858301515b600019600386901b1c1916600185901b17855561255b565b600085815260208120601f198616915b828110156125f5578886015182559484019460019091019084016125d6565b50858210156126135787850151600019600388901b60f8161c191681555b5050505050600190811b01905550565b600081546126308161236a565b60018281168015612648576001811461265d5761268c565b60ff198416875282151583028701945061268c565b8560005260208060002060005b858110156126835781548a82015290840190820161266a565b50505082870194505b5050505092915050565b6bffffffffffffffffffffffff198460601b16815282601482015260006126c06034830184612623565b95945050505050565b6000611e668284612623565b6000600182016126e7576126e76123f1565b5060010190565b828152604060208201526000612707604083018461246a565b949350505050565b60008261272c57634e487b7160e01b600052601260045260246000fd5b500490565b634e487b7160e01b600052603160045260246000fd5b60608152600060608201526080602082015260006127686080830185611e0d565b82810360408401526126c08185611e0d56fea26469706673582212207815c9b137a7cea39024b2280db8b1f4ce55169092d944794988a4fbc70fe4d464736f6c63430008180033",
  "devdoc": {
    "events": {
      "DisputeRequest(address,uint256,uint256,uint256,string)": {
        "details": "To be emitted when a dispute is created to link the correct meta-evidence to the disputeID.",
        "params": {
          "_arbitrator": "The arbitrator of the contract.",
          "_arbitratorDisputeID": "The identifier of the dispute in the Arbitrator contract.",
          "_externalDisputeID": "An identifier created outside Kleros by the protocol requesting arbitration.",
          "_templateId": "The identifier of the dispute template. Should not be used with _templateUri.",
          "_templateUri": "The URI to the dispute template. For example on IPFS: starting with '/ipfs/'. Should not be used with _templateId."
        }
      },
      "ListSubmitted(uint256,address,uint256,string)": {
        "details": "Emitted when a new list is submitted.",
        "params": {
          "_description": "The string in CSV format that contains labels of list's transactions. Note that the submitter may give bad descriptions of correct actions, but this is to be seen as UI enhancement, not a critical feature and that would play against him in case of dispute.",
          "_listID": "The index of the transaction list in the array of lists.",
          "_session": "The number of the current session.",
          "_submitter": "The address that submitted the list."
        }
      },
      "Ruling(address,uint256,uint256)": {
        "details": "To be raised when a ruling is given.",
        "params": {
          "_arbitrator": "The arbitrator giving the ruling.",
          "_disputeID": "The identifier of the dispute in the Arbitrator contract.",
          "_ruling": "The ruling which was given."
        }
      }
    },
    "kind": "dev",
    "methods": {
      "changeArbitrator(address,bytes)": {
        "details": "Changes the arbitrator of the contract. Note that it can't be changed during approval period because there can be an active dispute in the old arbitrator contract.",
        "params": {
          "_arbitrator": "The new trusted arbitrator.",
          "_arbitratorExtraData": "The extra data used by the new arbitrator."
        }
      },
      "changeDisputeTemplate(string,string)": {
        "details": "Update the dispute template data.",
        "params": {
          "_templateData": "The new dispute template data.",
          "_templateDataMappings": "The new dispute template data mappings."
        }
      },
      "changeExecutionTimeout(uint256)": {
        "details": "Changes the time allocated for list's execution.",
        "params": {
          "_executionTimeout": "The new duration of the execution timeout, in seconds."
        }
      },
      "changeSubmissionDeposit(uint256)": {
        "details": "Changes the value of the base deposit required for submitting a list.",
        "params": {
          "_submissionBaseDeposit": "The new value of the base deposit, in wei."
        }
      },
      "changeSubmissionTimeout(uint256)": {
        "details": "Changes the time allocated for submission. Note that it can't be changed during approval period because there can be an active dispute in the old arbitrator contract and prolonging submission timeout might switch it back to submission period.",
        "params": {
          "_submissionTimeout": "The new duration of the submission period, in seconds."
        }
      },
      "changeWithdrawTimeout(uint256)": {
        "details": "Changes list withdrawal timeout. Note that withdrawals are only possible in the first half of the submission period.",
        "params": {
          "_withdrawTimeout": "The new duration of withdraw period, in seconds."
        }
      },
      "constructor": {
        "details": "Constructor.",
        "params": {
          "_arbitrator": "The arbitrator of the contract.",
          "_arbitratorExtraData": "Extra data for the arbitrator.",
          "_executionTimeout": "Time in seconds after approval that allows to execute transactions of the approved list.",
          "_submissionBaseDeposit": "The base deposit required for submission.",
          "_submissionTimeout": "Time in seconds allocated for submitting transaction list.",
          "_templateData": "The dispute template data.",
          "_templateDataMappings": "The dispute template data mappings.",
          "_templateRegistry": "Dispute Template registry address",
          "_withdrawTimeout": "Time in seconds after submission that allows to withdraw submitted list."
        }
      },
      "executeSubmissions()": {
        "details": "Approves a transaction list or creates a dispute if more than one list was submitted. If nothing was submitted changes session."
      },
      "executeTransactionList(uint256,uint256,uint256)": {
        "details": "Executes selected transactions of the list.",
        "params": {
          "_count": "Number of transactions to execute. Executes until the end if set to \"0\" or number higher than number of transactions in the list.",
          "_cursor": "Index of the transaction from which to start executing.",
          "_listID": "The index of the transaction list in the array of lists."
        }
      },
      "getCurrentSessionNumber()": {
        "details": "Gets the number of the ongoing session.",
        "returns": {
          "_0": "The number of the ongoing session."
        }
      },
      "getExpendableFunds()": {
        "details": "Gets the sum of contract funds that are used for the execution of transactions.",
        "returns": {
          "_0": "Contract balance without reserved ETH."
        }
      },
      "getNumberOfCreatedLists()": {
        "details": "Gets the number of lists created in contract's lifetime.",
        "returns": {
          "_0": "The number of created lists."
        }
      },
      "getNumberOfTransactions(uint256)": {
        "details": "Gets the number of transactions in the list.",
        "params": {
          "_listID": "The index of the transaction list in the array of lists."
        },
        "returns": {
          "txCount": "The number of transactions in the list."
        }
      },
      "getSession(uint256)": {
        "details": "Gets the session from the session index.",
        "returns": {
          "_session": "The session info."
        }
      },
      "getSubmittedLists(uint256)": {
        "details": "Gets the array of submitted lists in the session. Note that this function is O(n), where n is the number of submissions in the session. This could exceed the gas limit, therefore this function should only be used for interface display and not by other contracts.",
        "params": {
          "_session": "The ID of the session."
        },
        "returns": {
          "submittedLists": "Indexes of lists that were submitted during the session."
        }
      },
      "getTransactionInfo(uint256,uint256)": {
        "details": "Gets the info of the specific transaction in the specific list.",
        "params": {
          "_listID": "The index of the transaction list in the array of lists.",
          "_transactionIndex": "The index of the transaction."
        },
        "returns": {
          "data": "The data of the transaction.",
          "executed": "Whether the transaction was executed or not.",
          "target": "The target of the transaction.",
          "value": "The value of the transaction."
        }
      },
      "rule(uint256,uint256)": {
        "details": "Gives a ruling for a dispute. Must be called by the arbitrator.",
        "params": {
          "_disputeID": "ID of the dispute in the Arbitrator contract.",
          "_ruling": "Ruling given by the arbitrator. Note that 0 is reserved for \"Refuse to arbitrate\". Note If the final ruling is \"0\" nothing is approved and deposits will stay locked in the contract."
        }
      },
      "submitList(address[],uint256[],bytes,uint256[],string)": {
        "details": "Creates transaction list based on input parameters and submits it for potential approval and execution.",
        "params": {
          "_data": "Concatenated calldata of all transactions of this list.",
          "_dataSize": "List of lengths in bytes required to split calldata for its respective targets.",
          "_description": "String in CSV format that describes list's transactions.",
          "_target": "List of addresses to call.",
          "_value": "List of values required for respective addresses."
        }
      },
      "withdrawTransactionList(uint256,bytes32)": {
        "details": "Withdraws submitted transaction list. Reimburses submission deposit. Withdrawal is only possible during the first half of the submission period and during withdrawTimeout after the submission is made.",
        "params": {
          "_listHash": "Hash of a withdrawing list.",
          "_submissionID": "Submission's index in the array of submitted lists of the current sesssion."
        }
      }
    },
    "title": "KlerosGovernor for V2. Note that appeal functionality and evidence submission will be handled by the court.",
    "version": 1
  },
  "userdoc": {
    "kind": "user",
    "methods": {},
    "version": 1
  },
  "storageLayout": {
    "storage": [
      {
        "astId": 366,
        "contract": "src/KlerosGovernor.sol:KlerosGovernor",
        "label": "arbitrator",
        "offset": 0,
        "slot": "0",
        "type": "t_contract(IArbitratorV2)134"
      },
      {
        "astId": 368,
        "contract": "src/KlerosGovernor.sol:KlerosGovernor",
        "label": "arbitratorExtraData",
        "offset": 0,
        "slot": "1",
        "type": "t_bytes_storage"
      },
      {
        "astId": 371,
        "contract": "src/KlerosGovernor.sol:KlerosGovernor",
        "label": "templateRegistry",
        "offset": 0,
        "slot": "2",
        "type": "t_contract(IDisputeTemplateRegistry)160"
      },
      {
        "astId": 373,
        "contract": "src/KlerosGovernor.sol:KlerosGovernor",
        "label": "templateId",
        "offset": 0,
        "slot": "3",
        "type": "t_uint256"
      },
      {
        "astId": 375,
        "contract": "src/KlerosGovernor.sol:KlerosGovernor",
        "label": "submissionBaseDeposit",
        "offset": 0,
        "slot": "4",
        "type": "t_uint256"
      },
      {
        "astId": 377,
        "contract": "src/KlerosGovernor.sol:KlerosGovernor",
        "label": "submissionTimeout",
        "offset": 0,
        "slot": "5",
        "type": "t_uint256"
      },
      {
        "astId": 379,
        "contract": "src/KlerosGovernor.sol:KlerosGovernor",
        "label": "executionTimeout",
        "offset": 0,
        "slot": "6",
        "type": "t_uint256"
      },
      {
        "astId": 381,
        "contract": "src/KlerosGovernor.sol:KlerosGovernor",
        "label": "withdrawTimeout",
        "offset": 0,
        "slot": "7",
        "type": "t_uint256"
      },
      {
        "astId": 383,
        "contract": "src/KlerosGovernor.sol:KlerosGovernor",
        "label": "lastApprovalTime",
        "offset": 0,
        "slot": "8",
        "type": "t_uint256"
      },
      {
        "astId": 385,
        "contract": "src/KlerosGovernor.sol:KlerosGovernor",
        "label": "reservedETH",
        "offset": 0,
        "slot": "9",
        "type": "t_uint256"
      },
      {
        "astId": 389,
        "contract": "src/KlerosGovernor.sol:KlerosGovernor",
        "label": "submissions",
        "offset": 0,
        "slot": "10",
        "type": "t_array(t_struct(Submission)363_storage)dyn_storage"
      },
      {
        "astId": 393,
        "contract": "src/KlerosGovernor.sol:KlerosGovernor",
        "label": "sessions",
        "offset": 0,
        "slot": "11",
        "type": "t_array(t_struct(Session)337_storage)dyn_storage"
      },
      {
        "astId": 399,
        "contract": "src/KlerosGovernor.sol:KlerosGovernor",
        "label": "alreadySubmitted",
        "offset": 0,
        "slot": "12",
        "type": "t_mapping(t_uint256,t_mapping(t_bytes32,t_bool))"
      }
    ],
    "types": {
      "t_address": {
        "encoding": "inplace",
        "label": "address",
        "numberOfBytes": "20"
      },
      "t_address_payable": {
        "encoding": "inplace",
        "label": "address payable",
        "numberOfBytes": "20"
      },
      "t_array(t_struct(Session)337_storage)dyn_storage": {
        "base": "t_struct(Session)337_storage",
        "encoding": "dynamic_array",
        "label": "struct KlerosGovernor.Session[]",
        "numberOfBytes": "32"
      },
      "t_array(t_struct(Submission)363_storage)dyn_storage": {
        "base": "t_struct(Submission)363_storage",
        "encoding": "dynamic_array",
        "label": "struct KlerosGovernor.Submission[]",
        "numberOfBytes": "32"
      },
      "t_array(t_struct(Transaction)346_storage)dyn_storage": {
        "base": "t_struct(Transaction)346_storage",
        "encoding": "dynamic_array",
        "label": "struct KlerosGovernor.Transaction[]",
        "numberOfBytes": "32"
      },
      "t_array(t_uint256)dyn_storage": {
        "base": "t_uint256",
        "encoding": "dynamic_array",
        "label": "uint256[]",
        "numberOfBytes": "32"
      },
      "t_bool": {
        "encoding": "inplace",
        "label": "bool",
        "numberOfBytes": "1"
      },
      "t_bytes32": {
        "encoding": "inplace",
        "label": "bytes32",
        "numberOfBytes": "32"
      },
      "t_bytes_storage": {
        "encoding": "bytes",
        "label": "bytes",
        "numberOfBytes": "32"
      },
      "t_contract(IArbitratorV2)134": {
        "encoding": "inplace",
        "label": "contract IArbitratorV2",
        "numberOfBytes": "20"
      },
      "t_contract(IDisputeTemplateRegistry)160": {
        "encoding": "inplace",
        "label": "contract IDisputeTemplateRegistry",
        "numberOfBytes": "20"
      },
      "t_enum(Status)322": {
        "encoding": "inplace",
        "label": "enum KlerosGovernor.Status",
        "numberOfBytes": "1"
      },
      "t_mapping(t_bytes32,t_bool)": {
        "encoding": "mapping",
        "key": "t_bytes32",
        "label": "mapping(bytes32 => bool)",
        "numberOfBytes": "32",
        "value": "t_bool"
      },
      "t_mapping(t_uint256,t_mapping(t_bytes32,t_bool))": {
        "encoding": "mapping",
        "key": "t_uint256",
        "label": "mapping(uint256 => mapping(bytes32 => bool))",
        "numberOfBytes": "32",
        "value": "t_mapping(t_bytes32,t_bool)"
      },
      "t_struct(Session)337_storage": {
        "encoding": "inplace",
        "label": "struct KlerosGovernor.Session",
        "members": [
          {
            "astId": 324,
            "contract": "src/KlerosGovernor.sol:KlerosGovernor",
            "label": "ruling",
            "offset": 0,
            "slot": "0",
            "type": "t_uint256"
          },
          {
            "astId": 326,
            "contract": "src/KlerosGovernor.sol:KlerosGovernor",
            "label": "disputeID",
            "offset": 0,
            "slot": "1",
            "type": "t_uint256"
          },
          {
            "astId": 329,
            "contract": "src/KlerosGovernor.sol:KlerosGovernor",
            "label": "submittedLists",
            "offset": 0,
            "slot": "2",
            "type": "t_array(t_uint256)dyn_storage"
          },
          {
            "astId": 331,
            "contract": "src/KlerosGovernor.sol:KlerosGovernor",
            "label": "sumDeposit",
            "offset": 0,
            "slot": "3",
            "type": "t_uint256"
          },
          {
            "astId": 334,
            "contract": "src/KlerosGovernor.sol:KlerosGovernor",
            "label": "status",
            "offset": 0,
            "slot": "4",
            "type": "t_enum(Status)322"
          },
          {
            "astId": 336,
            "contract": "src/KlerosGovernor.sol:KlerosGovernor",
            "label": "durationOffset",
            "offset": 0,
            "slot": "5",
            "type": "t_uint256"
          }
        ],
        "numberOfBytes": "192"
      },
      "t_struct(Submission)363_storage": {
        "encoding": "inplace",
        "label": "struct KlerosGovernor.Submission",
        "members": [
          {
            "astId": 348,
            "contract": "src/KlerosGovernor.sol:KlerosGovernor",
            "label": "submitter",
            "offset": 0,
            "slot": "0",
            "type": "t_address_payable"
          },
          {
            "astId": 350,
            "contract": "src/KlerosGovernor.sol:KlerosGovernor",
            "label": "deposit",
            "offset": 0,
            "slot": "1",
            "type": "t_uint256"
          },
          {
            "astId": 354,
            "contract": "src/KlerosGovernor.sol:KlerosGovernor",
            "label": "txs",
            "offset": 0,
            "slot": "2",
            "type": "t_array(t_struct(Transaction)346_storage)dyn_storage"
          },
          {
            "astId": 356,
            "contract": "src/KlerosGovernor.sol:KlerosGovernor",
            "label": "listHash",
            "offset": 0,
            "slot": "3",
            "type": "t_bytes32"
          },
          {
            "astId": 358,
            "contract": "src/KlerosGovernor.sol:KlerosGovernor",
            "label": "submissionTime",
            "offset": 0,
            "slot": "4",
            "type": "t_uint256"
          },
          {
            "astId": 360,
            "contract": "src/KlerosGovernor.sol:KlerosGovernor",
            "label": "approved",
            "offset": 0,
            "slot": "5",
            "type": "t_bool"
          },
          {
            "astId": 362,
            "contract": "src/KlerosGovernor.sol:KlerosGovernor",
            "label": "approvalTime",
            "offset": 0,
            "slot": "6",
            "type": "t_uint256"
          }
        ],
        "numberOfBytes": "224"
      },
      "t_struct(Transaction)346_storage": {
        "encoding": "inplace",
        "label": "struct KlerosGovernor.Transaction",
        "members": [
          {
            "astId": 339,
            "contract": "src/KlerosGovernor.sol:KlerosGovernor",
            "label": "target",
            "offset": 0,
            "slot": "0",
            "type": "t_address"
          },
          {
            "astId": 341,
            "contract": "src/KlerosGovernor.sol:KlerosGovernor",
            "label": "value",
            "offset": 0,
            "slot": "1",
            "type": "t_uint256"
          },
          {
            "astId": 343,
            "contract": "src/KlerosGovernor.sol:KlerosGovernor",
            "label": "data",
            "offset": 0,
            "slot": "2",
            "type": "t_bytes_storage"
          },
          {
            "astId": 345,
            "contract": "src/KlerosGovernor.sol:KlerosGovernor",
            "label": "executed",
            "offset": 0,
            "slot": "3",
            "type": "t_bool"
          }
        ],
        "numberOfBytes": "128"
      },
      "t_uint256": {
        "encoding": "inplace",
        "label": "uint256",
        "numberOfBytes": "32"
      }
    }
  }
}