{
  "address": "0xbF6A0f5E62A596E8E96E5782b813543380852aE8",
  "abi": [
    {
      "inputs": [
        {
          "internalType": "contract IArbitratorV2",
          "name": "_arbitrator",
          "type": "address"
        },
        {
          "internalType": "bytes",
          "name": "_arbitratorExtraData",
          "type": "bytes"
        },
        {
          "internalType": "contract IDisputeTemplateRegistry",
          "name": "_templateRegistry",
          "type": "address"
        },
        {
          "internalType": "string",
          "name": "_templateData",
          "type": "string"
        },
        {
          "internalType": "string",
          "name": "_templateDataMappings",
          "type": "string"
        },
        {
          "internalType": "uint256",
          "name": "_submissionBaseDeposit",
          "type": "uint256"
        },
        {
          "internalType": "uint256",
          "name": "_submissionTimeout",
          "type": "uint256"
        },
        {
          "internalType": "uint256",
          "name": "_executionTimeout",
          "type": "uint256"
        },
        {
          "internalType": "uint256",
          "name": "_withdrawTimeout",
          "type": "uint256"
        }
      ],
      "stateMutability": "nonpayable",
      "type": "constructor"
    },
    {
      "anonymous": false,
      "inputs": [
        {
          "indexed": true,
          "internalType": "contract IArbitratorV2",
          "name": "_arbitrator",
          "type": "address"
        },
        {
          "indexed": true,
          "internalType": "uint256",
          "name": "_arbitratorDisputeID",
          "type": "uint256"
        },
        {
          "indexed": false,
          "internalType": "uint256",
          "name": "_externalDisputeID",
          "type": "uint256"
        },
        {
          "indexed": false,
          "internalType": "uint256",
          "name": "_templateId",
          "type": "uint256"
        },
        {
          "indexed": false,
          "internalType": "string",
          "name": "_templateUri",
          "type": "string"
        }
      ],
      "name": "DisputeRequest",
      "type": "event"
    },
    {
      "anonymous": false,
      "inputs": [
        {
          "indexed": true,
          "internalType": "uint256",
          "name": "_listID",
          "type": "uint256"
        },
        {
          "indexed": true,
          "internalType": "address",
          "name": "_submitter",
          "type": "address"
        },
        {
          "indexed": true,
          "internalType": "uint256",
          "name": "_session",
          "type": "uint256"
        },
        {
          "indexed": false,
          "internalType": "string",
          "name": "_description",
          "type": "string"
        }
      ],
      "name": "ListSubmitted",
      "type": "event"
    },
    {
      "anonymous": false,
      "inputs": [
        {
          "indexed": true,
          "internalType": "contract IArbitratorV2",
          "name": "_arbitrator",
          "type": "address"
        },
        {
          "indexed": true,
          "internalType": "uint256",
          "name": "_disputeID",
          "type": "uint256"
        },
        {
          "indexed": false,
          "internalType": "uint256",
          "name": "_ruling",
          "type": "uint256"
        }
      ],
      "name": "Ruling",
      "type": "event"
    },
    {
      "inputs": [],
      "name": "arbitrator",
      "outputs": [
        {
          "internalType": "contract IArbitratorV2",
          "name": "",
          "type": "address"
        }
      ],
      "stateMutability": "view",
      "type": "function"
    },
    {
      "inputs": [],
      "name": "arbitratorExtraData",
      "outputs": [
        {
          "internalType": "bytes",
          "name": "",
          "type": "bytes"
        }
      ],
      "stateMutability": "view",
      "type": "function"
    },
    {
      "inputs": [
        {
          "internalType": "contract IArbitratorV2",
          "name": "_arbitrator",
          "type": "address"
        },
        {
          "internalType": "bytes",
          "name": "_arbitratorExtraData",
          "type": "bytes"
        }
      ],
      "name": "changeArbitrator",
      "outputs": [],
      "stateMutability": "nonpayable",
      "type": "function"
    },
    {
      "inputs": [
        {
          "internalType": "string",
          "name": "_templateData",
          "type": "string"
        },
        {
          "internalType": "string",
          "name": "_templateDataMappings",
          "type": "string"
        }
      ],
      "name": "changeDisputeTemplate",
      "outputs": [],
      "stateMutability": "nonpayable",
      "type": "function"
    },
    {
      "inputs": [
        {
          "internalType": "uint256",
          "name": "_executionTimeout",
          "type": "uint256"
        }
      ],
      "name": "changeExecutionTimeout",
      "outputs": [],
      "stateMutability": "nonpayable",
      "type": "function"
    },
    {
      "inputs": [
        {
          "internalType": "uint256",
          "name": "_submissionBaseDeposit",
          "type": "uint256"
        }
      ],
      "name": "changeSubmissionDeposit",
      "outputs": [],
      "stateMutability": "nonpayable",
      "type": "function"
    },
    {
      "inputs": [
        {
          "internalType": "uint256",
          "name": "_submissionTimeout",
          "type": "uint256"
        }
      ],
      "name": "changeSubmissionTimeout",
      "outputs": [],
      "stateMutability": "nonpayable",
      "type": "function"
    },
    {
      "inputs": [
        {
          "internalType": "uint256",
          "name": "_withdrawTimeout",
          "type": "uint256"
        }
      ],
      "name": "changeWithdrawTimeout",
      "outputs": [],
      "stateMutability": "nonpayable",
      "type": "function"
    },
    {
      "inputs": [],
      "name": "executeSubmissions",
      "outputs": [],
      "stateMutability": "nonpayable",
      "type": "function"
    },
    {
      "inputs": [
        {
          "internalType": "uint256",
          "name": "_listID",
          "type": "uint256"
        },
        {
          "internalType": "uint256",
          "name": "_cursor",
          "type": "uint256"
        },
        {
          "internalType": "uint256",
          "name": "_count",
          "type": "uint256"
        }
      ],
      "name": "executeTransactionList",
      "outputs": [],
      "stateMutability": "nonpayable",
      "type": "function"
    },
    {
      "inputs": [],
      "name": "executionTimeout",
      "outputs": [
        {
          "internalType": "uint256",
          "name": "",
          "type": "uint256"
        }
      ],
      "stateMutability": "view",
      "type": "function"
    },
    {
      "inputs": [],
      "name": "getCurrentSessionNumber",
      "outputs": [
        {
          "internalType": "uint256",
          "name": "",
          "type": "uint256"
        }
      ],
      "stateMutability": "view",
      "type": "function"
    },
    {
      "inputs": [],
      "name": "getExpendableFunds",
      "outputs": [
        {
          "internalType": "uint256",
          "name": "",
          "type": "uint256"
        }
      ],
      "stateMutability": "view",
      "type": "function"
    },
    {
      "inputs": [],
      "name": "getNumberOfCreatedLists",
      "outputs": [
        {
          "internalType": "uint256",
          "name": "",
          "type": "uint256"
        }
      ],
      "stateMutability": "view",
      "type": "function"
    },
    {
      "inputs": [
        {
          "internalType": "uint256",
          "name": "_listID",
          "type": "uint256"
        }
      ],
      "name": "getNumberOfTransactions",
      "outputs": [
        {
          "internalType": "uint256",
          "name": "txCount",
          "type": "uint256"
        }
      ],
      "stateMutability": "view",
      "type": "function"
    },
    {
      "inputs": [
        {
          "internalType": "uint256",
          "name": "_sessionIndex",
          "type": "uint256"
        }
      ],
      "name": "getSession",
      "outputs": [
        {
          "components": [
            {
              "internalType": "uint256",
              "name": "ruling",
              "type": "uint256"
            },
            {
              "internalType": "uint256",
              "name": "disputeID",
              "type": "uint256"
            },
            {
              "internalType": "uint256[]",
              "name": "submittedLists",
              "type": "uint256[]"
            },
            {
              "internalType": "uint256",
              "name": "sumDeposit",
              "type": "uint256"
            },
            {
              "internalType": "enum KlerosGovernor.Status",
              "name": "status",
              "type": "uint8"
            },
            {
              "internalType": "uint256",
              "name": "durationOffset",
              "type": "uint256"
            }
          ],
          "internalType": "struct KlerosGovernor.Session",
          "name": "_session",
          "type": "tuple"
        }
      ],
      "stateMutability": "view",
      "type": "function"
    },
    {
      "inputs": [
        {
          "internalType": "uint256",
          "name": "_session",
          "type": "uint256"
        }
      ],
      "name": "getSubmittedLists",
      "outputs": [
        {
          "internalType": "uint256[]",
          "name": "submittedLists",
          "type": "uint256[]"
        }
      ],
      "stateMutability": "view",
      "type": "function"
    },
    {
      "inputs": [],
      "name": "getTotalSubmissionDeposit",
      "outputs": [
        {
          "internalType": "uint256",
          "name": "_requiredDeposit",
          "type": "uint256"
        }
      ],
      "stateMutability": "view",
      "type": "function"
    },
    {
      "inputs": [
        {
          "internalType": "uint256",
          "name": "_listID",
          "type": "uint256"
        },
        {
          "internalType": "uint256",
          "name": "_transactionIndex",
          "type": "uint256"
        }
      ],
      "name": "getTransactionInfo",
      "outputs": [
        {
          "internalType": "address",
          "name": "target",
          "type": "address"
        },
        {
          "internalType": "uint256",
          "name": "value",
          "type": "uint256"
        },
        {
          "internalType": "bytes",
          "name": "data",
          "type": "bytes"
        },
        {
          "internalType": "bool",
          "name": "executed",
          "type": "bool"
        }
      ],
      "stateMutability": "view",
      "type": "function"
    },
    {
      "inputs": [],
      "name": "lastApprovalTime",
      "outputs": [
        {
          "internalType": "uint256",
          "name": "",
          "type": "uint256"
        }
      ],
      "stateMutability": "view",
      "type": "function"
    },
    {
      "inputs": [],
      "name": "reservedETH",
      "outputs": [
        {
          "internalType": "uint256",
          "name": "",
          "type": "uint256"
        }
      ],
      "stateMutability": "view",
      "type": "function"
    },
    {
      "inputs": [
        {
          "internalType": "uint256",
          "name": "_disputeID",
          "type": "uint256"
        },
        {
          "internalType": "uint256",
          "name": "_ruling",
          "type": "uint256"
        }
      ],
      "name": "rule",
      "outputs": [],
      "stateMutability": "nonpayable",
      "type": "function"
    },
    {
      "inputs": [
        {
          "internalType": "uint256",
          "name": "",
          "type": "uint256"
        }
      ],
      "name": "sessions",
      "outputs": [
        {
          "internalType": "uint256",
          "name": "ruling",
          "type": "uint256"
        },
        {
          "internalType": "uint256",
          "name": "disputeID",
          "type": "uint256"
        },
        {
          "internalType": "uint256",
          "name": "sumDeposit",
          "type": "uint256"
        },
        {
          "internalType": "enum KlerosGovernor.Status",
          "name": "status",
          "type": "uint8"
        },
        {
          "internalType": "uint256",
          "name": "durationOffset",
          "type": "uint256"
        }
      ],
      "stateMutability": "view",
      "type": "function"
    },
    {
      "inputs": [],
      "name": "submissionBaseDeposit",
      "outputs": [
        {
          "internalType": "uint256",
          "name": "",
          "type": "uint256"
        }
      ],
      "stateMutability": "view",
      "type": "function"
    },
    {
      "inputs": [],
      "name": "submissionTimeout",
      "outputs": [
        {
          "internalType": "uint256",
          "name": "",
          "type": "uint256"
        }
      ],
      "stateMutability": "view",
      "type": "function"
    },
    {
      "inputs": [
        {
          "internalType": "uint256",
          "name": "",
          "type": "uint256"
        }
      ],
      "name": "submissions",
      "outputs": [
        {
          "internalType": "address payable",
          "name": "submitter",
          "type": "address"
        },
        {
          "internalType": "uint256",
          "name": "deposit",
          "type": "uint256"
        },
        {
          "internalType": "bytes32",
          "name": "listHash",
          "type": "bytes32"
        },
        {
          "internalType": "uint256",
          "name": "submissionTime",
          "type": "uint256"
        },
        {
          "internalType": "bool",
          "name": "approved",
          "type": "bool"
        },
        {
          "internalType": "uint256",
          "name": "approvalTime",
          "type": "uint256"
        }
      ],
      "stateMutability": "view",
      "type": "function"
    },
    {
      "inputs": [
        {
          "internalType": "address[]",
          "name": "_target",
          "type": "address[]"
        },
        {
          "internalType": "uint256[]",
          "name": "_value",
          "type": "uint256[]"
        },
        {
          "internalType": "bytes",
          "name": "_data",
          "type": "bytes"
        },
        {
          "internalType": "uint256[]",
          "name": "_dataSize",
          "type": "uint256[]"
        },
        {
          "internalType": "string",
          "name": "_description",
          "type": "string"
        }
      ],
      "name": "submitList",
      "outputs": [],
      "stateMutability": "payable",
      "type": "function"
    },
    {
      "inputs": [],
      "name": "templateId",
      "outputs": [
        {
          "internalType": "uint256",
          "name": "",
          "type": "uint256"
        }
      ],
      "stateMutability": "view",
      "type": "function"
    },
    {
      "inputs": [],
      "name": "templateRegistry",
      "outputs": [
        {
          "internalType": "contract IDisputeTemplateRegistry",
          "name": "",
          "type": "address"
        }
      ],
      "stateMutability": "view",
      "type": "function"
    },
    {
      "inputs": [],
      "name": "withdrawTimeout",
      "outputs": [
        {
          "internalType": "uint256",
          "name": "",
          "type": "uint256"
        }
      ],
      "stateMutability": "view",
      "type": "function"
    },
    {
      "inputs": [
        {
          "internalType": "uint256",
          "name": "_submissionID",
          "type": "uint256"
        },
        {
          "internalType": "bytes32",
          "name": "_listHash",
          "type": "bytes32"
        }
      ],
      "name": "withdrawTransactionList",
      "outputs": [],
      "stateMutability": "nonpayable",
      "type": "function"
    },
    {
      "stateMutability": "payable",
      "type": "receive"
    }
  ],
  "transactionHash": "0x897db5448b9d26484d46060410067bc0bb406cfc39aedc200dcf76dbff96e4ca",
  "args": [
    "0xA54e7A16d7460e38a8F324eF46782FB520d58CE8",
    "0x00000000000000000000000000000000000000000000000000000000000000010000000000000000000000000000000000000000000000000000000000000003",
    "0x596D3B09E684D62217682216e9b7a0De75933391",
    "{\n  \"$schema\": \"../NewDisputeTemplate.schema.json\",\n  \"title\": \"Let's do this\",\n  \"description\": \"We want to do this: %s\",\n  \"question\": \"Does it comply with the policy?\",\n  \"answers\": [\n    {\n      \"title\": \"Yes\",\n      \"description\": \"Select this if you agree that it must be done.\"\n    },\n    {\n      \"title\": \"No\",\n      \"description\": \"Select this if you do not agree that it must be done.\"\n    }\n  ],\n  \"policyURI\": \"/ipfs/Qmdvk...rSD6cE/policy.pdf\",\n  \"frontendUrl\": \"https://kleros-v2.netlify.app/#/cases/%s/overview\",\n  \"arbitratorChainID\": \"421614\",\n  \"arbitratorAddress\": \"0xD08Ab99480d02bf9C092828043f611BcDFEA917b\",\n  \"category\": \"Others\",\n  \"specification\": \"KIP001\",\n  \"lang\": \"en_US\"\n}\n",
    "",
    0,
    600,
    600,
    600
  ],
  "numDeployments": 5,
  "solcInputHash": "d8ec1d19a9fc6585332440e89116a840",
  "bytecode": "0x60806040523480156200001157600080fd5b5060405162002d2c38038062002d2c833981016040819052620000349162000208565b600080546001600160a01b0319166001600160a01b038b1617905560016200005d898262000378565b50426008556004848155600584905560068390556007829055600b80546001018155600052600280546001600160a01b0319166001600160a01b038a169081179091556040516312a6505d60e21b81529091634a99417491620000c5918a918a910162000472565b6020604051808303816000875af1158015620000e5573d6000803e3d6000fd5b505050506040513d601f19601f820116820180604052508101906200010b9190620004b2565b60035550620004cc975050505050505050565b80516001600160a01b03811681146200013657600080fd5b919050565b634e487b7160e01b600052604160045260246000fd5b60005b838110156200016e57818101518382015260200162000154565b50506000910152565b600082601f8301126200018957600080fd5b81516001600160401b0380821115620001a657620001a66200013b565b604051601f8301601f19908116603f01168101908282118183101715620001d157620001d16200013b565b81604052838152866020858801011115620001eb57600080fd5b620001fe84602083016020890162000151565b9695505050505050565b60008060008060008060008060006101208a8c0312156200022857600080fd5b620002338a6200011e565b60208b01519099506001600160401b03808211156200025157600080fd5b6200025f8d838e0162000177565b99506200026f60408d016200011e565b985060608c01519150808211156200028657600080fd5b620002948d838e0162000177565b975060808c0151915080821115620002ab57600080fd5b50620002ba8c828d0162000177565b95505060a08a0151935060c08a0151925060e08a015191506101008a015190509295985092959850929598565b600181811c90821680620002fc57607f821691505b6020821081036200031d57634e487b7160e01b600052602260045260246000fd5b50919050565b601f82111562000373576000816000526020600020601f850160051c810160208610156200034e5750805b601f850160051c820191505b818110156200036f578281556001016200035a565b5050505b505050565b81516001600160401b038111156200039457620003946200013b565b620003ac81620003a58454620002e7565b8462000323565b602080601f831160018114620003e45760008415620003cb5750858301515b600019600386901b1c1916600185901b1785556200036f565b600085815260208120601f198616915b828110156200041557888601518255948401946001909101908401620003f4565b5085821015620004345787850151600019600388901b60f8161c191681555b5050505050600190811b01905550565b600081518084526200045e81602086016020860162000151565b601f01601f19169290920160200192915050565b606081526000606082015260806020820152600062000495608083018562000444565b8281036040840152620004a9818562000444565b95945050505050565b600060208284031215620004c557600080fd5b5051919050565b61285080620004dc6000396000f3fe60806040526004361061019c5760003560e01c80639244c704116100e2578063b6dc775411610085578063b6dc7754146104ce578063ba7079ca146104e3578063bb0b86ff14610503578063c4bd851914610519578063c5d552881461052f578063cc2bcdb41461054f578063dc17bbdb1461056f578063f730c07f1461058f57600080fd5b80639244c704146103a5578063953d6651146103ba5780639c15d1a2146103da578063a0af81f0146103f0578063a3c595c914610410578063ad73349e14610440578063b512570014610499578063b6cd08c6146104ae57600080fd5b8063402ff0db1161014a578063402ff0db1461029b57806346047838146102c85780636c0b7e71146102db5780636cc6cde1146102f05780636cf39c2b1461032857806377b9fda8146103485780637aa77f291461035e57806383c4b7a31461037457600080fd5b80630c7ac7b6146101a85780631b1f5e7b146101d357806321cea538146101f657806322b52d6614610223578063246c76df1461023957806324baacc71461025b578063311a6c561461027b57600080fd5b366101a357005b600080fd5b3480156101b457600080fd5b506101bd6105a5565b6040516101ca9190611ef3565b60405180910390f35b3480156101df57600080fd5b506101e8610633565b6040519081526020016101ca565b34801561020257600080fd5b50610216610211366004611f0d565b6106b8565b6040516101ca9190611f62565b34801561022f57600080fd5b506101e860065481565b34801561024557600080fd5b50610259610254366004611f0d565b61073a565b005b34801561026757600080fd5b50610259610276366004611f0d565b610767565b34801561028757600080fd5b50610259610296366004611f75565b61078b565b3480156102a757600080fd5b506102bb6102b6366004611f0d565b6109d6565b6040516101ca9190611fcf565b6102596102d63660046121f9565b610ac4565b3480156102e757600080fd5b506101e861111b565b3480156102fc57600080fd5b50600054610310906001600160a01b031681565b6040516001600160a01b0390911681526020016101ca565b34801561033457600080fd5b506102596103433660046122ca565b61112d565b34801561035457600080fd5b506101e860095481565b34801561036a57600080fd5b506101e860035481565b34801561038057600080fd5b5061039461038f366004611f0d565b611368565b6040516101ca9594939291906122f6565b3480156103b157600080fd5b506102596113af565b3480156103c657600080fd5b506102596103d5366004611f0d565b6117a7565b3480156103e657600080fd5b506101e860075481565b3480156103fc57600080fd5b50600254610310906001600160a01b031681565b34801561041c57600080fd5b5061043061042b366004611f75565b61183d565b6040516101ca9493929190612328565b34801561044c57600080fd5b5061046061045b366004611f0d565b611957565b604080516001600160a01b03909716875260208701959095529385019290925260608401521515608083015260a082015260c0016101ca565b3480156104a557600080fd5b506101e86119ad565b3480156104ba57600080fd5b506102596104c9366004611f75565b6119bd565b3480156104da57600080fd5b50600a546101e8565b3480156104ef57600080fd5b506102596104fe366004612362565b611cb9565b34801561050f57600080fd5b506101e860045481565b34801561052557600080fd5b506101e860055481565b34801561053b57600080fd5b5061025961054a3660046123b1565b611d76565b34801561055b57600080fd5b5061025961056a366004611f0d565b611e11565b34801561057b57600080fd5b506101e861058a366004611f0d565b611e35565b34801561059b57600080fd5b506101e860085481565b600180546105b29061240a565b80601f01602080910402602001604051908101604052809291908181526020018280546105de9061240a565b801561062b5780601f106106005761010080835404028352916020019161062b565b820191906000526020600020905b81548152906001019060200180831161060e57829003601f168201915b505050505081565b6000805460405163f7434ea960e01b81526001600160a01b039091169063f7434ea990610665906001906004016124c1565b602060405180830381865afa158015610682573d6000803e3d6000fd5b505050506040513d601f19601f820116820180604052508101906106a691906124d4565b6004546106b39190612503565b905090565b60606000600b83815481106106cf576106cf61251c565b906000526020600020906006020190508060020180548060200260200160405190810160405280929190818152602001828054801561072d57602002820191906000526020600020905b815481526020019060010190808311610719575b5050505050915050919050565b3033146107625760405162461bcd60e51b815260040161075990612532565b60405180910390fd5b600755565b3033146107865760405162461bcd60e51b815260040161075990612532565b600455565b600b80546000919061079f90600190612569565b815481106107af576107af61251c565b600091825260208220915460069190910290910191506001600160a01b031633146108165760405162461bcd60e51b815260206004820152601760248201527613db9b1e48185c989a5d1c985d1bdc88185b1b1bddd959604a1b6044820152606401610759565b6001600482015460ff16600281111561083157610831611f97565b1461086d5760405162461bcd60e51b815260206004820152600c60248201526b57726f6e672073746174757360a01b6044820152606401610759565b60028101548211156108bc5760405162461bcd60e51b8152602060048201526018602482015277293ab634b7339034b99037baba1037b3103137bab732399760411b6044820152606401610759565b8115610954576000600a600283016108d5600186612569565b815481106108e5576108e561251c565b9060005260206000200154815481106109005761090061251c565b6000918252602082206005600790920201908101805460ff19166001179055426006820155805460038501546040519294506001600160a01b039091169281156108fc029290818181858888f15050505050505b80600301546009600082825461096a9190612569565b90915550506000600382018190554260085560048201805460ff19166002179055828255600b805460010181559052604051828152839033907f394027a5fa6e098a1191094d1719d6929b9abc535fcc0c8f448d6a4e75622276906020015b60405180910390a3505050565b6109de611e66565b600b82815481106109f1576109f161251c565b90600052602060002090600602016040518060c0016040529081600082015481526020016001820154815260200160028201805480602002602001604051908101604052809291908181526020018280548015610a6d57602002820191906000526020600020905b815481526020019060010190808311610a59575b505050918352505060038201546020820152600482015460409091019060ff166002811115610a9e57610a9e611f97565b6002811115610aaf57610aaf611f97565b81526020016005820154815250509050919050565b600b805460009190610ad890600190612569565b81548110610ae857610ae861251c565b906000526020600020906006020160050154905080600554610b0a9190612503565b600854610b179042612569565b1115610b355760405162461bcd60e51b81526004016107599061257c565b8451865114610b865760405162461bcd60e51b815260206004820152601d60248201527f57726f6e6720696e7075743a2074617267657420616e642076616c75650000006044820152606401610759565b8251865114610bd75760405162461bcd60e51b815260206004820181905260248201527f57726f6e6720696e7075743a2074617267657420616e64206461746173697a656044820152606401610759565b600b805460009190610beb90600190612569565b81548110610bfb57610bfb61251c565b600091825260208220600a8054600181810183559185526007027fc65a7bb8d6351c1cf70c95a316cc6a92839c986682d98bc35f958f4883f9d2a80180546001600160a01b03191633178155935460405163f7434ea960e01b8152600690940290920194506001600160a01b03919091169163f7434ea991610c7f916004016124c1565b602060405180830381865afa158015610c9c573d6000803e3d6000fd5b505050506040513d601f19601f82011682018060405250810190610cc091906124d4565b600454610ccd9190612503565b60018201819055341015610d235760405162461bcd60e51b815260206004820152601f60248201527f4e6f7420656e6f7567682045544820746f20636f766572206465706f736974006044820152606401610759565b60008080805b8b51811015610f2f576000898281518110610d4657610d4661251c565b60200260200101516001600160401b03811115610d6557610d65612032565b6040519080825280601f01601f191660200182016040528015610d8f576020820181803683370190505b50600287018054600181018255600091825260209091208f51929350600490910201908e9084908110610dc457610dc461251c565b602090810291909101015181546001600160a01b0319166001600160a01b039091161781558c518d9084908110610dfd57610dfd61251c565b6020026020010151816001018190555060005b8b8481518110610e2257610e2261251c565b6020026020010151811015610e88578c610e3c8287612503565b81518110610e4c57610e4c61251c565b602001015160f81c60f81b838281518110610e6957610e6961251c565b60200101906001600160f81b031916908160001a905350600101610e10565b5060028101610e978382612604565b508a8381518110610eaa57610eaa61251c565b602002602001015184610ebd9190612503565b81546001830154604051929650610ee7926001600160a01b03909216916002850190602001612736565b60408051601f19818403018152828252805160209182012081840181905283830199909952815180840383018152606090930190915281519101209594505050600101610d29565b50600b54600c90600090610f4590600190612569565b81526020808201929092526040908101600090812086825290925290205460ff1615610fac5760405162461bcd60e51b8152602060048201526016602482015275131a5cdd08185b1c9958591e481cdd589b5a5d1d195960521b6044820152606401610759565b6001600c60006001600b80549050610fc49190612569565b8152602080820192909252604090810160009081208782529092528120805460ff19169215159290921790915560038581018590554260048701556001860154908701805491929091611018908490612503565b9091555050600a54600286019061103190600190612569565b815460018181018455600093845260209093200155600286015490036110645760085461105e9042612569565b60058601555b600b5461107390600190612569565b600a54339061108490600190612569565b7f1a700b4f7df255aaf8c91c8b05abf0eab596e467dc17ef76fe4afc12541012488a6040516110b39190611ef3565b60405180910390a460008460010154346110cd9190612569565b905080156110f257604051339082156108fc029083906000818181858888f150505050505b8460010154600960008282546111089190612503565b9091555050505050505050505050505050565b600b546000906106b390600190612569565b6000600a84815481106111425761114261251c565b60009182526020909120600790910201600581015490915060ff1661119e5760405162461bcd60e51b815260206004820152601260248201527114da1bdd5b1908189948185c1c1c9bdd995960721b6044820152606401610759565b6006548160060154426111b19190612569565b11156111ff5760405162461bcd60e51b815260206004820152601a60248201527f54696d6520746f206578656375746520686173207061737365640000000000006044820152606401610759565b825b600282015481108015611224575082158061122457506112218385612503565b81105b156113615760008260020182815481106112405761124061251c565b90600052602060002090600402019050600061125a6119ad565b600383015490915060ff16158015611276575080826001015411155b1561134c57815460018301546040516000926001600160a01b031691906112a1906002870190612769565b60006040518083038185875af1925050503d80600081146112de576040519150601f19603f3d011682016040523d82523d6000602084013e6112e3565b606091505b509091505080151560010361134a57600383015460ff161561133a5760405162461bcd60e51b815260206004820152601060248201526f105b1c9958591e48195e1958dd5d195960821b6044820152606401610759565b60038301805460ff191660011790555b505b5050808061135990612775565b915050611201565b5050505050565b600b818154811061137857600080fd5b6000918252602090912060069091020180546001820154600383015460048401546005909401549294509092909160ff9091169085565b600b8054600091906113c390600190612569565b815481106113d3576113d361251c565b9060005260206000209060060201600501549050806005546113f59190612503565b6008546114029042612569565b1161144f5760405162461bcd60e51b815260206004820152601e60248201527f417070726f76616c2074696d65206e6f742073746172746564207965742e00006044820152606401610759565b600b80546000919061146390600190612569565b815481106114735761147361251c565b6000918252602082206006909102019150600482015460ff16600281111561149d5761149d611f97565b146114dd5760405162461bcd60e51b815260206004820152601060248201526f105b1c9958591e48191a5cdc1d5d195960821b6044820152606401610759565b600281015460000361150a5742600855600401805460ff1916600217905550600b80546001018155600052565b60028101546001036115e6576000600a826002016000815481106115305761153061251c565b90600052602060002001548154811061154b5761154b61251c565b6000918252602082206005600790920201908101805460ff1916600117905542600682015560038401805490839055815460405192945090926001600160a01b039091169183156108fc0291849190818181858888f150504260085550505060048301805460ff19166002179055600b805460010181556000908152600980548392906115d9908490612569565b909155506117a392505050565b6004818101805460ff191660019081179091556000805460405163f7434ea960e01b815291936001600160a01b039091169263f7434ea99261162892016124c1565b602060405180830381865afa158015611645573d6000803e3d6000fd5b505050506040513d601f19601f8201168201806040525081019061166991906124d4565b600054600284015460405163c13517e160e01b81529293506001600160a01b039091169163c13517e19184916116a5919060019060040161278e565b60206040518083038185885af11580156116c3573d6000803e3d6000fd5b50505050506040513d601f19601f820116820180604052508101906116e891906124d4565b6001830155600382015481106116ff57600061170f565b80826003015461170f9190612569565b60038301556009548110611724576000611732565b806009546117329190612569565b600955600180830154600054600b5491926001600160a01b03909116917f8bd32f430ff060e6bd204709b3790c9807987263d3230c580dc80b5f89e271869161177a91612569565b6003546040516109c9929190918252602082015260606040820181905260009082015260800190565b5050565b3033146117c65760405162461bcd60e51b815260040161075990612532565b600b8054600091906117da90600190612569565b815481106117ea576117ea61251c565b90600052602060002090600602016005015490508060055461180c9190612503565b6008546118199042612569565b11156118375760405162461bcd60e51b81526004016107599061257c565b50600555565b6000806060600080600a87815481106118585761185861251c565b90600052602060002090600702019050600081600201878154811061187f5761187f61251c565b600091825260209091206004909102018054600182015460038301546002840180549495506001600160a01b039093169391929160ff9091169082906118c49061240a565b80601f01602080910402602001604051908101604052809291908181526020018280546118f09061240a565b801561193d5780601f106119125761010080835404028352916020019161193d565b820191906000526020600020905b81548152906001019060200180831161192057829003601f168201915b505050505091509550955095509550505092959194509250565b600a818154811061196757600080fd5b60009182526020909120600790910201805460018201546003830154600484015460058501546006909501546001600160a01b0390941695509193909260ff9091169086565b6000600954476106b39190612569565b600b8054600091906119d190600190612569565b815481106119e1576119e161251c565b906000526020600020906006020190506000600a826002018581548110611a0a57611a0a61251c565b906000526020600020015481548110611a2557611a2561251c565b906000526020600020906007020190506002600554611a4491906127af565b600854611a519042612569565b1115611a995760405162461bcd60e51b815260206004820152601760248201527629b437bab6321031329034b7103334b939ba103430b63360491b6044820152606401610759565b82816003015414611ade5760405162461bcd60e51b815260206004820152600f60248201526e0aee4dedcce40d8d2e6e840d0c2e6d608b1b6044820152606401610759565b80546001600160a01b03163314611b375760405162461bcd60e51b815260206004820152601b60248201527f4f6e6c79207375626d69747465722063616e20776974686472617700000000006044820152606401610759565b6007546004820154611b499042612569565b1115611b975760405162461bcd60e51b815260206004820152601c60248201527f5769746864726177696e672074696d6520686173207061737365642e000000006044820152606401610759565b600282018054611ba990600190612569565b81548110611bb957611bb961251c565b9060005260206000200154826002018581548110611bd957611bd961251c565b6000918252602082200191909155600b54600c908290611bfb90600190612569565b8152602080820192909252604090810160009081208782529092529020805460ff191691151591909117905560028201805480611c3a57611c3a6127d1565b600190038181906000526020600020016000905590558060010154826003016000828254611c689190612569565b9091555050600181015460098054600090611c84908490612569565b90915550506001810154604051339180156108fc02916000818181858888f19350505050158015611361573d6000803e3d6000fd5b303314611cd85760405162461bcd60e51b815260040161075990612532565b600b805460009190611cec90600190612569565b81548110611cfc57611cfc61251c565b906000526020600020906006020160050154905080600554611d1e9190612503565b600854611d2b9042612569565b1115611d495760405162461bcd60e51b81526004016107599061257c565b600080546001600160a01b0319166001600160a01b0385161790556001611d708382612604565b50505050565b303314611d955760405162461bcd60e51b815260040161075990612532565b6002546040516312a6505d60e21b81526001600160a01b0390911690634a99417490611dc790859085906004016127e7565b6020604051808303816000875af1158015611de6573d6000803e3d6000fd5b505050506040513d601f19601f82011682018060405250810190611e0a91906124d4565b6003555050565b303314611e305760405162461bcd60e51b815260040161075990612532565b600655565b600080600a8381548110611e4b57611e4b61251c565b60009182526020909120600260079092020101549392505050565b6040518060c001604052806000815260200160008152602001606081526020016000815260200160006002811115611ea057611ea0611f97565b8152602001600081525090565b6000815180845260005b81811015611ed357602081850181015186830182015201611eb7565b506000602082860101526020601f19601f83011685010191505092915050565b602081526000611f066020830184611ead565b9392505050565b600060208284031215611f1f57600080fd5b5035919050565b60008151808452602080850194506020840160005b83811015611f5757815187529582019590820190600101611f3b565b509495945050505050565b602081526000611f066020830184611f26565b60008060408385031215611f8857600080fd5b50508035926020909101359150565b634e487b7160e01b600052602160045260246000fd5b60038110611fcb57634e487b7160e01b600052602160045260246000fd5b9052565b6020815281516020820152602082015160408201526000604083015160c06060840152611fff60e0840182611f26565b905060608401516080840152608084015161201d60a0850182611fad565b5060a084015160c08401528091505092915050565b634e487b7160e01b600052604160045260246000fd5b604051601f8201601f191681016001600160401b038111828210171561207057612070612032565b604052919050565b60006001600160401b0382111561209157612091612032565b5060051b60200190565b6001600160a01b03811681146120b057600080fd5b50565b600082601f8301126120c457600080fd5b813560206120d96120d483612078565b612048565b8083825260208201915060208460051b8701019350868411156120fb57600080fd5b602086015b848110156121205780356121138161209b565b8352918301918301612100565b509695505050505050565b600082601f83011261213c57600080fd5b8135602061214c6120d483612078565b8083825260208201915060208460051b87010193508684111561216e57600080fd5b602086015b848110156121205780358352918301918301612173565b600082601f83011261219b57600080fd5b81356001600160401b038111156121b4576121b4612032565b6121c7601f8201601f1916602001612048565b8181528460208386010111156121dc57600080fd5b816020850160208301376000918101602001919091529392505050565b600080600080600060a0868803121561221157600080fd5b85356001600160401b038082111561222857600080fd5b61223489838a016120b3565b9650602088013591508082111561224a57600080fd5b61225689838a0161212b565b9550604088013591508082111561226c57600080fd5b61227889838a0161218a565b9450606088013591508082111561228e57600080fd5b61229a89838a0161212b565b935060808801359150808211156122b057600080fd5b506122bd8882890161218a565b9150509295509295909350565b6000806000606084860312156122df57600080fd5b505081359360208301359350604090920135919050565b858152602081018590526040810184905260a081016123186060830185611fad565b8260808301529695505050505050565b60018060a01b038516815283602082015260806040820152600061234f6080830185611ead565b9050821515606083015295945050505050565b6000806040838503121561237557600080fd5b82356123808161209b565b915060208301356001600160401b0381111561239b57600080fd5b6123a78582860161218a565b9150509250929050565b600080604083850312156123c457600080fd5b82356001600160401b03808211156123db57600080fd5b6123e78683870161218a565b935060208501359150808211156123fd57600080fd5b506123a78582860161218a565b600181811c9082168061241e57607f821691505b60208210810361243e57634e487b7160e01b600052602260045260246000fd5b50919050565b600081546124518161240a565b80855260206001838116801561246e5760018114612488576124b6565b60ff1985168884015283151560051b8801830195506124b6565b866000528260002060005b858110156124ae5781548a8201860152908301908401612493565b890184019650505b505050505092915050565b602081526000611f066020830184612444565b6000602082840312156124e657600080fd5b5051919050565b634e487b7160e01b600052601160045260246000fd5b80820180821115612516576125166124ed565b92915050565b634e487b7160e01b600052603260045260246000fd5b6020808252601a908201527f4f6e6c792074686520676f7665726e6f7220616c6c6f7765642e000000000000604082015260600190565b81810381811115612516576125166124ed565b6020808252601a908201527f5375626d697373696f6e2074696d652068617320656e6465642e000000000000604082015260600190565b601f8211156125ff576000816000526020600020601f850160051c810160208610156125dc5750805b601f850160051c820191505b818110156125fb578281556001016125e8565b5050505b505050565b81516001600160401b0381111561261d5761261d612032565b6126318161262b845461240a565b846125b3565b602080601f831160018114612666576000841561264e5750858301515b600019600386901b1c1916600185901b1785556125fb565b600085815260208120601f198616915b8281101561269557888601518255948401946001909101908401612676565b50858210156126b35787850151600019600388901b60f8161c191681555b5050505050600190811b01905550565b600081546126d08161240a565b600182811680156126e857600181146126fd5761272c565b60ff198416875282151583028701945061272c565b8560005260208060002060005b858110156127235781548a82015290840190820161270a565b50505082870194505b5050505092915050565b6bffffffffffffffffffffffff198460601b168152826014820152600061276060348301846126c3565b95945050505050565b6000611f0682846126c3565b600060018201612787576127876124ed565b5060010190565b8281526040602082015260006127a76040830184612444565b949350505050565b6000826127cc57634e487b7160e01b600052601260045260246000fd5b500490565b634e487b7160e01b600052603160045260246000fd5b60608152600060608201526080602082015260006128086080830185611ead565b82810360408401526127608185611ead56fea2646970667358221220cd3dee3578cf099f1cefeb5a85951ba07fbe8dc3f40403e5d72c5fbe9a91ac7c64736f6c63430008180033",
  "devdoc": {
    "events": {
      "DisputeRequest(address,uint256,uint256,uint256,string)": {
        "details": "To be emitted when a dispute is created to link the correct meta-evidence to the disputeID.",
        "params": {
          "_arbitrator": "The arbitrator of the contract.",
          "_arbitratorDisputeID": "The identifier of the dispute in the Arbitrator contract.",
          "_externalDisputeID": "An identifier created outside Kleros by the protocol requesting arbitration.",
          "_templateId": "The identifier of the dispute template. Should not be used with _templateUri.",
          "_templateUri": "The URI to the dispute template. For example on IPFS: starting with '/ipfs/'. Should not be used with _templateId."
        }
      },
      "ListSubmitted(uint256,address,uint256,string)": {
        "details": "Emitted when a new list is submitted.",
        "params": {
          "_description": "The string in CSV format that contains labels of list's transactions. Note that the submitter may give bad descriptions of correct actions, but this is to be seen as UI enhancement, not a critical feature and that would play against him in case of dispute.",
          "_listID": "The index of the transaction list in the array of lists.",
          "_session": "The number of the current session.",
          "_submitter": "The address that submitted the list."
        }
      },
      "Ruling(address,uint256,uint256)": {
        "details": "To be raised when a ruling is given.",
        "params": {
          "_arbitrator": "The arbitrator giving the ruling.",
          "_disputeID": "The identifier of the dispute in the Arbitrator contract.",
          "_ruling": "The ruling which was given."
        }
      }
    },
    "kind": "dev",
    "methods": {
      "changeArbitrator(address,bytes)": {
        "details": "Changes the arbitrator of the contract. Note that it can't be changed during approval period because there can be an active dispute in the old arbitrator contract.",
        "params": {
          "_arbitrator": "The new trusted arbitrator.",
          "_arbitratorExtraData": "The extra data used by the new arbitrator."
        }
      },
      "changeDisputeTemplate(string,string)": {
        "details": "Update the dispute template data.",
        "params": {
          "_templateData": "The new dispute template data.",
          "_templateDataMappings": "The new dispute template data mappings."
        }
      },
      "changeExecutionTimeout(uint256)": {
        "details": "Changes the time allocated for list's execution.",
        "params": {
          "_executionTimeout": "The new duration of the execution timeout, in seconds."
        }
      },
      "changeSubmissionDeposit(uint256)": {
        "details": "Changes the value of the base deposit required for submitting a list.",
        "params": {
          "_submissionBaseDeposit": "The new value of the base deposit, in wei."
        }
      },
      "changeSubmissionTimeout(uint256)": {
        "details": "Changes the time allocated for submission. Note that it can't be changed during approval period because there can be an active dispute in the old arbitrator contract and prolonging submission timeout might switch it back to submission period.",
        "params": {
          "_submissionTimeout": "The new duration of the submission period, in seconds."
        }
      },
      "changeWithdrawTimeout(uint256)": {
        "details": "Changes list withdrawal timeout. Note that withdrawals are only possible in the first half of the submission period.",
        "params": {
          "_withdrawTimeout": "The new duration of withdraw period, in seconds."
        }
      },
      "constructor": {
        "details": "Constructor.",
        "params": {
          "_arbitrator": "The arbitrator of the contract.",
          "_arbitratorExtraData": "Extra data for the arbitrator.",
          "_executionTimeout": "Time in seconds after approval that allows to execute transactions of the approved list.",
          "_submissionBaseDeposit": "The base deposit required for submission.",
          "_submissionTimeout": "Time in seconds allocated for submitting transaction list.",
          "_templateData": "The dispute template data.",
          "_templateDataMappings": "The dispute template data mappings.",
          "_templateRegistry": "Dispute Template registry address",
          "_withdrawTimeout": "Time in seconds after submission that allows to withdraw submitted list."
        }
      },
      "executeSubmissions()": {
        "details": "Approves a transaction list or creates a dispute if more than one list was submitted. If nothing was submitted changes session."
      },
      "executeTransactionList(uint256,uint256,uint256)": {
        "details": "Executes selected transactions of the list.",
        "params": {
          "_count": "Number of transactions to execute. Executes until the end if set to \"0\" or number higher than number of transactions in the list.",
          "_cursor": "Index of the transaction from which to start executing.",
          "_listID": "The index of the transaction list in the array of lists."
        }
      },
      "getCurrentSessionNumber()": {
        "details": "Gets the number of the ongoing session.",
        "returns": {
          "_0": "The number of the ongoing session."
        }
      },
      "getExpendableFunds()": {
        "details": "Gets the sum of contract funds that are used for the execution of transactions.",
        "returns": {
          "_0": "Contract balance without reserved ETH."
        }
      },
      "getNumberOfCreatedLists()": {
        "details": "Gets the number of lists created in contract's lifetime.",
        "returns": {
          "_0": "The number of created lists."
        }
      },
      "getNumberOfTransactions(uint256)": {
        "details": "Gets the number of transactions in the list.",
        "params": {
          "_listID": "The index of the transaction list in the array of lists."
        },
        "returns": {
          "txCount": "The number of transactions in the list."
        }
      },
      "getSession(uint256)": {
        "details": "Gets the session from the session index.",
        "returns": {
          "_session": "The session info."
        }
      },
      "getSubmittedLists(uint256)": {
        "details": "Gets the array of submitted lists in the session. Note that this function is O(n), where n is the number of submissions in the session. This could exceed the gas limit, therefore this function should only be used for interface display and not by other contracts.",
        "params": {
          "_session": "The ID of the session."
        },
        "returns": {
          "submittedLists": "Indexes of lists that were submitted during the session."
        }
      },
      "getTotalSubmissionDeposit()": {
        "details": "Gets the total deposit required to submit a list. (submissionBaseDeposit + arbitrationCost).",
        "returns": {
          "_requiredDeposit": "required deposit value"
        }
      },
      "getTransactionInfo(uint256,uint256)": {
        "details": "Gets the info of the specific transaction in the specific list.",
        "params": {
          "_listID": "The index of the transaction list in the array of lists.",
          "_transactionIndex": "The index of the transaction."
        },
        "returns": {
          "data": "The data of the transaction.",
          "executed": "Whether the transaction was executed or not.",
          "target": "The target of the transaction.",
          "value": "The value of the transaction."
        }
      },
      "rule(uint256,uint256)": {
        "details": "Gives a ruling for a dispute. Must be called by the arbitrator.",
        "params": {
          "_disputeID": "ID of the dispute in the Arbitrator contract.",
          "_ruling": "Ruling given by the arbitrator. Note that 0 is reserved for \"Refuse to arbitrate\". Note If the final ruling is \"0\" nothing is approved and deposits will stay locked in the contract."
        }
      },
      "submitList(address[],uint256[],bytes,uint256[],string)": {
        "details": "Creates transaction list based on input parameters and submits it for potential approval and execution.",
        "params": {
          "_data": "Concatenated calldata of all transactions of this list.",
          "_dataSize": "List of lengths in bytes required to split calldata for its respective targets.",
          "_description": "String in CSV format that describes list's transactions.",
          "_target": "List of addresses to call.",
          "_value": "List of values required for respective addresses."
        }
      },
      "withdrawTransactionList(uint256,bytes32)": {
        "details": "Withdraws submitted transaction list. Reimburses submission deposit. Withdrawal is only possible during the first half of the submission period and during withdrawTimeout after the submission is made.",
        "params": {
          "_listHash": "Hash of a withdrawing list.",
          "_submissionID": "Submission's index in the array of submitted lists of the current sesssion."
        }
      }
    },
    "title": "KlerosGovernor for V2. Note that appeal functionality and evidence submission will be handled by the court.",
    "version": 1
  },
  "userdoc": {
    "kind": "user",
    "methods": {},
    "version": 1
  },
  "storageLayout": {
    "storage": [
      {
        "astId": 366,
        "contract": "src/KlerosGovernor.sol:KlerosGovernor",
        "label": "arbitrator",
        "offset": 0,
        "slot": "0",
        "type": "t_contract(IArbitratorV2)134"
      },
      {
        "astId": 368,
        "contract": "src/KlerosGovernor.sol:KlerosGovernor",
        "label": "arbitratorExtraData",
        "offset": 0,
        "slot": "1",
        "type": "t_bytes_storage"
      },
      {
        "astId": 371,
        "contract": "src/KlerosGovernor.sol:KlerosGovernor",
        "label": "templateRegistry",
        "offset": 0,
        "slot": "2",
        "type": "t_contract(IDisputeTemplateRegistry)160"
      },
      {
        "astId": 373,
        "contract": "src/KlerosGovernor.sol:KlerosGovernor",
        "label": "templateId",
        "offset": 0,
        "slot": "3",
        "type": "t_uint256"
      },
      {
        "astId": 375,
        "contract": "src/KlerosGovernor.sol:KlerosGovernor",
        "label": "submissionBaseDeposit",
        "offset": 0,
        "slot": "4",
        "type": "t_uint256"
      },
      {
        "astId": 377,
        "contract": "src/KlerosGovernor.sol:KlerosGovernor",
        "label": "submissionTimeout",
        "offset": 0,
        "slot": "5",
        "type": "t_uint256"
      },
      {
        "astId": 379,
        "contract": "src/KlerosGovernor.sol:KlerosGovernor",
        "label": "executionTimeout",
        "offset": 0,
        "slot": "6",
        "type": "t_uint256"
      },
      {
        "astId": 381,
        "contract": "src/KlerosGovernor.sol:KlerosGovernor",
        "label": "withdrawTimeout",
        "offset": 0,
        "slot": "7",
        "type": "t_uint256"
      },
      {
        "astId": 383,
        "contract": "src/KlerosGovernor.sol:KlerosGovernor",
        "label": "lastApprovalTime",
        "offset": 0,
        "slot": "8",
        "type": "t_uint256"
      },
      {
        "astId": 385,
        "contract": "src/KlerosGovernor.sol:KlerosGovernor",
        "label": "reservedETH",
        "offset": 0,
        "slot": "9",
        "type": "t_uint256"
      },
      {
        "astId": 389,
        "contract": "src/KlerosGovernor.sol:KlerosGovernor",
        "label": "submissions",
        "offset": 0,
        "slot": "10",
        "type": "t_array(t_struct(Submission)363_storage)dyn_storage"
      },
      {
        "astId": 393,
        "contract": "src/KlerosGovernor.sol:KlerosGovernor",
        "label": "sessions",
        "offset": 0,
        "slot": "11",
        "type": "t_array(t_struct(Session)337_storage)dyn_storage"
      },
      {
        "astId": 399,
        "contract": "src/KlerosGovernor.sol:KlerosGovernor",
        "label": "alreadySubmitted",
        "offset": 0,
        "slot": "12",
        "type": "t_mapping(t_uint256,t_mapping(t_bytes32,t_bool))"
      }
    ],
    "types": {
      "t_address": {
        "encoding": "inplace",
        "label": "address",
        "numberOfBytes": "20"
      },
      "t_address_payable": {
        "encoding": "inplace",
        "label": "address payable",
        "numberOfBytes": "20"
      },
      "t_array(t_struct(Session)337_storage)dyn_storage": {
        "base": "t_struct(Session)337_storage",
        "encoding": "dynamic_array",
        "label": "struct KlerosGovernor.Session[]",
        "numberOfBytes": "32"
      },
      "t_array(t_struct(Submission)363_storage)dyn_storage": {
        "base": "t_struct(Submission)363_storage",
        "encoding": "dynamic_array",
        "label": "struct KlerosGovernor.Submission[]",
        "numberOfBytes": "32"
      },
      "t_array(t_struct(Transaction)346_storage)dyn_storage": {
        "base": "t_struct(Transaction)346_storage",
        "encoding": "dynamic_array",
        "label": "struct KlerosGovernor.Transaction[]",
        "numberOfBytes": "32"
      },
      "t_array(t_uint256)dyn_storage": {
        "base": "t_uint256",
        "encoding": "dynamic_array",
        "label": "uint256[]",
        "numberOfBytes": "32"
      },
      "t_bool": {
        "encoding": "inplace",
        "label": "bool",
        "numberOfBytes": "1"
      },
      "t_bytes32": {
        "encoding": "inplace",
        "label": "bytes32",
        "numberOfBytes": "32"
      },
      "t_bytes_storage": {
        "encoding": "bytes",
        "label": "bytes",
        "numberOfBytes": "32"
      },
      "t_contract(IArbitratorV2)134": {
        "encoding": "inplace",
        "label": "contract IArbitratorV2",
        "numberOfBytes": "20"
      },
      "t_contract(IDisputeTemplateRegistry)160": {
        "encoding": "inplace",
        "label": "contract IDisputeTemplateRegistry",
        "numberOfBytes": "20"
      },
      "t_enum(Status)322": {
        "encoding": "inplace",
        "label": "enum KlerosGovernor.Status",
        "numberOfBytes": "1"
      },
      "t_mapping(t_bytes32,t_bool)": {
        "encoding": "mapping",
        "key": "t_bytes32",
        "label": "mapping(bytes32 => bool)",
        "numberOfBytes": "32",
        "value": "t_bool"
      },
      "t_mapping(t_uint256,t_mapping(t_bytes32,t_bool))": {
        "encoding": "mapping",
        "key": "t_uint256",
        "label": "mapping(uint256 => mapping(bytes32 => bool))",
        "numberOfBytes": "32",
        "value": "t_mapping(t_bytes32,t_bool)"
      },
      "t_struct(Session)337_storage": {
        "encoding": "inplace",
        "label": "struct KlerosGovernor.Session",
        "members": [
          {
            "astId": 324,
            "contract": "src/KlerosGovernor.sol:KlerosGovernor",
            "label": "ruling",
            "offset": 0,
            "slot": "0",
            "type": "t_uint256"
          },
          {
            "astId": 326,
            "contract": "src/KlerosGovernor.sol:KlerosGovernor",
            "label": "disputeID",
            "offset": 0,
            "slot": "1",
            "type": "t_uint256"
          },
          {
            "astId": 329,
            "contract": "src/KlerosGovernor.sol:KlerosGovernor",
            "label": "submittedLists",
            "offset": 0,
            "slot": "2",
            "type": "t_array(t_uint256)dyn_storage"
          },
          {
            "astId": 331,
            "contract": "src/KlerosGovernor.sol:KlerosGovernor",
            "label": "sumDeposit",
            "offset": 0,
            "slot": "3",
            "type": "t_uint256"
          },
          {
            "astId": 334,
            "contract": "src/KlerosGovernor.sol:KlerosGovernor",
            "label": "status",
            "offset": 0,
            "slot": "4",
            "type": "t_enum(Status)322"
          },
          {
            "astId": 336,
            "contract": "src/KlerosGovernor.sol:KlerosGovernor",
            "label": "durationOffset",
            "offset": 0,
            "slot": "5",
            "type": "t_uint256"
          }
        ],
        "numberOfBytes": "192"
      },
      "t_struct(Submission)363_storage": {
        "encoding": "inplace",
        "label": "struct KlerosGovernor.Submission",
        "members": [
          {
            "astId": 348,
            "contract": "src/KlerosGovernor.sol:KlerosGovernor",
            "label": "submitter",
            "offset": 0,
            "slot": "0",
            "type": "t_address_payable"
          },
          {
            "astId": 350,
            "contract": "src/KlerosGovernor.sol:KlerosGovernor",
            "label": "deposit",
            "offset": 0,
            "slot": "1",
            "type": "t_uint256"
          },
          {
            "astId": 354,
            "contract": "src/KlerosGovernor.sol:KlerosGovernor",
            "label": "txs",
            "offset": 0,
            "slot": "2",
            "type": "t_array(t_struct(Transaction)346_storage)dyn_storage"
          },
          {
            "astId": 356,
            "contract": "src/KlerosGovernor.sol:KlerosGovernor",
            "label": "listHash",
            "offset": 0,
            "slot": "3",
            "type": "t_bytes32"
          },
          {
            "astId": 358,
            "contract": "src/KlerosGovernor.sol:KlerosGovernor",
            "label": "submissionTime",
            "offset": 0,
            "slot": "4",
            "type": "t_uint256"
          },
          {
            "astId": 360,
            "contract": "src/KlerosGovernor.sol:KlerosGovernor",
            "label": "approved",
            "offset": 0,
            "slot": "5",
            "type": "t_bool"
          },
          {
            "astId": 362,
            "contract": "src/KlerosGovernor.sol:KlerosGovernor",
            "label": "approvalTime",
            "offset": 0,
            "slot": "6",
            "type": "t_uint256"
          }
        ],
        "numberOfBytes": "224"
      },
      "t_struct(Transaction)346_storage": {
        "encoding": "inplace",
        "label": "struct KlerosGovernor.Transaction",
        "members": [
          {
            "astId": 339,
            "contract": "src/KlerosGovernor.sol:KlerosGovernor",
            "label": "target",
            "offset": 0,
            "slot": "0",
            "type": "t_address"
          },
          {
            "astId": 341,
            "contract": "src/KlerosGovernor.sol:KlerosGovernor",
            "label": "value",
            "offset": 0,
            "slot": "1",
            "type": "t_uint256"
          },
          {
            "astId": 343,
            "contract": "src/KlerosGovernor.sol:KlerosGovernor",
            "label": "data",
            "offset": 0,
            "slot": "2",
            "type": "t_bytes_storage"
          },
          {
            "astId": 345,
            "contract": "src/KlerosGovernor.sol:KlerosGovernor",
            "label": "executed",
            "offset": 0,
            "slot": "3",
            "type": "t_bool"
          }
        ],
        "numberOfBytes": "128"
      },
      "t_uint256": {
        "encoding": "inplace",
        "label": "uint256",
        "numberOfBytes": "32"
      }
    }
  }
}