{
  "address": "0x5a6dAe69c24FFDc67d47C08F7b19b71793779F1a",
  "abi": [
    {
      "inputs": [
        {
          "internalType": "contract IArbitratorV2",
          "name": "_arbitrator",
          "type": "address"
        },
        {
          "internalType": "bytes",
          "name": "_arbitratorExtraData",
          "type": "bytes"
        },
        {
          "internalType": "contract IDisputeTemplateRegistry",
          "name": "_templateRegistry",
          "type": "address"
        },
        {
          "internalType": "string",
          "name": "_templateData",
          "type": "string"
        },
        {
          "internalType": "string",
          "name": "_templateDataMappings",
          "type": "string"
        },
        {
          "internalType": "uint256",
          "name": "_submissionBaseDeposit",
          "type": "uint256"
        },
        {
          "internalType": "uint256",
          "name": "_submissionTimeout",
          "type": "uint256"
        },
        {
          "internalType": "uint256",
          "name": "_executionTimeout",
          "type": "uint256"
        },
        {
          "internalType": "uint256",
          "name": "_withdrawTimeout",
          "type": "uint256"
        }
      ],
      "stateMutability": "nonpayable",
      "type": "constructor"
    },
    {
      "anonymous": false,
      "inputs": [
        {
          "indexed": true,
          "internalType": "contract IArbitratorV2",
          "name": "_arbitrator",
          "type": "address"
        },
        {
          "indexed": true,
          "internalType": "uint256",
          "name": "_arbitratorDisputeID",
          "type": "uint256"
        },
        {
          "indexed": false,
          "internalType": "uint256",
          "name": "_externalDisputeID",
          "type": "uint256"
        },
        {
          "indexed": false,
          "internalType": "uint256",
          "name": "_templateId",
          "type": "uint256"
        },
        {
          "indexed": false,
          "internalType": "string",
          "name": "_templateUri",
          "type": "string"
        }
      ],
      "name": "DisputeRequest",
      "type": "event"
    },
    {
      "anonymous": false,
      "inputs": [
        {
          "indexed": true,
          "internalType": "uint256",
          "name": "_listID",
          "type": "uint256"
        },
        {
          "indexed": true,
          "internalType": "address",
          "name": "_submitter",
          "type": "address"
        },
        {
          "indexed": true,
          "internalType": "uint256",
          "name": "_session",
          "type": "uint256"
        },
        {
          "indexed": false,
          "internalType": "string",
          "name": "_description",
          "type": "string"
        }
      ],
      "name": "ListSubmitted",
      "type": "event"
    },
    {
      "anonymous": false,
      "inputs": [
        {
          "indexed": true,
          "internalType": "contract IArbitratorV2",
          "name": "_arbitrator",
          "type": "address"
        },
        {
          "indexed": true,
          "internalType": "uint256",
          "name": "_disputeID",
          "type": "uint256"
        },
        {
          "indexed": false,
          "internalType": "uint256",
          "name": "_ruling",
          "type": "uint256"
        }
      ],
      "name": "Ruling",
      "type": "event"
    },
    {
      "inputs": [],
      "name": "arbitrator",
      "outputs": [
        {
          "internalType": "contract IArbitratorV2",
          "name": "",
          "type": "address"
        }
      ],
      "stateMutability": "view",
      "type": "function"
    },
    {
      "inputs": [],
      "name": "arbitratorExtraData",
      "outputs": [
        {
          "internalType": "bytes",
          "name": "",
          "type": "bytes"
        }
      ],
      "stateMutability": "view",
      "type": "function"
    },
    {
      "inputs": [
        {
          "internalType": "contract IArbitratorV2",
          "name": "_arbitrator",
          "type": "address"
        },
        {
          "internalType": "bytes",
          "name": "_arbitratorExtraData",
          "type": "bytes"
        }
      ],
      "name": "changeArbitrator",
      "outputs": [],
      "stateMutability": "nonpayable",
      "type": "function"
    },
    {
      "inputs": [
        {
          "internalType": "string",
          "name": "_templateData",
          "type": "string"
        },
        {
          "internalType": "string",
          "name": "_templateDataMappings",
          "type": "string"
        }
      ],
      "name": "changeDisputeTemplate",
      "outputs": [],
      "stateMutability": "nonpayable",
      "type": "function"
    },
    {
      "inputs": [
        {
          "internalType": "uint256",
          "name": "_executionTimeout",
          "type": "uint256"
        }
      ],
      "name": "changeExecutionTimeout",
      "outputs": [],
      "stateMutability": "nonpayable",
      "type": "function"
    },
    {
      "inputs": [
        {
          "internalType": "uint256",
          "name": "_submissionBaseDeposit",
          "type": "uint256"
        }
      ],
      "name": "changeSubmissionDeposit",
      "outputs": [],
      "stateMutability": "nonpayable",
      "type": "function"
    },
    {
      "inputs": [
        {
          "internalType": "uint256",
          "name": "_submissionTimeout",
          "type": "uint256"
        }
      ],
      "name": "changeSubmissionTimeout",
      "outputs": [],
      "stateMutability": "nonpayable",
      "type": "function"
    },
    {
      "inputs": [
        {
          "internalType": "uint256",
          "name": "_withdrawTimeout",
          "type": "uint256"
        }
      ],
      "name": "changeWithdrawTimeout",
      "outputs": [],
      "stateMutability": "nonpayable",
      "type": "function"
    },
    {
      "inputs": [],
      "name": "executeSubmissions",
      "outputs": [],
      "stateMutability": "nonpayable",
      "type": "function"
    },
    {
      "inputs": [
        {
          "internalType": "uint256",
          "name": "_listID",
          "type": "uint256"
        },
        {
          "internalType": "uint256",
          "name": "_cursor",
          "type": "uint256"
        },
        {
          "internalType": "uint256",
          "name": "_count",
          "type": "uint256"
        }
      ],
      "name": "executeTransactionList",
      "outputs": [],
      "stateMutability": "nonpayable",
      "type": "function"
    },
    {
      "inputs": [],
      "name": "executionTimeout",
      "outputs": [
        {
          "internalType": "uint256",
          "name": "",
          "type": "uint256"
        }
      ],
      "stateMutability": "view",
      "type": "function"
    },
    {
      "inputs": [],
      "name": "getCurrentSessionNumber",
      "outputs": [
        {
          "internalType": "uint256",
          "name": "",
          "type": "uint256"
        }
      ],
      "stateMutability": "view",
      "type": "function"
    },
    {
      "inputs": [],
      "name": "getExpendableFunds",
      "outputs": [
        {
          "internalType": "uint256",
          "name": "",
          "type": "uint256"
        }
      ],
      "stateMutability": "view",
      "type": "function"
    },
    {
      "inputs": [],
      "name": "getNumberOfCreatedLists",
      "outputs": [
        {
          "internalType": "uint256",
          "name": "",
          "type": "uint256"
        }
      ],
      "stateMutability": "view",
      "type": "function"
    },
    {
      "inputs": [
        {
          "internalType": "uint256",
          "name": "_listID",
          "type": "uint256"
        }
      ],
      "name": "getNumberOfTransactions",
      "outputs": [
        {
          "internalType": "uint256",
          "name": "txCount",
          "type": "uint256"
        }
      ],
      "stateMutability": "view",
      "type": "function"
    },
    {
      "inputs": [
        {
          "internalType": "uint256",
          "name": "_sessionIndex",
          "type": "uint256"
        }
      ],
      "name": "getSession",
      "outputs": [
        {
          "components": [
            {
              "internalType": "uint256",
              "name": "ruling",
              "type": "uint256"
            },
            {
              "internalType": "uint256",
              "name": "disputeID",
              "type": "uint256"
            },
            {
              "internalType": "uint256[]",
              "name": "submittedLists",
              "type": "uint256[]"
            },
            {
              "internalType": "uint256",
              "name": "sumDeposit",
              "type": "uint256"
            },
            {
              "internalType": "enum KlerosGovernor.Status",
              "name": "status",
              "type": "uint8"
            },
            {
              "internalType": "uint256",
              "name": "durationOffset",
              "type": "uint256"
            }
          ],
          "internalType": "struct KlerosGovernor.Session",
          "name": "_session",
          "type": "tuple"
        }
      ],
      "stateMutability": "view",
      "type": "function"
    },
    {
      "inputs": [
        {
          "internalType": "uint256",
          "name": "_listId",
          "type": "uint256"
        }
      ],
      "name": "getSubmission",
      "outputs": [
        {
          "components": [
            {
              "internalType": "address payable",
              "name": "submitter",
              "type": "address"
            },
            {
              "internalType": "uint256",
              "name": "deposit",
              "type": "uint256"
            },
            {
              "components": [
                {
                  "internalType": "address",
                  "name": "target",
                  "type": "address"
                },
                {
                  "internalType": "uint256",
                  "name": "value",
                  "type": "uint256"
                },
                {
                  "internalType": "bytes",
                  "name": "data",
                  "type": "bytes"
                },
                {
                  "internalType": "bool",
                  "name": "executed",
                  "type": "bool"
                }
              ],
              "internalType": "struct KlerosGovernor.Transaction[]",
              "name": "txs",
              "type": "tuple[]"
            },
            {
              "internalType": "bytes32",
              "name": "listHash",
              "type": "bytes32"
            },
            {
              "internalType": "uint256",
              "name": "submissionTime",
              "type": "uint256"
            },
            {
              "internalType": "bool",
              "name": "approved",
              "type": "bool"
            },
            {
              "internalType": "uint256",
              "name": "approvalTime",
              "type": "uint256"
            },
            {
              "internalType": "uint256",
              "name": "submissionBlock",
              "type": "uint256"
            }
          ],
          "internalType": "struct KlerosGovernor.Submission",
          "name": "submission",
          "type": "tuple"
        }
      ],
      "stateMutability": "view",
      "type": "function"
    },
    {
      "inputs": [
        {
          "internalType": "uint256",
          "name": "_session",
          "type": "uint256"
        }
      ],
      "name": "getSubmittedLists",
      "outputs": [
        {
          "internalType": "uint256[]",
          "name": "submittedLists",
          "type": "uint256[]"
        }
      ],
      "stateMutability": "view",
      "type": "function"
    },
    {
      "inputs": [],
      "name": "getTotalSubmissionDeposit",
      "outputs": [
        {
          "internalType": "uint256",
          "name": "_requiredDeposit",
          "type": "uint256"
        }
      ],
      "stateMutability": "view",
      "type": "function"
    },
    {
      "inputs": [
        {
          "internalType": "uint256",
          "name": "_listID",
          "type": "uint256"
        },
        {
          "internalType": "uint256",
          "name": "_transactionIndex",
          "type": "uint256"
        }
      ],
      "name": "getTransactionInfo",
      "outputs": [
        {
          "internalType": "address",
          "name": "target",
          "type": "address"
        },
        {
          "internalType": "uint256",
          "name": "value",
          "type": "uint256"
        },
        {
          "internalType": "bytes",
          "name": "data",
          "type": "bytes"
        },
        {
          "internalType": "bool",
          "name": "executed",
          "type": "bool"
        }
      ],
      "stateMutability": "view",
      "type": "function"
    },
    {
      "inputs": [],
      "name": "lastApprovalTime",
      "outputs": [
        {
          "internalType": "uint256",
          "name": "",
          "type": "uint256"
        }
      ],
      "stateMutability": "view",
      "type": "function"
    },
    {
      "inputs": [],
      "name": "reservedETH",
      "outputs": [
        {
          "internalType": "uint256",
          "name": "",
          "type": "uint256"
        }
      ],
      "stateMutability": "view",
      "type": "function"
    },
    {
      "inputs": [
        {
          "internalType": "uint256",
          "name": "_disputeID",
          "type": "uint256"
        },
        {
          "internalType": "uint256",
          "name": "_ruling",
          "type": "uint256"
        }
      ],
      "name": "rule",
      "outputs": [],
      "stateMutability": "nonpayable",
      "type": "function"
    },
    {
      "inputs": [
        {
          "internalType": "uint256",
          "name": "",
          "type": "uint256"
        }
      ],
      "name": "sessions",
      "outputs": [
        {
          "internalType": "uint256",
          "name": "ruling",
          "type": "uint256"
        },
        {
          "internalType": "uint256",
          "name": "disputeID",
          "type": "uint256"
        },
        {
          "internalType": "uint256",
          "name": "sumDeposit",
          "type": "uint256"
        },
        {
          "internalType": "enum KlerosGovernor.Status",
          "name": "status",
          "type": "uint8"
        },
        {
          "internalType": "uint256",
          "name": "durationOffset",
          "type": "uint256"
        }
      ],
      "stateMutability": "view",
      "type": "function"
    },
    {
      "inputs": [],
      "name": "submissionBaseDeposit",
      "outputs": [
        {
          "internalType": "uint256",
          "name": "",
          "type": "uint256"
        }
      ],
      "stateMutability": "view",
      "type": "function"
    },
    {
      "inputs": [],
      "name": "submissionTimeout",
      "outputs": [
        {
          "internalType": "uint256",
          "name": "",
          "type": "uint256"
        }
      ],
      "stateMutability": "view",
      "type": "function"
    },
    {
      "inputs": [
        {
          "internalType": "uint256",
          "name": "",
          "type": "uint256"
        }
      ],
      "name": "submissions",
      "outputs": [
        {
          "internalType": "address payable",
          "name": "submitter",
          "type": "address"
        },
        {
          "internalType": "uint256",
          "name": "deposit",
          "type": "uint256"
        },
        {
          "internalType": "bytes32",
          "name": "listHash",
          "type": "bytes32"
        },
        {
          "internalType": "uint256",
          "name": "submissionTime",
          "type": "uint256"
        },
        {
          "internalType": "bool",
          "name": "approved",
          "type": "bool"
        },
        {
          "internalType": "uint256",
          "name": "approvalTime",
          "type": "uint256"
        },
        {
          "internalType": "uint256",
          "name": "submissionBlock",
          "type": "uint256"
        }
      ],
      "stateMutability": "view",
      "type": "function"
    },
    {
      "inputs": [
        {
          "internalType": "address[]",
          "name": "_target",
          "type": "address[]"
        },
        {
          "internalType": "uint256[]",
          "name": "_value",
          "type": "uint256[]"
        },
        {
          "internalType": "bytes",
          "name": "_data",
          "type": "bytes"
        },
        {
          "internalType": "uint256[]",
          "name": "_dataSize",
          "type": "uint256[]"
        },
        {
          "internalType": "string",
          "name": "_description",
          "type": "string"
        }
      ],
      "name": "submitList",
      "outputs": [],
      "stateMutability": "payable",
      "type": "function"
    },
    {
      "inputs": [],
      "name": "templateId",
      "outputs": [
        {
          "internalType": "uint256",
          "name": "",
          "type": "uint256"
        }
      ],
      "stateMutability": "view",
      "type": "function"
    },
    {
      "inputs": [],
      "name": "templateRegistry",
      "outputs": [
        {
          "internalType": "contract IDisputeTemplateRegistry",
          "name": "",
          "type": "address"
        }
      ],
      "stateMutability": "view",
      "type": "function"
    },
    {
      "inputs": [],
      "name": "withdrawTimeout",
      "outputs": [
        {
          "internalType": "uint256",
          "name": "",
          "type": "uint256"
        }
      ],
      "stateMutability": "view",
      "type": "function"
    },
    {
      "inputs": [
        {
          "internalType": "uint256",
          "name": "_submissionID",
          "type": "uint256"
        },
        {
          "internalType": "bytes32",
          "name": "_listHash",
          "type": "bytes32"
        }
      ],
      "name": "withdrawTransactionList",
      "outputs": [],
      "stateMutability": "nonpayable",
      "type": "function"
    },
    {
      "stateMutability": "payable",
      "type": "receive"
    }
  ],
  "transactionHash": "0x457dc7ec0cecdc1237dde0148163a6b2a5595ef4a3b8b8386f5bece52e916594",
  "args": [
    "0x4838e31E0ea315232c431598110FE677cAF2D6E6",
    "0x00000000000000000000000000000000000000000000000000000000000000010000000000000000000000000000000000000000000000000000000000000003",
    "0x45f0662ec4aA4164b187c1bd39D35D0E3168787a",
    "{\n  \"$schema\": \"../NewDisputeTemplate.schema.json\",\n  \"title\": \"Execute a transaction list in Kleros Governor\",\n  \"description\": \"Multiple transaction lists were submitted in Kleros Governor session {{externalDisputeID}}, please vote for which list transaction list should be executed.\",\n  \"question\": \"Which transaction list should be executed?\",\n   \"answers\": [\n      {{#listIds}}\n      {\n          \"id\": \"{{#hex}}{{.}}{{/hex}}\",\n          \"title\": \"List - {{ . }}\",\n          \"description\": \"Execute List {{ . }}\"\n          \n      },\n      {{/ listIds }}\n      {\n        \"id\":\"0x00\",\n        \"title\": \"Refuse to Arbitrate\",\n        \"description\": \"No list will be executed.\"\n      }\n\n    ],\n  \"policyURI\": \"/ipfs/QmPt2oTHCYZYUShuLxiK4QWH6sXPHjvgXTqMDpCShKogQY/KlerosGovernorPrimaryDocument.pdf\",\n  \"frontendUrl\": \"https://governor-v2.kleros.builders/governor/{{arbitrableAddress}}\",\n  \"arbitratorChainID\": \"421614\",\n  \"arbitratorAddress\": \"0x4838e31E0ea315232c431598110FE677cAF2D6E6\",\n  \"category\": \"Kleros Governor\",\n  \"version\": \"1.0\"\n}\n",
    "\n[\n  {\n    \"type\": \"abi/call\",\n    \"abi\": \"function getSession(uint256) view returns ((uint256 , uint256 , uint256[] , uint256 , uint8 , uint256 ))\",\n    \"address\": \"{{{arbitrableAddress}}}\",\n    \"functionName\": \"getSession\",\n    \"args\": [\n      \"{{{externalDisputeID}}}\"\n    ],\n    \"seek\": [\n    \"2\"\n    ],\n    \"populate\": [\n      \"listIds\"\n    ]\n  }\n]\n",
    0,
    600,
    600,
    600
  ],
  "numDeployments": 17,
  "solcInputHash": "2b0d0fdba984395deae7da9f7f5e9dd6",
  "bytecode": "0x60806040523480156200001157600080fd5b506040516200310a3803806200310a833981016040819052620000349162000214565b600080546001600160a01b0319166001600160a01b038b1617905560016200005d898262000384565b50426008556004848155600584905560068390556007829055600b80546001908101909155600a80549091018155600052600280546001600160a01b0319166001600160a01b038a169081179091556040516312a6505d60e21b81529091634a99417491620000d1918a918a91016200047e565b6020604051808303816000875af1158015620000f1573d6000803e3d6000fd5b505050506040513d601f19601f82011682018060405250810190620001179190620004be565b60035550620004d8975050505050505050565b80516001600160a01b03811681146200014257600080fd5b919050565b634e487b7160e01b600052604160045260246000fd5b60005b838110156200017a57818101518382015260200162000160565b50506000910152565b600082601f8301126200019557600080fd5b81516001600160401b0380821115620001b257620001b262000147565b604051601f8301601f19908116603f01168101908282118183101715620001dd57620001dd62000147565b81604052838152866020858801011115620001f757600080fd5b6200020a8460208301602089016200015d565b9695505050505050565b60008060008060008060008060006101208a8c0312156200023457600080fd5b6200023f8a6200012a565b60208b01519099506001600160401b03808211156200025d57600080fd5b6200026b8d838e0162000183565b99506200027b60408d016200012a565b985060608c01519150808211156200029257600080fd5b620002a08d838e0162000183565b975060808c0151915080821115620002b757600080fd5b50620002c68c828d0162000183565b95505060a08a0151935060c08a0151925060e08a015191506101008a015190509295985092959850929598565b600181811c908216806200030857607f821691505b6020821081036200032957634e487b7160e01b600052602260045260246000fd5b50919050565b601f8211156200037f576000816000526020600020601f850160051c810160208610156200035a5750805b601f850160051c820191505b818110156200037b5782815560010162000366565b5050505b505050565b81516001600160401b03811115620003a057620003a062000147565b620003b881620003b18454620002f3565b846200032f565b602080601f831160018114620003f05760008415620003d75750858301515b600019600386901b1c1916600185901b1785556200037b565b600085815260208120601f198616915b82811015620004215788860151825594840194600190910190840162000400565b5085821015620004405787850151600019600388901b60f8161c191681555b5050505050600190811b01905550565b600081518084526200046a8160208601602086016200015d565b601f01601f19169290920160200192915050565b6060815260006060820152608060208201526000620004a1608083018562000450565b8281036040840152620004b5818562000450565b95945050505050565b600060208284031215620004d157600080fd5b5051919050565b612c2280620004e86000396000f3fe6080604052600436106101a75760003560e01c80639244c704116100e2578063b6dc775411610085578063b6dc77541461050e578063ba7079ca14610523578063bb0b86ff14610543578063c4bd851914610559578063c5d552881461056f578063cc2bcdb41461058f578063dc17bbdb146105af578063f730c07f146105cf57600080fd5b80639244c704146103dd578063953d6651146103f25780639c15d1a214610412578063a0af81f014610428578063a3c595c914610448578063ad73349e14610478578063b5125700146104d9578063b6cd08c6146104ee57600080fd5b8063402ff0db1161014a578063402ff0db146102d357806346047838146103005780636c0b7e71146103135780636cc6cde1146103285780636cf39c2b1461036057806377b9fda8146103805780637aa77f291461039657806383c4b7a3146103ac57600080fd5b80630c7ac7b6146101b35780631b1f5e7b146101de57806321cea5381461020157806322b52d661461022e578063246c76df1461024457806324baacc714610266578063311a6c56146102865780633e8686cc146102a657600080fd5b366101ae57005b600080fd5b3480156101bf57600080fd5b506101c86105e5565b6040516101d5919061219d565b60405180910390f35b3480156101ea57600080fd5b506101f3610673565b6040519081526020016101d5565b34801561020d57600080fd5b5061022161021c3660046121b7565b6106f8565b6040516101d591906121d0565b34801561023a57600080fd5b506101f360065481565b34801561025057600080fd5b5061026461025f3660046121b7565b61077a565b005b34801561027257600080fd5b506102646102813660046121b7565b6107a7565b34801561029257600080fd5b506102646102a1366004612214565b6107cb565b3480156102b257600080fd5b506102c66102c13660046121b7565b610a16565b6040516101d59190612236565b3480156102df57600080fd5b506102f36102ee3660046121b7565b610c11565b6040516101d59190612371565b61026461030e3660046125cb565b610cff565b34801561031f57600080fd5b506101f36113bf565b34801561033457600080fd5b50600054610348906001600160a01b031681565b6040516001600160a01b0390911681526020016101d5565b34801561036c57600080fd5b5061026461037b36600461269c565b6113d1565b34801561038c57600080fd5b506101f360095481565b3480156103a257600080fd5b506101f360035481565b3480156103b857600080fd5b506103cc6103c73660046121b7565b61160c565b6040516101d59594939291906126c8565b3480156103e957600080fd5b50610264611653565b3480156103fe57600080fd5b5061026461040d3660046121b7565b611a4b565b34801561041e57600080fd5b506101f360075481565b34801561043457600080fd5b50600254610348906001600160a01b031681565b34801561045457600080fd5b50610468610463366004612214565b611ae1565b6040516101d594939291906126fa565b34801561048457600080fd5b506104986104933660046121b7565b611bfb565b604080516001600160a01b03909816885260208801969096529486019390935260608501919091521515608084015260a083015260c082015260e0016101d5565b3480156104e557600080fd5b506101f3611c57565b3480156104fa57600080fd5b50610264610509366004612214565b611c67565b34801561051a57600080fd5b50600a546101f3565b34801561052f57600080fd5b5061026461053e366004612734565b611f63565b34801561054f57600080fd5b506101f360045481565b34801561056557600080fd5b506101f360055481565b34801561057b57600080fd5b5061026461058a366004612783565b612020565b34801561059b57600080fd5b506102646105aa3660046121b7565b6120bb565b3480156105bb57600080fd5b506101f36105ca3660046121b7565b6120df565b3480156105db57600080fd5b506101f360085481565b600180546105f2906127dc565b80601f016020809104026020016040519081016040528092919081815260200182805461061e906127dc565b801561066b5780601f106106405761010080835404028352916020019161066b565b820191906000526020600020905b81548152906001019060200180831161064e57829003601f168201915b505050505081565b6000805460405163f7434ea960e01b81526001600160a01b039091169063f7434ea9906106a590600190600401612893565b602060405180830381865afa1580156106c2573d6000803e3d6000fd5b505050506040513d601f19601f820116820180604052508101906106e691906128a6565b6004546106f391906128d5565b905090565b60606000600b838154811061070f5761070f6128ee565b906000526020600020906006020190508060020180548060200260200160405190810160405280929190818152602001828054801561076d57602002820191906000526020600020905b815481526020019060010190808311610759575b5050505050915050919050565b3033146107a25760405162461bcd60e51b815260040161079990612904565b60405180910390fd5b600755565b3033146107c65760405162461bcd60e51b815260040161079990612904565b600455565b600b8054600091906107df9060019061293b565b815481106107ef576107ef6128ee565b600091825260208220915460069190910290910191506001600160a01b031633146108565760405162461bcd60e51b815260206004820152601760248201527613db9b1e48185c989a5d1c985d1bdc88185b1b1bddd959604a1b6044820152606401610799565b6001600482015460ff16600281111561087157610871612339565b146108ad5760405162461bcd60e51b815260206004820152600c60248201526b57726f6e672073746174757360a01b6044820152606401610799565b60028101548211156108fc5760405162461bcd60e51b8152602060048201526018602482015277293ab634b7339034b99037baba1037b3103137bab732399760411b6044820152606401610799565b8115610994576000600a6002830161091560018661293b565b81548110610925576109256128ee565b906000526020600020015481548110610940576109406128ee565b6000918252602082206005600890920201908101805460ff19166001179055426006820155805460038501546040519294506001600160a01b039091169281156108fc029290818181858888f15050505050505b8060030154600960008282546109aa919061293b565b90915550506000600382018190554260085560048201805460ff19166002179055828255600b805460010181559052604051828152839033907f394027a5fa6e098a1191094d1719d6929b9abc535fcc0c8f448d6a4e75622276906020015b60405180910390a3505050565b610a6c60405180610100016040528060006001600160a01b031681526020016000815260200160608152602001600080191681526020016000815260200160001515815260200160008152602001600081525090565b600a8281548110610a7f57610a7f6128ee565b600091825260208083206040805161010081018252600890940290910180546001600160a01b03168452600181015484840152600281018054835181860281018601855281815295969295938701949192909184015b82821015610bcb576000848152602090819020604080516080810182526004860290920180546001600160a01b0316835260018101549383019390935260028301805492939291840191610b28906127dc565b80601f0160208091040260200160405190810160405280929190818152602001828054610b54906127dc565b8015610ba15780601f10610b7657610100808354040283529160200191610ba1565b820191906000526020600020905b815481529060010190602001808311610b8457829003601f168201915b50505091835250506003919091015460ff1615156020918201529082526001929092019101610ad5565b505050908252506003820154602082015260048201546040820152600582015460ff16151560608201526006820154608082015260079091015460a09091015292915050565b610c19612110565b600b8281548110610c2c57610c2c6128ee565b90600052602060002090600602016040518060c0016040529081600082015481526020016001820154815260200160028201805480602002602001604051908101604052809291908181526020018280548015610ca857602002820191906000526020600020905b815481526020019060010190808311610c94575b505050918352505060038201546020820152600482015460409091019060ff166002811115610cd957610cd9612339565b6002811115610cea57610cea612339565b81526020016005820154815250509050919050565b600b805460009190610d139060019061293b565b81548110610d2357610d236128ee565b906000526020600020906006020160050154905080600554610d4591906128d5565b600854610d52904261293b565b1115610d705760405162461bcd60e51b81526004016107999061294e565b8451865114610dc15760405162461bcd60e51b815260206004820152601d60248201527f57726f6e6720696e7075743a2074617267657420616e642076616c75650000006044820152606401610799565b8251865114610e125760405162461bcd60e51b815260206004820181905260248201527f57726f6e6720696e7075743a2074617267657420616e64206461746173697a656044820152606401610799565b600b805460009190610e269060019061293b565b81548110610e3657610e366128ee565b60009182526020808320600a8054600181018255945260089093027fc65a7bb8d6351c1cf70c95a316cc6a92839c986682d98bc35f958f4883f9d2a80180546001600160a01b031916331781556040805163a3b1b31d60e01b81529051600690940290940194509260649263a3b1b31d926004808401939192918290030181865afa158015610ec9573d6000803e3d6000fd5b505050506040513d601f19601f82011682018060405250810190610eed91906128a6565b600782015560005460405163f7434ea960e01b81526001600160a01b039091169063f7434ea990610f2390600190600401612893565b602060405180830381865afa158015610f40573d6000803e3d6000fd5b505050506040513d601f19601f82011682018060405250810190610f6491906128a6565b600454610f7191906128d5565b60018201819055341015610fc75760405162461bcd60e51b815260206004820152601f60248201527f4e6f7420656e6f7567682045544820746f20636f766572206465706f736974006044820152606401610799565b60008080805b8b518110156111d3576000898281518110610fea57610fea6128ee565b60200260200101516001600160401b0381111561100957611009612404565b6040519080825280601f01601f191660200182016040528015611033576020820181803683370190505b50600287018054600181018255600091825260209091208f51929350600490910201908e9084908110611068576110686128ee565b602090810291909101015181546001600160a01b0319166001600160a01b039091161781558c518d90849081106110a1576110a16128ee565b6020026020010151816001018190555060005b8b84815181106110c6576110c66128ee565b602002602001015181101561112c578c6110e082876128d5565b815181106110f0576110f06128ee565b602001015160f81c60f81b83828151811061110d5761110d6128ee565b60200101906001600160f81b031916908160001a9053506001016110b4565b506002810161113b83826129d6565b508a838151811061114e5761114e6128ee565b60200260200101518461116191906128d5565b8154600183015460405192965061118b926001600160a01b03909216916002850190602001612b08565b60408051601f19818403018152828252805160209182012081840181905283830199909952815180840383018152606090930190915281519101209594505050600101610fcd565b50600b54600c906000906111e99060019061293b565b81526020808201929092526040908101600090812086825290925290205460ff16156112505760405162461bcd60e51b8152602060048201526016602482015275131a5cdd08185b1c9958591e481cdd589b5a5d1d195960521b6044820152606401610799565b6001600c60006001600b80549050611268919061293b565b8152602080820192909252604090810160009081208782529092528120805460ff191692151592909217909155600385810185905542600487015560018601549087018054919290916112bc9084906128d5565b9091555050600a5460028601906112d59060019061293b565b8154600181810184556000938452602090932001556002860154900361130857600854611302904261293b565b60058601555b600b546113179060019061293b565b600a5433906113289060019061293b565b7f1a700b4f7df255aaf8c91c8b05abf0eab596e467dc17ef76fe4afc12541012488a604051611357919061219d565b60405180910390a46000846001015434611371919061293b565b9050801561139657604051339082156108fc029083906000818181858888f150505050505b8460010154600960008282546113ac91906128d5565b9091555050505050505050505050505050565b600b546000906106f39060019061293b565b6000600a84815481106113e6576113e66128ee565b60009182526020909120600890910201600581015490915060ff166114425760405162461bcd60e51b815260206004820152601260248201527114da1bdd5b1908189948185c1c1c9bdd995960721b6044820152606401610799565b600654816006015442611455919061293b565b11156114a35760405162461bcd60e51b815260206004820152601a60248201527f54696d6520746f206578656375746520686173207061737365640000000000006044820152606401610799565b825b6002820154811080156114c857508215806114c857506114c583856128d5565b81105b156116055760008260020182815481106114e4576114e46128ee565b9060005260206000209060040201905060006114fe611c57565b600383015490915060ff1615801561151a575080826001015411155b156115f057815460018301546040516000926001600160a01b03169190611545906002870190612b3b565b60006040518083038185875af1925050503d8060008114611582576040519150601f19603f3d011682016040523d82523d6000602084013e611587565b606091505b50909150508015156001036115ee57600383015460ff16156115de5760405162461bcd60e51b815260206004820152601060248201526f105b1c9958591e48195e1958dd5d195960821b6044820152606401610799565b60038301805460ff191660011790555b505b505080806115fd90612b47565b9150506114a5565b5050505050565b600b818154811061161c57600080fd5b6000918252602090912060069091020180546001820154600383015460048401546005909401549294509092909160ff9091169085565b600b8054600091906116679060019061293b565b81548110611677576116776128ee565b90600052602060002090600602016005015490508060055461169991906128d5565b6008546116a6904261293b565b116116f35760405162461bcd60e51b815260206004820152601e60248201527f417070726f76616c2074696d65206e6f742073746172746564207965742e00006044820152606401610799565b600b8054600091906117079060019061293b565b81548110611717576117176128ee565b6000918252602082206006909102019150600482015460ff16600281111561174157611741612339565b146117815760405162461bcd60e51b815260206004820152601060248201526f105b1c9958591e48191a5cdc1d5d195960821b6044820152606401610799565b60028101546000036117ae5742600855600401805460ff1916600217905550600b80546001018155600052565b600281015460010361188a576000600a826002016000815481106117d4576117d46128ee565b9060005260206000200154815481106117ef576117ef6128ee565b6000918252602082206005600890920201908101805460ff1916600117905542600682015560038401805490839055815460405192945090926001600160a01b039091169183156108fc0291849190818181858888f150504260085550505060048301805460ff19166002179055600b8054600101815560009081526009805483929061187d90849061293b565b90915550611a4792505050565b6004818101805460ff191660019081179091556000805460405163f7434ea960e01b815291936001600160a01b039091169263f7434ea9926118cc9201612893565b602060405180830381865afa1580156118e9573d6000803e3d6000fd5b505050506040513d601f19601f8201168201806040525081019061190d91906128a6565b600054600284015460405163c13517e160e01b81529293506001600160a01b039091169163c13517e19184916119499190600190600401612b60565b60206040518083038185885af1158015611967573d6000803e3d6000fd5b50505050506040513d601f19601f8201168201806040525081019061198c91906128a6565b6001830155600382015481106119a35760006119b3565b8082600301546119b3919061293b565b600383015560095481106119c85760006119d6565b806009546119d6919061293b565b600955600180830154600054600b5491926001600160a01b03909116917f8bd32f430ff060e6bd204709b3790c9807987263d3230c580dc80b5f89e2718691611a1e9161293b565b600354604051610a09929190918252602082015260606040820181905260009082015260800190565b5050565b303314611a6a5760405162461bcd60e51b815260040161079990612904565b600b805460009190611a7e9060019061293b565b81548110611a8e57611a8e6128ee565b906000526020600020906006020160050154905080600554611ab091906128d5565b600854611abd904261293b565b1115611adb5760405162461bcd60e51b81526004016107999061294e565b50600555565b6000806060600080600a8781548110611afc57611afc6128ee565b906000526020600020906008020190506000816002018781548110611b2357611b236128ee565b600091825260209091206004909102018054600182015460038301546002840180549495506001600160a01b039093169391929160ff909116908290611b68906127dc565b80601f0160208091040260200160405190810160405280929190818152602001828054611b94906127dc565b8015611be15780601f10611bb657610100808354040283529160200191611be1565b820191906000526020600020905b815481529060010190602001808311611bc457829003601f168201915b505050505091509550955095509550505092959194509250565b600a8181548110611c0b57600080fd5b600091825260209091206008909102018054600182015460038301546004840154600585015460068601546007909601546001600160a01b03909516965092949193909260ff16919087565b6000600954476106f3919061293b565b600b805460009190611c7b9060019061293b565b81548110611c8b57611c8b6128ee565b906000526020600020906006020190506000600a826002018581548110611cb457611cb46128ee565b906000526020600020015481548110611ccf57611ccf6128ee565b906000526020600020906008020190506002600554611cee9190612b81565b600854611cfb904261293b565b1115611d435760405162461bcd60e51b815260206004820152601760248201527629b437bab6321031329034b7103334b939ba103430b63360491b6044820152606401610799565b82816003015414611d885760405162461bcd60e51b815260206004820152600f60248201526e0aee4dedcce40d8d2e6e840d0c2e6d608b1b6044820152606401610799565b80546001600160a01b03163314611de15760405162461bcd60e51b815260206004820152601b60248201527f4f6e6c79207375626d69747465722063616e20776974686472617700000000006044820152606401610799565b6007546004820154611df3904261293b565b1115611e415760405162461bcd60e51b815260206004820152601c60248201527f5769746864726177696e672074696d6520686173207061737365642e000000006044820152606401610799565b600282018054611e539060019061293b565b81548110611e6357611e636128ee565b9060005260206000200154826002018581548110611e8357611e836128ee565b6000918252602082200191909155600b54600c908290611ea59060019061293b565b8152602080820192909252604090810160009081208782529092529020805460ff191691151591909117905560028201805480611ee457611ee4612ba3565b600190038181906000526020600020016000905590558060010154826003016000828254611f12919061293b565b9091555050600181015460098054600090611f2e90849061293b565b90915550506001810154604051339180156108fc02916000818181858888f19350505050158015611605573d6000803e3d6000fd5b303314611f825760405162461bcd60e51b815260040161079990612904565b600b805460009190611f969060019061293b565b81548110611fa657611fa66128ee565b906000526020600020906006020160050154905080600554611fc891906128d5565b600854611fd5904261293b565b1115611ff35760405162461bcd60e51b81526004016107999061294e565b600080546001600160a01b0319166001600160a01b038516179055600161201a83826129d6565b50505050565b30331461203f5760405162461bcd60e51b815260040161079990612904565b6002546040516312a6505d60e21b81526001600160a01b0390911690634a994174906120719085908590600401612bb9565b6020604051808303816000875af1158015612090573d6000803e3d6000fd5b505050506040513d601f19601f820116820180604052508101906120b491906128a6565b6003555050565b3033146120da5760405162461bcd60e51b815260040161079990612904565b600655565b600080600a83815481106120f5576120f56128ee565b60009182526020909120600260089092020101549392505050565b6040518060c00160405280600081526020016000815260200160608152602001600081526020016000600281111561214a5761214a612339565b8152602001600081525090565b6000815180845260005b8181101561217d57602081850181015186830182015201612161565b506000602082860101526020601f19601f83011685010191505092915050565b6020815260006121b06020830184612157565b9392505050565b6000602082840312156121c957600080fd5b5035919050565b6020808252825182820181905260009190848201906040850190845b81811015612208578351835292840192918401916001016121ec565b50909695505050505050565b6000806040838503121561222757600080fd5b50508035926020909101359150565b60006020808352610120830160018060a01b0380865116838601528286015160408160408801526040880151915061010060608160608a01528584518088526101409750878b019150878160051b8c01019750888601955060005b818110156122ea5761013f198c8a0301835286516080898251168b528b8201518c8c01528782015181898d01526122ca828d0182612157565b9287015115159b87019b909b525098509589019591890191600101612291565b5050505060608901516080890152608089015160a089015260a0890151955061231760c089018715159052565b60c089015160e089015260e08901518189015250505050809250505092915050565b634e487b7160e01b600052602160045260246000fd5b6003811061236d57634e487b7160e01b600052602160045260246000fd5b9052565b6000602080835260e08301845182850152818501516040850152604085015160c06060860152818151808452610100870191508483019350600092505b808310156123ce57835182529284019260019290920191908401906123ae565b5060608701516080870152608087015193506123ed60a087018561234f565b60a087015160c08701528094505050505092915050565b634e487b7160e01b600052604160045260246000fd5b604051601f8201601f191681016001600160401b038111828210171561244257612442612404565b604052919050565b60006001600160401b0382111561246357612463612404565b5060051b60200190565b6001600160a01b038116811461248257600080fd5b50565b600082601f83011261249657600080fd5b813560206124ab6124a68361244a565b61241a565b8083825260208201915060208460051b8701019350868411156124cd57600080fd5b602086015b848110156124f25780356124e58161246d565b83529183019183016124d2565b509695505050505050565b600082601f83011261250e57600080fd5b8135602061251e6124a68361244a565b8083825260208201915060208460051b87010193508684111561254057600080fd5b602086015b848110156124f25780358352918301918301612545565b600082601f83011261256d57600080fd5b81356001600160401b0381111561258657612586612404565b612599601f8201601f191660200161241a565b8181528460208386010111156125ae57600080fd5b816020850160208301376000918101602001919091529392505050565b600080600080600060a086880312156125e357600080fd5b85356001600160401b03808211156125fa57600080fd5b61260689838a01612485565b9650602088013591508082111561261c57600080fd5b61262889838a016124fd565b9550604088013591508082111561263e57600080fd5b61264a89838a0161255c565b9450606088013591508082111561266057600080fd5b61266c89838a016124fd565b9350608088013591508082111561268257600080fd5b5061268f8882890161255c565b9150509295509295909350565b6000806000606084860312156126b157600080fd5b505081359360208301359350604090920135919050565b858152602081018590526040810184905260a081016126ea606083018561234f565b8260808301529695505050505050565b60018060a01b03851681528360208201526080604082015260006127216080830185612157565b9050821515606083015295945050505050565b6000806040838503121561274757600080fd5b82356127528161246d565b915060208301356001600160401b0381111561276d57600080fd5b6127798582860161255c565b9150509250929050565b6000806040838503121561279657600080fd5b82356001600160401b03808211156127ad57600080fd5b6127b98683870161255c565b935060208501359150808211156127cf57600080fd5b506127798582860161255c565b600181811c908216806127f057607f821691505b60208210810361281057634e487b7160e01b600052602260045260246000fd5b50919050565b60008154612823816127dc565b808552602060018381168015612840576001811461285a57612888565b60ff1985168884015283151560051b880183019550612888565b866000528260002060005b858110156128805781548a8201860152908301908401612865565b890184019650505b505050505092915050565b6020815260006121b06020830184612816565b6000602082840312156128b857600080fd5b5051919050565b634e487b7160e01b600052601160045260246000fd5b808201808211156128e8576128e86128bf565b92915050565b634e487b7160e01b600052603260045260246000fd5b6020808252601a908201527f4f6e6c792074686520676f7665726e6f7220616c6c6f7765642e000000000000604082015260600190565b818103818111156128e8576128e86128bf565b6020808252601a908201527f5375626d697373696f6e2074696d652068617320656e6465642e000000000000604082015260600190565b601f8211156129d1576000816000526020600020601f850160051c810160208610156129ae5750805b601f850160051c820191505b818110156129cd578281556001016129ba565b5050505b505050565b81516001600160401b038111156129ef576129ef612404565b612a03816129fd84546127dc565b84612985565b602080601f831160018114612a385760008415612a205750858301515b600019600386901b1c1916600185901b1785556129cd565b600085815260208120601f198616915b82811015612a6757888601518255948401946001909101908401612a48565b5085821015612a855787850151600019600388901b60f8161c191681555b5050505050600190811b01905550565b60008154612aa2816127dc565b60018281168015612aba5760018114612acf57612afe565b60ff1984168752821515830287019450612afe565b8560005260208060002060005b85811015612af55781548a820152908401908201612adc565b50505082870194505b5050505092915050565b6bffffffffffffffffffffffff198460601b1681528260148201526000612b326034830184612a95565b95945050505050565b60006121b08284612a95565b600060018201612b5957612b596128bf565b5060010190565b828152604060208201526000612b796040830184612816565b949350505050565b600082612b9e57634e487b7160e01b600052601260045260246000fd5b500490565b634e487b7160e01b600052603160045260246000fd5b6060815260006060820152608060208201526000612bda6080830185612157565b8281036040840152612b32818561215756fea26469706673582212209c0c5fcddd41b1e2b82bb12b3932cc4e4e9cc6436b435232731efd8374c795a964736f6c63430008180033",
  "devdoc": {
    "events": {
      "DisputeRequest(address,uint256,uint256,uint256,string)": {
        "details": "To be emitted when a dispute is created to link the correct meta-evidence to the disputeID.",
        "params": {
          "_arbitrator": "The arbitrator of the contract.",
          "_arbitratorDisputeID": "The identifier of the dispute in the Arbitrator contract.",
          "_externalDisputeID": "An identifier created outside Kleros by the protocol requesting arbitration.",
          "_templateId": "The identifier of the dispute template. Should not be used with _templateUri.",
          "_templateUri": "The URI to the dispute template. For example on IPFS: starting with '/ipfs/'. Should not be used with _templateId."
        }
      },
      "ListSubmitted(uint256,address,uint256,string)": {
        "details": "Emitted when a new list is submitted.",
        "params": {
          "_description": "The string in CSV format that contains labels of list's transactions. Note that the submitter may give bad descriptions of correct actions, but this is to be seen as UI enhancement, not a critical feature and that would play against him in case of dispute.",
          "_listID": "The index of the transaction list in the array of lists.",
          "_session": "The number of the current session.",
          "_submitter": "The address that submitted the list."
        }
      },
      "Ruling(address,uint256,uint256)": {
        "details": "To be raised when a ruling is given.",
        "params": {
          "_arbitrator": "The arbitrator giving the ruling.",
          "_disputeID": "The identifier of the dispute in the Arbitrator contract.",
          "_ruling": "The ruling which was given."
        }
      }
    },
    "kind": "dev",
    "methods": {
      "changeArbitrator(address,bytes)": {
        "details": "Changes the arbitrator of the contract. Note that it can't be changed during approval period because there can be an active dispute in the old arbitrator contract.",
        "params": {
          "_arbitrator": "The new trusted arbitrator.",
          "_arbitratorExtraData": "The extra data used by the new arbitrator."
        }
      },
      "changeDisputeTemplate(string,string)": {
        "details": "Update the dispute template data.",
        "params": {
          "_templateData": "The new dispute template data.",
          "_templateDataMappings": "The new dispute template data mappings."
        }
      },
      "changeExecutionTimeout(uint256)": {
        "details": "Changes the time allocated for list's execution.",
        "params": {
          "_executionTimeout": "The new duration of the execution timeout, in seconds."
        }
      },
      "changeSubmissionDeposit(uint256)": {
        "details": "Changes the value of the base deposit required for submitting a list.",
        "params": {
          "_submissionBaseDeposit": "The new value of the base deposit, in wei."
        }
      },
      "changeSubmissionTimeout(uint256)": {
        "details": "Changes the time allocated for submission. Note that it can't be changed during approval period because there can be an active dispute in the old arbitrator contract and prolonging submission timeout might switch it back to submission period.",
        "params": {
          "_submissionTimeout": "The new duration of the submission period, in seconds."
        }
      },
      "changeWithdrawTimeout(uint256)": {
        "details": "Changes list withdrawal timeout. Note that withdrawals are only possible in the first half of the submission period.",
        "params": {
          "_withdrawTimeout": "The new duration of withdraw period, in seconds."
        }
      },
      "constructor": {
        "details": "Constructor.",
        "params": {
          "_arbitrator": "The arbitrator of the contract.",
          "_arbitratorExtraData": "Extra data for the arbitrator.",
          "_executionTimeout": "Time in seconds after approval that allows to execute transactions of the approved list.",
          "_submissionBaseDeposit": "The base deposit required for submission.",
          "_submissionTimeout": "Time in seconds allocated for submitting transaction list.",
          "_templateData": "The dispute template data.",
          "_templateDataMappings": "The dispute template data mappings.",
          "_templateRegistry": "Dispute Template registry address",
          "_withdrawTimeout": "Time in seconds after submission that allows to withdraw submitted list."
        }
      },
      "executeSubmissions()": {
        "details": "Approves a transaction list or creates a dispute if more than one list was submitted. If nothing was submitted changes session."
      },
      "executeTransactionList(uint256,uint256,uint256)": {
        "details": "Executes selected transactions of the list.",
        "params": {
          "_count": "Number of transactions to execute. Executes until the end if set to \"0\" or number higher than number of transactions in the list.",
          "_cursor": "Index of the transaction from which to start executing.",
          "_listID": "The index of the transaction list in the array of lists."
        }
      },
      "getCurrentSessionNumber()": {
        "details": "Gets the number of the ongoing session.",
        "returns": {
          "_0": "The number of the ongoing session."
        }
      },
      "getExpendableFunds()": {
        "details": "Gets the sum of contract funds that are used for the execution of transactions.",
        "returns": {
          "_0": "Contract balance without reserved ETH."
        }
      },
      "getNumberOfCreatedLists()": {
        "details": "Gets the number of lists created in contract's lifetime.",
        "returns": {
          "_0": "The number of created lists."
        }
      },
      "getNumberOfTransactions(uint256)": {
        "details": "Gets the number of transactions in the list.",
        "params": {
          "_listID": "The index of the transaction list in the array of lists."
        },
        "returns": {
          "txCount": "The number of transactions in the list."
        }
      },
      "getSession(uint256)": {
        "details": "Gets the session from the session index.",
        "returns": {
          "_session": "The session info."
        }
      },
      "getSubmission(uint256)": {
        "details": "Gets the submission from listId.",
        "params": {
          "_listId": "The index of the transaction list in the array of lists."
        },
        "returns": {
          "submission": "List belonging to that listId."
        }
      },
      "getSubmittedLists(uint256)": {
        "details": "Gets the array of submitted lists in the session. Note that this function is O(n), where n is the number of submissions in the session. This could exceed the gas limit, therefore this function should only be used for interface display and not by other contracts.",
        "params": {
          "_session": "The ID of the session."
        },
        "returns": {
          "submittedLists": "Indexes of lists that were submitted during the session."
        }
      },
      "getTotalSubmissionDeposit()": {
        "details": "Gets the total deposit required to submit a list. (submissionBaseDeposit + arbitrationCost).",
        "returns": {
          "_requiredDeposit": "required deposit value"
        }
      },
      "getTransactionInfo(uint256,uint256)": {
        "details": "Gets the info of the specific transaction in the specific list.",
        "params": {
          "_listID": "The index of the transaction list in the array of lists.",
          "_transactionIndex": "The index of the transaction."
        },
        "returns": {
          "data": "The data of the transaction.",
          "executed": "Whether the transaction was executed or not.",
          "target": "The target of the transaction.",
          "value": "The value of the transaction."
        }
      },
      "rule(uint256,uint256)": {
        "details": "Gives a ruling for a dispute. Must be called by the arbitrator.",
        "params": {
          "_disputeID": "ID of the dispute in the Arbitrator contract.",
          "_ruling": "Ruling given by the arbitrator. Note that 0 is reserved for \"Refuse to arbitrate\". Note If the final ruling is \"0\" nothing is approved and deposits will stay locked in the contract."
        }
      },
      "submitList(address[],uint256[],bytes,uint256[],string)": {
        "details": "Creates transaction list based on input parameters and submits it for potential approval and execution.",
        "params": {
          "_data": "Concatenated calldata of all transactions of this list.",
          "_dataSize": "List of lengths in bytes required to split calldata for its respective targets.",
          "_description": "String in CSV format that describes list's transactions.",
          "_target": "List of addresses to call.",
          "_value": "List of values required for respective addresses."
        }
      },
      "withdrawTransactionList(uint256,bytes32)": {
        "details": "Withdraws submitted transaction list. Reimburses submission deposit. Withdrawal is only possible during the first half of the submission period and during withdrawTimeout after the submission is made.",
        "params": {
          "_listHash": "Hash of a withdrawing list.",
          "_submissionID": "Submission's index in the array of submitted lists of the current session."
        }
      }
    },
    "title": "KlerosGovernor for V2. Note that appeal functionality and evidence submission will be handled by the court.",
    "version": 1
  },
  "userdoc": {
    "kind": "user",
    "methods": {},
    "version": 1
  },
  "storageLayout": {
    "storage": [
      {
        "astId": 378,
        "contract": "src/KlerosGovernor.sol:KlerosGovernor",
        "label": "arbitrator",
        "offset": 0,
        "slot": "0",
        "type": "t_contract(IArbitratorV2)134"
      },
      {
        "astId": 380,
        "contract": "src/KlerosGovernor.sol:KlerosGovernor",
        "label": "arbitratorExtraData",
        "offset": 0,
        "slot": "1",
        "type": "t_bytes_storage"
      },
      {
        "astId": 383,
        "contract": "src/KlerosGovernor.sol:KlerosGovernor",
        "label": "templateRegistry",
        "offset": 0,
        "slot": "2",
        "type": "t_contract(IDisputeTemplateRegistry)160"
      },
      {
        "astId": 385,
        "contract": "src/KlerosGovernor.sol:KlerosGovernor",
        "label": "templateId",
        "offset": 0,
        "slot": "3",
        "type": "t_uint256"
      },
      {
        "astId": 387,
        "contract": "src/KlerosGovernor.sol:KlerosGovernor",
        "label": "submissionBaseDeposit",
        "offset": 0,
        "slot": "4",
        "type": "t_uint256"
      },
      {
        "astId": 389,
        "contract": "src/KlerosGovernor.sol:KlerosGovernor",
        "label": "submissionTimeout",
        "offset": 0,
        "slot": "5",
        "type": "t_uint256"
      },
      {
        "astId": 391,
        "contract": "src/KlerosGovernor.sol:KlerosGovernor",
        "label": "executionTimeout",
        "offset": 0,
        "slot": "6",
        "type": "t_uint256"
      },
      {
        "astId": 393,
        "contract": "src/KlerosGovernor.sol:KlerosGovernor",
        "label": "withdrawTimeout",
        "offset": 0,
        "slot": "7",
        "type": "t_uint256"
      },
      {
        "astId": 395,
        "contract": "src/KlerosGovernor.sol:KlerosGovernor",
        "label": "lastApprovalTime",
        "offset": 0,
        "slot": "8",
        "type": "t_uint256"
      },
      {
        "astId": 397,
        "contract": "src/KlerosGovernor.sol:KlerosGovernor",
        "label": "reservedETH",
        "offset": 0,
        "slot": "9",
        "type": "t_uint256"
      },
      {
        "astId": 401,
        "contract": "src/KlerosGovernor.sol:KlerosGovernor",
        "label": "submissions",
        "offset": 0,
        "slot": "10",
        "type": "t_array(t_struct(Submission)366_storage)dyn_storage"
      },
      {
        "astId": 405,
        "contract": "src/KlerosGovernor.sol:KlerosGovernor",
        "label": "sessions",
        "offset": 0,
        "slot": "11",
        "type": "t_array(t_struct(Session)338_storage)dyn_storage"
      },
      {
        "astId": 411,
        "contract": "src/KlerosGovernor.sol:KlerosGovernor",
        "label": "alreadySubmitted",
        "offset": 0,
        "slot": "12",
        "type": "t_mapping(t_uint256,t_mapping(t_bytes32,t_bool))"
      }
    ],
    "types": {
      "t_address": {
        "encoding": "inplace",
        "label": "address",
        "numberOfBytes": "20"
      },
      "t_address_payable": {
        "encoding": "inplace",
        "label": "address payable",
        "numberOfBytes": "20"
      },
      "t_array(t_struct(Session)338_storage)dyn_storage": {
        "base": "t_struct(Session)338_storage",
        "encoding": "dynamic_array",
        "label": "struct KlerosGovernor.Session[]",
        "numberOfBytes": "32"
      },
      "t_array(t_struct(Submission)366_storage)dyn_storage": {
        "base": "t_struct(Submission)366_storage",
        "encoding": "dynamic_array",
        "label": "struct KlerosGovernor.Submission[]",
        "numberOfBytes": "32"
      },
      "t_array(t_struct(Transaction)347_storage)dyn_storage": {
        "base": "t_struct(Transaction)347_storage",
        "encoding": "dynamic_array",
        "label": "struct KlerosGovernor.Transaction[]",
        "numberOfBytes": "32"
      },
      "t_array(t_uint256)dyn_storage": {
        "base": "t_uint256",
        "encoding": "dynamic_array",
        "label": "uint256[]",
        "numberOfBytes": "32"
      },
      "t_bool": {
        "encoding": "inplace",
        "label": "bool",
        "numberOfBytes": "1"
      },
      "t_bytes32": {
        "encoding": "inplace",
        "label": "bytes32",
        "numberOfBytes": "32"
      },
      "t_bytes_storage": {
        "encoding": "bytes",
        "label": "bytes",
        "numberOfBytes": "32"
      },
      "t_contract(IArbitratorV2)134": {
        "encoding": "inplace",
        "label": "contract IArbitratorV2",
        "numberOfBytes": "20"
      },
      "t_contract(IDisputeTemplateRegistry)160": {
        "encoding": "inplace",
        "label": "contract IDisputeTemplateRegistry",
        "numberOfBytes": "20"
      },
      "t_enum(Status)323": {
        "encoding": "inplace",
        "label": "enum KlerosGovernor.Status",
        "numberOfBytes": "1"
      },
      "t_mapping(t_bytes32,t_bool)": {
        "encoding": "mapping",
        "key": "t_bytes32",
        "label": "mapping(bytes32 => bool)",
        "numberOfBytes": "32",
        "value": "t_bool"
      },
      "t_mapping(t_uint256,t_mapping(t_bytes32,t_bool))": {
        "encoding": "mapping",
        "key": "t_uint256",
        "label": "mapping(uint256 => mapping(bytes32 => bool))",
        "numberOfBytes": "32",
        "value": "t_mapping(t_bytes32,t_bool)"
      },
      "t_struct(Session)338_storage": {
        "encoding": "inplace",
        "label": "struct KlerosGovernor.Session",
        "members": [
          {
            "astId": 325,
            "contract": "src/KlerosGovernor.sol:KlerosGovernor",
            "label": "ruling",
            "offset": 0,
            "slot": "0",
            "type": "t_uint256"
          },
          {
            "astId": 327,
            "contract": "src/KlerosGovernor.sol:KlerosGovernor",
            "label": "disputeID",
            "offset": 0,
            "slot": "1",
            "type": "t_uint256"
          },
          {
            "astId": 330,
            "contract": "src/KlerosGovernor.sol:KlerosGovernor",
            "label": "submittedLists",
            "offset": 0,
            "slot": "2",
            "type": "t_array(t_uint256)dyn_storage"
          },
          {
            "astId": 332,
            "contract": "src/KlerosGovernor.sol:KlerosGovernor",
            "label": "sumDeposit",
            "offset": 0,
            "slot": "3",
            "type": "t_uint256"
          },
          {
            "astId": 335,
            "contract": "src/KlerosGovernor.sol:KlerosGovernor",
            "label": "status",
            "offset": 0,
            "slot": "4",
            "type": "t_enum(Status)323"
          },
          {
            "astId": 337,
            "contract": "src/KlerosGovernor.sol:KlerosGovernor",
            "label": "durationOffset",
            "offset": 0,
            "slot": "5",
            "type": "t_uint256"
          }
        ],
        "numberOfBytes": "192"
      },
      "t_struct(Submission)366_storage": {
        "encoding": "inplace",
        "label": "struct KlerosGovernor.Submission",
        "members": [
          {
            "astId": 349,
            "contract": "src/KlerosGovernor.sol:KlerosGovernor",
            "label": "submitter",
            "offset": 0,
            "slot": "0",
            "type": "t_address_payable"
          },
          {
            "astId": 351,
            "contract": "src/KlerosGovernor.sol:KlerosGovernor",
            "label": "deposit",
            "offset": 0,
            "slot": "1",
            "type": "t_uint256"
          },
          {
            "astId": 355,
            "contract": "src/KlerosGovernor.sol:KlerosGovernor",
            "label": "txs",
            "offset": 0,
            "slot": "2",
            "type": "t_array(t_struct(Transaction)347_storage)dyn_storage"
          },
          {
            "astId": 357,
            "contract": "src/KlerosGovernor.sol:KlerosGovernor",
            "label": "listHash",
            "offset": 0,
            "slot": "3",
            "type": "t_bytes32"
          },
          {
            "astId": 359,
            "contract": "src/KlerosGovernor.sol:KlerosGovernor",
            "label": "submissionTime",
            "offset": 0,
            "slot": "4",
            "type": "t_uint256"
          },
          {
            "astId": 361,
            "contract": "src/KlerosGovernor.sol:KlerosGovernor",
            "label": "approved",
            "offset": 0,
            "slot": "5",
            "type": "t_bool"
          },
          {
            "astId": 363,
            "contract": "src/KlerosGovernor.sol:KlerosGovernor",
            "label": "approvalTime",
            "offset": 0,
            "slot": "6",
            "type": "t_uint256"
          },
          {
            "astId": 365,
            "contract": "src/KlerosGovernor.sol:KlerosGovernor",
            "label": "submissionBlock",
            "offset": 0,
            "slot": "7",
            "type": "t_uint256"
          }
        ],
        "numberOfBytes": "256"
      },
      "t_struct(Transaction)347_storage": {
        "encoding": "inplace",
        "label": "struct KlerosGovernor.Transaction",
        "members": [
          {
            "astId": 340,
            "contract": "src/KlerosGovernor.sol:KlerosGovernor",
            "label": "target",
            "offset": 0,
            "slot": "0",
            "type": "t_address"
          },
          {
            "astId": 342,
            "contract": "src/KlerosGovernor.sol:KlerosGovernor",
            "label": "value",
            "offset": 0,
            "slot": "1",
            "type": "t_uint256"
          },
          {
            "astId": 344,
            "contract": "src/KlerosGovernor.sol:KlerosGovernor",
            "label": "data",
            "offset": 0,
            "slot": "2",
            "type": "t_bytes_storage"
          },
          {
            "astId": 346,
            "contract": "src/KlerosGovernor.sol:KlerosGovernor",
            "label": "executed",
            "offset": 0,
            "slot": "3",
            "type": "t_bool"
          }
        ],
        "numberOfBytes": "128"
      },
      "t_uint256": {
        "encoding": "inplace",
        "label": "uint256",
        "numberOfBytes": "32"
      }
    }
  }
}